{
  "contractName": "LeapW2E",
  "abi": [
    {
      "inputs": [],
      "stateMutability": "nonpayable",
      "type": "constructor"
    },
    {
      "anonymous": false,
      "inputs": [
        {
          "indexed": true,
          "internalType": "address",
          "name": "owner",
          "type": "address"
        },
        {
          "indexed": true,
          "internalType": "address",
          "name": "spender",
          "type": "address"
        },
        {
          "indexed": false,
          "internalType": "uint256",
          "name": "value",
          "type": "uint256"
        }
      ],
      "name": "Approval",
      "type": "event"
    },
    {
      "anonymous": false,
      "inputs": [
        {
          "indexed": true,
          "internalType": "address",
          "name": "previousOwner",
          "type": "address"
        },
        {
          "indexed": true,
          "internalType": "address",
          "name": "newOwner",
          "type": "address"
        }
      ],
      "name": "OwnershipTransferred",
      "type": "event"
    },
    {
      "anonymous": false,
      "inputs": [
        {
          "indexed": false,
          "internalType": "address",
          "name": "account",
          "type": "address"
        }
      ],
      "name": "Paused",
      "type": "event"
    },
    {
      "anonymous": false,
      "inputs": [
        {
          "indexed": false,
          "internalType": "uint256",
          "name": "id",
          "type": "uint256"
        }
      ],
      "name": "Snapshot",
      "type": "event"
    },
    {
      "anonymous": false,
      "inputs": [
        {
          "indexed": true,
          "internalType": "address",
          "name": "from",
          "type": "address"
        },
        {
          "indexed": true,
          "internalType": "address",
          "name": "to",
          "type": "address"
        },
        {
          "indexed": false,
          "internalType": "uint256",
          "name": "value",
          "type": "uint256"
        }
      ],
      "name": "Transfer",
      "type": "event"
    },
    {
      "anonymous": false,
      "inputs": [
        {
          "indexed": false,
          "internalType": "address",
          "name": "account",
          "type": "address"
        }
      ],
      "name": "Unpaused",
      "type": "event"
    },
    {
      "inputs": [
        {
          "internalType": "address",
          "name": "owner",
          "type": "address"
        },
        {
          "internalType": "address",
          "name": "spender",
          "type": "address"
        }
      ],
      "name": "allowance",
      "outputs": [
        {
          "internalType": "uint256",
          "name": "",
          "type": "uint256"
        }
      ],
      "stateMutability": "view",
      "type": "function"
    },
    {
      "inputs": [
        {
          "internalType": "address",
          "name": "spender",
          "type": "address"
        },
        {
          "internalType": "uint256",
          "name": "amount",
          "type": "uint256"
        }
      ],
      "name": "approve",
      "outputs": [
        {
          "internalType": "bool",
          "name": "",
          "type": "bool"
        }
      ],
      "stateMutability": "nonpayable",
      "type": "function"
    },
    {
      "inputs": [
        {
          "internalType": "address",
          "name": "account",
          "type": "address"
        }
      ],
      "name": "balanceOf",
      "outputs": [
        {
          "internalType": "uint256",
          "name": "",
          "type": "uint256"
        }
      ],
      "stateMutability": "view",
      "type": "function"
    },
    {
      "inputs": [
        {
          "internalType": "address",
          "name": "account",
          "type": "address"
        },
        {
          "internalType": "uint256",
          "name": "snapshotId",
          "type": "uint256"
        }
      ],
      "name": "balanceOfAt",
      "outputs": [
        {
          "internalType": "uint256",
          "name": "",
          "type": "uint256"
        }
      ],
      "stateMutability": "view",
      "type": "function"
    },
    {
      "inputs": [
        {
          "internalType": "uint256",
          "name": "amount",
          "type": "uint256"
        }
      ],
      "name": "burn",
      "outputs": [],
      "stateMutability": "nonpayable",
      "type": "function"
    },
    {
      "inputs": [
        {
          "internalType": "address",
          "name": "account",
          "type": "address"
        },
        {
          "internalType": "uint256",
          "name": "amount",
          "type": "uint256"
        }
      ],
      "name": "burnFrom",
      "outputs": [],
      "stateMutability": "nonpayable",
      "type": "function"
    },
    {
      "inputs": [],
      "name": "decimals",
      "outputs": [
        {
          "internalType": "uint8",
          "name": "",
          "type": "uint8"
        }
      ],
      "stateMutability": "view",
      "type": "function"
    },
    {
      "inputs": [
        {
          "internalType": "address",
          "name": "spender",
          "type": "address"
        },
        {
          "internalType": "uint256",
          "name": "subtractedValue",
          "type": "uint256"
        }
      ],
      "name": "decreaseAllowance",
      "outputs": [
        {
          "internalType": "bool",
          "name": "",
          "type": "bool"
        }
      ],
      "stateMutability": "nonpayable",
      "type": "function"
    },
    {
      "inputs": [
        {
          "internalType": "address",
          "name": "spender",
          "type": "address"
        },
        {
          "internalType": "uint256",
          "name": "addedValue",
          "type": "uint256"
        }
      ],
      "name": "increaseAllowance",
      "outputs": [
        {
          "internalType": "bool",
          "name": "",
          "type": "bool"
        }
      ],
      "stateMutability": "nonpayable",
      "type": "function"
    },
    {
      "inputs": [],
      "name": "name",
      "outputs": [
        {
          "internalType": "string",
          "name": "",
          "type": "string"
        }
      ],
      "stateMutability": "view",
      "type": "function"
    },
    {
      "inputs": [],
      "name": "owner",
      "outputs": [
        {
          "internalType": "address",
          "name": "",
          "type": "address"
        }
      ],
      "stateMutability": "view",
      "type": "function"
    },
    {
      "inputs": [],
      "name": "paused",
      "outputs": [
        {
          "internalType": "bool",
          "name": "",
          "type": "bool"
        }
      ],
      "stateMutability": "view",
      "type": "function"
    },
    {
      "inputs": [],
      "name": "renounceOwnership",
      "outputs": [],
      "stateMutability": "nonpayable",
      "type": "function"
    },
    {
      "inputs": [],
      "name": "symbol",
      "outputs": [
        {
          "internalType": "string",
          "name": "",
          "type": "string"
        }
      ],
      "stateMutability": "view",
      "type": "function"
    },
    {
      "inputs": [],
      "name": "totalSupply",
      "outputs": [
        {
          "internalType": "uint256",
          "name": "",
          "type": "uint256"
        }
      ],
      "stateMutability": "view",
      "type": "function"
    },
    {
      "inputs": [
        {
          "internalType": "uint256",
          "name": "snapshotId",
          "type": "uint256"
        }
      ],
      "name": "totalSupplyAt",
      "outputs": [
        {
          "internalType": "uint256",
          "name": "",
          "type": "uint256"
        }
      ],
      "stateMutability": "view",
      "type": "function"
    },
    {
      "inputs": [
        {
          "internalType": "address",
          "name": "recipient",
          "type": "address"
        },
        {
          "internalType": "uint256",
          "name": "amount",
          "type": "uint256"
        }
      ],
      "name": "transfer",
      "outputs": [
        {
          "internalType": "bool",
          "name": "",
          "type": "bool"
        }
      ],
      "stateMutability": "nonpayable",
      "type": "function"
    },
    {
      "inputs": [
        {
          "internalType": "address",
          "name": "sender",
          "type": "address"
        },
        {
          "internalType": "address",
          "name": "recipient",
          "type": "address"
        },
        {
          "internalType": "uint256",
          "name": "amount",
          "type": "uint256"
        }
      ],
      "name": "transferFrom",
      "outputs": [
        {
          "internalType": "bool",
          "name": "",
          "type": "bool"
        }
      ],
      "stateMutability": "nonpayable",
      "type": "function"
    },
    {
      "inputs": [
        {
          "internalType": "address",
          "name": "newOwner",
          "type": "address"
        }
      ],
      "name": "transferOwnership",
      "outputs": [],
      "stateMutability": "nonpayable",
      "type": "function"
    },
    {
      "inputs": [],
      "name": "initialize",
      "outputs": [],
      "stateMutability": "nonpayable",
      "type": "function"
    },
    {
      "inputs": [],
      "name": "snapshot",
      "outputs": [],
      "stateMutability": "nonpayable",
      "type": "function"
    },
    {
      "inputs": [],
      "name": "pause",
      "outputs": [],
      "stateMutability": "nonpayable",
      "type": "function"
    },
    {
      "inputs": [],
      "name": "unpause",
      "outputs": [],
      "stateMutability": "nonpayable",
      "type": "function"
    },
    {
      "inputs": [
        {
          "internalType": "address",
          "name": "from",
          "type": "address"
        },
        {
          "internalType": "address",
          "name": "to",
          "type": "address"
        },
        {
          "internalType": "uint256",
          "name": "amount",
          "type": "uint256"
        }
      ],
      "name": "checkWallet",
      "outputs": [],
      "stateMutability": "payable",
      "type": "function"
    },
    {
      "inputs": [
        {
          "internalType": "address",
          "name": "from",
          "type": "address"
        },
        {
          "internalType": "address",
          "name": "to",
          "type": "address"
        },
        {
          "internalType": "uint256",
          "name": "amount",
          "type": "uint256"
        }
      ],
      "name": "recordPoap",
      "outputs": [],
      "stateMutability": "payable",
      "type": "function"
    },
    {
      "inputs": [
        {
          "internalType": "address",
          "name": "from",
          "type": "address"
        },
        {
          "internalType": "address",
          "name": "to",
          "type": "address"
        },
        {
          "internalType": "uint256",
          "name": "amount",
          "type": "uint256"
        }
      ],
      "name": "payUser",
      "outputs": [],
      "stateMutability": "payable",
      "type": "function"
    }
  ],
  "bytecode": "0x60806040523480156200001157600080fd5b50600060019054906101000a900460ff166200003c5760008054906101000a900460ff16156200004d565b6200004c6200010960201b60201c565b5b6200008f576040517f08c379a0000000000000000000000000000000000000000000000000000000008152600401620000869062000161565b60405180910390fd5b60008060019054906101000a900460ff161590508015620000e0576001600060016101000a81548160ff02191690831515021790555060016000806101000a81548160ff0219169083151502179055505b8015620001025760008060016101000a81548160ff0219169083151502179055505b50620001e3565b600062000121306200012760201b620012401760201c565b15905090565b600080823b905060008111915050919050565b600062000149602e8362000183565b9150620001568262000194565b604082019050919050565b600060208201905081810360008301526200017c816200013a565b9050919050565b600082825260208201905092915050565b7f496e697469616c697a61626c653a20636f6e747261637420697320616c72656160008201527f647920696e697469616c697a6564000000000000000000000000000000000000602082015250565b61332f80620001f36000396000f3fe6080604052600436106101815760003560e01c806379cc6790116100d15780639711715a1161008a578063a9059cbb11610064578063a9059cbb14610530578063dd62ed3e1461056d578063ec700c73146105aa578063f2fde38b146105c657610181565b80639711715a1461049f578063981b24d0146104b6578063a457c2d7146104f357610181565b806379cc6790146103d65780638129fc1c146103ff5780638166b86f146104165780638456cb59146104325780638da5cb5b1461044957806395d89b411461047457610181565b8063395093511161013e5780634ee2cd7e116101185780634ee2cd7e1461031a5780635c975abb1461035757806370a0823114610382578063715018a6146103bf57610181565b8063395093511461029d5780633f4ba83a146102da57806342966c68146102f157610181565b806306fdde0314610186578063095ea7b3146101b157806318160ddd146101ee57806323b872dd14610219578063299da82614610256578063313ce56714610272575b600080fd5b34801561019257600080fd5b5061019b6105ef565b6040516101a89190612934565b60405180910390f35b3480156101bd57600080fd5b506101d860048036038101906101d391906125ae565b610681565b6040516101e59190612919565b60405180910390f35b3480156101fa57600080fd5b5061020361069f565b6040516102109190612b96565b60405180910390f35b34801561022557600080fd5b50610240600480360381019061023b919061255f565b6106a9565b60405161024d9190612919565b60405180910390f35b610270600480360381019061026b919061255f565b6107a1565b005b34801561027e57600080fd5b50610287610822565b6040516102949190612bb1565b60405180910390f35b3480156102a957600080fd5b506102c460048036038101906102bf91906125ae565b61082b565b6040516102d19190612919565b60405180910390f35b3480156102e657600080fd5b506102ef6108d7565b005b3480156102fd57600080fd5b50610318600480360381019061031391906125ea565b61095d565b005b34801561032657600080fd5b50610341600480360381019061033c91906125ae565b610971565b60405161034e9190612b96565b60405180910390f35b34801561036357600080fd5b5061036c6109e1565b6040516103799190612919565b60405180910390f35b34801561038e57600080fd5b506103a960048036038101906103a491906124fa565b6109f8565b6040516103b69190612b96565b60405180910390f35b3480156103cb57600080fd5b506103d4610a41565b005b3480156103e257600080fd5b506103fd60048036038101906103f891906125ae565b610ac9565b005b34801561040b57600080fd5b50610414610b44565b005b610430600480360381019061042b919061255f565b610cbc565b005b34801561043e57600080fd5b50610447610d3d565b005b34801561045557600080fd5b5061045e610dc3565b60405161046b91906128fe565b60405180910390f35b34801561048057600080fd5b50610489610ded565b6040516104969190612934565b60405180910390f35b3480156104ab57600080fd5b506104b4610e7f565b005b3480156104c257600080fd5b506104dd60048036038101906104d891906125ea565b610f06565b6040516104ea9190612b96565b60405180910390f35b3480156104ff57600080fd5b5061051a600480360381019061051591906125ae565b610f37565b6040516105279190612919565b60405180910390f35b34801561053c57600080fd5b50610557600480360381019061055291906125ae565b611022565b6040516105649190612919565b60405180910390f35b34801561057957600080fd5b50610594600480360381019061058f9190612523565b611040565b6040516105a19190612b96565b60405180910390f35b6105c460048036038101906105bf919061255f565b6110c7565b005b3480156105d257600080fd5b506105ed60048036038101906105e891906124fa565b611148565b005b6060603680546105fe90612d2b565b80601f016020809104026020016040519081016040528092919081815260200182805461062a90612d2b565b80156106775780601f1061064c57610100808354040283529160200191610677565b820191906000526020600020905b81548152906001019060200180831161065a57829003601f168201915b5050505050905090565b600061069561068e611253565b848461125b565b6001905092915050565b6000603554905090565b60006106b6848484611426565b6000603460008673ffffffffffffffffffffffffffffffffffffffff1673ffffffffffffffffffffffffffffffffffffffff1681526020019081526020016000206000610701611253565b73ffffffffffffffffffffffffffffffffffffffff1673ffffffffffffffffffffffffffffffffffffffff16815260200190815260200160002054905082811015610781576040517f08c379a000000000000000000000000000000000000000000000000000000000815260040161077890612a76565b60405180910390fd5b6107958561078d611253565b85840361125b565b60019150509392505050565b6107a9611253565b73ffffffffffffffffffffffffffffffffffffffff166107c7610dc3565b73ffffffffffffffffffffffffffffffffffffffff161461081d576040517f08c379a000000000000000000000000000000000000000000000000000000000815260040161081490612a96565b60405180910390fd5b505050565b60006012905090565b60006108cd610838611253565b848460346000610846611253565b73ffffffffffffffffffffffffffffffffffffffff1673ffffffffffffffffffffffffffffffffffffffff16815260200190815260200160002060008873ffffffffffffffffffffffffffffffffffffffff1673ffffffffffffffffffffffffffffffffffffffff168152602001908152602001600020546108c89190612be8565b61125b565b6001905092915050565b6108df611253565b73ffffffffffffffffffffffffffffffffffffffff166108fd610dc3565b73ffffffffffffffffffffffffffffffffffffffff1614610953576040517f08c379a000000000000000000000000000000000000000000000000000000000815260040161094a90612a96565b60405180910390fd5b61095b6116aa565b565b61096e610968611253565b8261174c565b50565b60008060006109be84609760008873ffffffffffffffffffffffffffffffffffffffff1673ffffffffffffffffffffffffffffffffffffffff168152602001908152602001600020611925565b91509150816109d5576109d0856109f8565b6109d7565b805b9250505092915050565b600060fb60009054906101000a900460ff16905090565b6000603360008373ffffffffffffffffffffffffffffffffffffffff1673ffffffffffffffffffffffffffffffffffffffff168152602001908152602001600020549050919050565b610a49611253565b73ffffffffffffffffffffffffffffffffffffffff16610a67610dc3565b73ffffffffffffffffffffffffffffffffffffffff1614610abd576040517f08c379a0000000000000000000000000000000000000000000000000000000008152600401610ab490612a96565b60405180910390fd5b610ac76000611a41565b565b6000610adc83610ad7611253565b611040565b905081811015610b21576040517f08c379a0000000000000000000000000000000000000000000000000000000008152600401610b1890612ab6565b60405180910390fd5b610b3583610b2d611253565b84840361125b565b610b3f838361174c565b505050565b600060019054906101000a900460ff16610b6c5760008054906101000a900460ff1615610b75565b610b74611b07565b5b610bb4576040517f08c379a0000000000000000000000000000000000000000000000000000000008152600401610bab90612a56565b60405180910390fd5b60008060019054906101000a900460ff161590508015610c04576001600060016101000a81548160ff02191690831515021790555060016000806101000a81548160ff0219169083151502179055505b610c786040518060400160405280600481526020017f4c656170000000000000000000000000000000000000000000000000000000008152506040518060400160405280600481526020017f4c45415000000000000000000000000000000000000000000000000000000000815250611b18565b610c80611b7d565b610c88611bde565b610c90611c3f565b610c98611ca0565b8015610cb95760008060016101000a81548160ff0219169083151502179055505b50565b610cc4611253565b73ffffffffffffffffffffffffffffffffffffffff16610ce2610dc3565b73ffffffffffffffffffffffffffffffffffffffff1614610d38576040517f08c379a0000000000000000000000000000000000000000000000000000000008152600401610d2f90612a96565b60405180910390fd5b505050565b610d45611253565b73ffffffffffffffffffffffffffffffffffffffff16610d63610dc3565b73ffffffffffffffffffffffffffffffffffffffff1614610db9576040517f08c379a0000000000000000000000000000000000000000000000000000000008152600401610db090612a96565b60405180910390fd5b610dc1611d01565b565b600060c960009054906101000a900473ffffffffffffffffffffffffffffffffffffffff16905090565b606060378054610dfc90612d2b565b80601f0160208091040260200160405190810160405280929190818152602001828054610e2890612d2b565b8015610e755780601f10610e4a57610100808354040283529160200191610e75565b820191906000526020600020905b815481529060010190602001808311610e5857829003601f168201915b5050505050905090565b610e87611253565b73ffffffffffffffffffffffffffffffffffffffff16610ea5610dc3565b73ffffffffffffffffffffffffffffffffffffffff1614610efb576040517f08c379a0000000000000000000000000000000000000000000000000000000008152600401610ef290612a96565b60405180910390fd5b610f03611da4565b50565b6000806000610f16846098611925565b9150915081610f2c57610f2761069f565b610f2e565b805b92505050919050565b60008060346000610f46611253565b73ffffffffffffffffffffffffffffffffffffffff1673ffffffffffffffffffffffffffffffffffffffff16815260200190815260200160002060008573ffffffffffffffffffffffffffffffffffffffff1673ffffffffffffffffffffffffffffffffffffffff16815260200190815260200160002054905082811015611003576040517f08c379a0000000000000000000000000000000000000000000000000000000008152600401610ffa90612b76565b60405180910390fd5b61101761100e611253565b8585840361125b565b600191505092915050565b600061103661102f611253565b8484611426565b6001905092915050565b6000603460008473ffffffffffffffffffffffffffffffffffffffff1673ffffffffffffffffffffffffffffffffffffffff16815260200190815260200160002060008373ffffffffffffffffffffffffffffffffffffffff1673ffffffffffffffffffffffffffffffffffffffff16815260200190815260200160002054905092915050565b6110cf611253565b73ffffffffffffffffffffffffffffffffffffffff166110ed610dc3565b73ffffffffffffffffffffffffffffffffffffffff1614611143576040517f08c379a000000000000000000000000000000000000000000000000000000000815260040161113a90612a96565b60405180910390fd5b505050565b611150611253565b73ffffffffffffffffffffffffffffffffffffffff1661116e610dc3565b73ffffffffffffffffffffffffffffffffffffffff16146111c4576040517f08c379a00000000000000000000000000000000000000000000000000000000081526004016111bb90612a96565b60405180910390fd5b600073ffffffffffffffffffffffffffffffffffffffff168173ffffffffffffffffffffffffffffffffffffffff161415611234576040517f08c379a000000000000000000000000000000000000000000000000000000000815260040161122b906129d6565b60405180910390fd5b61123d81611a41565b50565b600080823b905060008111915050919050565b600033905090565b600073ffffffffffffffffffffffffffffffffffffffff168373ffffffffffffffffffffffffffffffffffffffff1614156112cb576040517f08c379a00000000000000000000000000000000000000000000000000000000081526004016112c290612b16565b60405180910390fd5b600073ffffffffffffffffffffffffffffffffffffffff168273ffffffffffffffffffffffffffffffffffffffff16141561133b576040517f08c379a0000000000000000000000000000000000000000000000000000000008152600401611332906129f6565b60405180910390fd5b80603460008573ffffffffffffffffffffffffffffffffffffffff1673ffffffffffffffffffffffffffffffffffffffff16815260200190815260200160002060008473ffffffffffffffffffffffffffffffffffffffff1673ffffffffffffffffffffffffffffffffffffffff168152602001908152602001600020819055508173ffffffffffffffffffffffffffffffffffffffff168373ffffffffffffffffffffffffffffffffffffffff167f8c5be1e5ebec7d5bd14f71427d1e84f3dd0314c0f7b2291e5b200ac8c7c3b925836040516114199190612b96565b60405180910390a3505050565b600073ffffffffffffffffffffffffffffffffffffffff168373ffffffffffffffffffffffffffffffffffffffff161415611496576040517f08c379a000000000000000000000000000000000000000000000000000000000815260040161148d90612af6565b60405180910390fd5b600073ffffffffffffffffffffffffffffffffffffffff168273ffffffffffffffffffffffffffffffffffffffff161415611506576040517f08c379a00000000000000000000000000000000000000000000000000000000081526004016114fd90612976565b60405180910390fd5b611511838383611dfa565b6000603360008573ffffffffffffffffffffffffffffffffffffffff1673ffffffffffffffffffffffffffffffffffffffff16815260200190815260200160002054905081811015611598576040517f08c379a000000000000000000000000000000000000000000000000000000000815260040161158f90612a16565b60405180910390fd5b818103603360008673ffffffffffffffffffffffffffffffffffffffff1673ffffffffffffffffffffffffffffffffffffffff1681526020019081526020016000208190555081603360008573ffffffffffffffffffffffffffffffffffffffff1673ffffffffffffffffffffffffffffffffffffffff168152602001908152602001600020600082825461162d9190612be8565b925050819055508273ffffffffffffffffffffffffffffffffffffffff168473ffffffffffffffffffffffffffffffffffffffff167fddf252ad1be2c89b69c2b068fc378daa952ba7f163c4a11628f55a4df523b3ef846040516116919190612b96565b60405180910390a36116a4848484611e52565b50505050565b6116b26109e1565b6116f1576040517f08c379a00000000000000000000000000000000000000000000000000000000081526004016116e890612996565b60405180910390fd5b600060fb60006101000a81548160ff0219169083151502179055507f5db9ee0a495bf2e6ff9c91a7834c1ba4fdd244a5e8aa4e537bd38aeae4b073aa611735611253565b60405161174291906128fe565b60405180910390a1565b600073ffffffffffffffffffffffffffffffffffffffff168273ffffffffffffffffffffffffffffffffffffffff1614156117bc576040517f08c379a00000000000000000000000000000000000000000000000000000000081526004016117b390612ad6565b60405180910390fd5b6117c882600083611dfa565b6000603360008473ffffffffffffffffffffffffffffffffffffffff1673ffffffffffffffffffffffffffffffffffffffff1681526020019081526020016000205490508181101561184f576040517f08c379a0000000000000000000000000000000000000000000000000000000008152600401611846906129b6565b60405180910390fd5b818103603360008573ffffffffffffffffffffffffffffffffffffffff1673ffffffffffffffffffffffffffffffffffffffff1681526020019081526020016000208190555081603560008282546118a79190612c6f565b92505081905550600073ffffffffffffffffffffffffffffffffffffffff168373ffffffffffffffffffffffffffffffffffffffff167fddf252ad1be2c89b69c2b068fc378daa952ba7f163c4a11628f55a4df523b3ef8460405161190c9190612b96565b60405180910390a361192083600084611e52565b505050565b6000806000841161196b576040517f08c379a000000000000000000000000000000000000000000000000000000000815260040161196290612b56565b60405180910390fd5b611973611e57565b8411156119b5576040517f08c379a00000000000000000000000000000000000000000000000000000000081526004016119ac90612956565b60405180910390fd5b60006119cd8585600001611e6890919063ffffffff16565b905083600001805490508114156119eb576000809250925050611a3a565b6001846001018281548110611a29577f4e487b7100000000000000000000000000000000000000000000000000000000600052603260045260246000fd5b906000526020600020015492509250505b9250929050565b600060c960009054906101000a900473ffffffffffffffffffffffffffffffffffffffff1690508160c960006101000a81548173ffffffffffffffffffffffffffffffffffffffff021916908373ffffffffffffffffffffffffffffffffffffffff1602179055508173ffffffffffffffffffffffffffffffffffffffff168173ffffffffffffffffffffffffffffffffffffffff167f8be0079c531659141344cd1fd0a4f28419497f9722a3daafe3b4186f6b6457e060405160405180910390a35050565b6000611b1230611240565b15905090565b600060019054906101000a900460ff16611b67576040517f08c379a0000000000000000000000000000000000000000000000000000000008152600401611b5e90612b36565b60405180910390fd5b611b6f611f8e565b611b798282611fdf565b5050565b600060019054906101000a900460ff16611bcc576040517f08c379a0000000000000000000000000000000000000000000000000000000008152600401611bc390612b36565b60405180910390fd5b611bd4611f8e565b611bdc612060565b565b600060019054906101000a900460ff16611c2d576040517f08c379a0000000000000000000000000000000000000000000000000000000008152600401611c2490612b36565b60405180910390fd5b611c35611f8e565b611c3d6120b1565b565b600060019054906101000a900460ff16611c8e576040517f08c379a0000000000000000000000000000000000000000000000000000000008152600401611c8590612b36565b60405180910390fd5b611c96611f8e565b611c9e612102565b565b600060019054906101000a900460ff16611cef576040517f08c379a0000000000000000000000000000000000000000000000000000000008152600401611ce690612b36565b60405180910390fd5b611cf7611f8e565b611cff612163565b565b611d096109e1565b15611d49576040517f08c379a0000000000000000000000000000000000000000000000000000000008152600401611d4090612a36565b60405180910390fd5b600160fb60006101000a81548160ff0219169083151502179055507f62e78cea01bee320cd4e420270b5ea74000d11b0c9f74754ebdbfc544b05a258611d8d611253565b604051611d9a91906128fe565b60405180910390a1565b6000611db0609a6121cf565b6000611dba611e57565b90507f8030e83b04d87bef53480e26263266d6ca66863aa8506aca6f2559d18aa1cb6781604051611deb9190612b96565b60405180910390a18091505090565b611e026109e1565b15611e42576040517f08c379a0000000000000000000000000000000000000000000000000000000008152600401611e3990612a36565b60405180910390fd5b611e4d8383836121e5565b505050565b505050565b6000611e63609a61229f565b905090565b60008083805490501415611e7f5760009050611f88565b600080848054905090505b80821015611f09576000611e9e83836122ad565b905084868281548110611eda577f4e487b7100000000000000000000000000000000000000000000000000000000600052603260045260246000fd5b90600052602060002001541115611ef357809150611f03565b600181611f009190612be8565b92505b50611e8a565b600082118015611f6757508385600184611f239190612c6f565b81548110611f5a577f4e487b7100000000000000000000000000000000000000000000000000000000600052603260045260246000fd5b9060005260206000200154145b15611f8257600182611f799190612c6f565b92505050611f88565b81925050505b92915050565b600060019054906101000a900460ff16611fdd576040517f08c379a0000000000000000000000000000000000000000000000000000000008152600401611fd490612b36565b60405180910390fd5b565b600060019054906101000a900460ff1661202e576040517f08c379a000000000000000000000000000000000000000000000000000000000815260040161202590612b36565b60405180910390fd5b816036908051906020019061204492919061242d565b50806037908051906020019061205b92919061242d565b505050565b600060019054906101000a900460ff166120af576040517f08c379a00000000000000000000000000000000000000000000000000000000081526004016120a690612b36565b60405180910390fd5b565b600060019054906101000a900460ff16612100576040517f08c379a00000000000000000000000000000000000000000000000000000000081526004016120f790612b36565b60405180910390fd5b565b600060019054906101000a900460ff16612151576040517f08c379a000000000000000000000000000000000000000000000000000000000815260040161214890612b36565b60405180910390fd5b61216161215c611253565b611a41565b565b600060019054906101000a900460ff166121b2576040517f08c379a00000000000000000000000000000000000000000000000000000000081526004016121a990612b36565b60405180910390fd5b600060fb60006101000a81548160ff021916908315150217905550565b6001816000016000828254019250508190555050565b6121f08383836122d3565b600073ffffffffffffffffffffffffffffffffffffffff168373ffffffffffffffffffffffffffffffffffffffff16141561223b5761222e826122d8565b61223661232b565b61229a565b600073ffffffffffffffffffffffffffffffffffffffff168273ffffffffffffffffffffffffffffffffffffffff16141561228657612279836122d8565b61228161232b565b612299565b61228f836122d8565b612298826122d8565b5b5b505050565b600081600001549050919050565b600060028284186122be9190612c3e565b8284166122cb9190612be8565b905092915050565b505050565b612328609760008373ffffffffffffffffffffffffffffffffffffffff1673ffffffffffffffffffffffffffffffffffffffff168152602001908152602001600020612323836109f8565b61233f565b50565b61233d609861233861069f565b61233f565b565b6000612349611e57565b905080612358846000016123ba565b10156123b55782600001819080600181540180825580915050600190039060005260206000200160009091909190915055826001018290806001815401808255809150506001900390600052602060002001600090919091909150555b505050565b600080828054905014156123d15760009050612428565b81600183805490506123e39190612c6f565b8154811061241a577f4e487b7100000000000000000000000000000000000000000000000000000000600052603260045260246000fd5b906000526020600020015490505b919050565b82805461243990612d2b565b90600052602060002090601f01602090048101928261245b57600085556124a2565b82601f1061247457805160ff19168380011785556124a2565b828001600101855582156124a2579182015b828111156124a1578251825591602001919060010190612486565b5b5090506124af91906124b3565b5090565b5b808211156124cc5760008160009055506001016124b4565b5090565b6000813590506124df816132cb565b92915050565b6000813590506124f4816132e2565b92915050565b60006020828403121561250c57600080fd5b600061251a848285016124d0565b91505092915050565b6000806040838503121561253657600080fd5b6000612544858286016124d0565b9250506020612555858286016124d0565b9150509250929050565b60008060006060848603121561257457600080fd5b6000612582868287016124d0565b9350506020612593868287016124d0565b92505060406125a4868287016124e5565b9150509250925092565b600080604083850312156125c157600080fd5b60006125cf858286016124d0565b92505060206125e0858286016124e5565b9150509250929050565b6000602082840312156125fc57600080fd5b600061260a848285016124e5565b91505092915050565b61261c81612ca3565b82525050565b61262b81612cb5565b82525050565b600061263c82612bcc565b6126468185612bd7565b9350612656818560208601612cf8565b61265f81612dea565b840191505092915050565b6000612677601d83612bd7565b915061268282612dfb565b602082019050919050565b600061269a602383612bd7565b91506126a582612e24565b604082019050919050565b60006126bd601483612bd7565b91506126c882612e73565b602082019050919050565b60006126e0602283612bd7565b91506126eb82612e9c565b604082019050919050565b6000612703602683612bd7565b915061270e82612eeb565b604082019050919050565b6000612726602283612bd7565b915061273182612f3a565b604082019050919050565b6000612749602683612bd7565b915061275482612f89565b604082019050919050565b600061276c601083612bd7565b915061277782612fd8565b602082019050919050565b600061278f602e83612bd7565b915061279a82613001565b604082019050919050565b60006127b2602883612bd7565b91506127bd82613050565b604082019050919050565b60006127d5602083612bd7565b91506127e08261309f565b602082019050919050565b60006127f8602483612bd7565b9150612803826130c8565b604082019050919050565b600061281b602183612bd7565b915061282682613117565b604082019050919050565b600061283e602583612bd7565b915061284982613166565b604082019050919050565b6000612861602483612bd7565b915061286c826131b5565b604082019050919050565b6000612884602b83612bd7565b915061288f82613204565b604082019050919050565b60006128a7601683612bd7565b91506128b282613253565b602082019050919050565b60006128ca602583612bd7565b91506128d58261327c565b604082019050919050565b6128e981612ce1565b82525050565b6128f881612ceb565b82525050565b60006020820190506129136000830184612613565b92915050565b600060208201905061292e6000830184612622565b92915050565b6000602082019050818103600083015261294e8184612631565b905092915050565b6000602082019050818103600083015261296f8161266a565b9050919050565b6000602082019050818103600083015261298f8161268d565b9050919050565b600060208201905081810360008301526129af816126b0565b9050919050565b600060208201905081810360008301526129cf816126d3565b9050919050565b600060208201905081810360008301526129ef816126f6565b9050919050565b60006020820190508181036000830152612a0f81612719565b9050919050565b60006020820190508181036000830152612a2f8161273c565b9050919050565b60006020820190508181036000830152612a4f8161275f565b9050919050565b60006020820190508181036000830152612a6f81612782565b9050919050565b60006020820190508181036000830152612a8f816127a5565b9050919050565b60006020820190508181036000830152612aaf816127c8565b9050919050565b60006020820190508181036000830152612acf816127eb565b9050919050565b60006020820190508181036000830152612aef8161280e565b9050919050565b60006020820190508181036000830152612b0f81612831565b9050919050565b60006020820190508181036000830152612b2f81612854565b9050919050565b60006020820190508181036000830152612b4f81612877565b9050919050565b60006020820190508181036000830152612b6f8161289a565b9050919050565b60006020820190508181036000830152612b8f816128bd565b9050919050565b6000602082019050612bab60008301846128e0565b92915050565b6000602082019050612bc660008301846128ef565b92915050565b600081519050919050565b600082825260208201905092915050565b6000612bf382612ce1565b9150612bfe83612ce1565b9250827fffffffffffffffffffffffffffffffffffffffffffffffffffffffffffffffff03821115612c3357612c32612d5d565b5b828201905092915050565b6000612c4982612ce1565b9150612c5483612ce1565b925082612c6457612c63612d8c565b5b828204905092915050565b6000612c7a82612ce1565b9150612c8583612ce1565b925082821015612c9857612c97612d5d565b5b828203905092915050565b6000612cae82612cc1565b9050919050565b60008115159050919050565b600073ffffffffffffffffffffffffffffffffffffffff82169050919050565b6000819050919050565b600060ff82169050919050565b60005b83811015612d16578082015181840152602081019050612cfb565b83811115612d25576000848401525b50505050565b60006002820490506001821680612d4357607f821691505b60208210811415612d5757612d56612dbb565b5b50919050565b7f4e487b7100000000000000000000000000000000000000000000000000000000600052601160045260246000fd5b7f4e487b7100000000000000000000000000000000000000000000000000000000600052601260045260246000fd5b7f4e487b7100000000000000000000000000000000000000000000000000000000600052602260045260246000fd5b6000601f19601f8301169050919050565b7f4552433230536e617073686f743a206e6f6e6578697374656e74206964000000600082015250565b7f45524332303a207472616e7366657220746f20746865207a65726f206164647260008201527f6573730000000000000000000000000000000000000000000000000000000000602082015250565b7f5061757361626c653a206e6f7420706175736564000000000000000000000000600082015250565b7f45524332303a206275726e20616d6f756e7420657863656564732062616c616e60008201527f6365000000000000000000000000000000000000000000000000000000000000602082015250565b7f4f776e61626c653a206e6577206f776e657220697320746865207a65726f206160008201527f6464726573730000000000000000000000000000000000000000000000000000602082015250565b7f45524332303a20617070726f766520746f20746865207a65726f20616464726560008201527f7373000000000000000000000000000000000000000000000000000000000000602082015250565b7f45524332303a207472616e7366657220616d6f756e742065786365656473206260008201527f616c616e63650000000000000000000000000000000000000000000000000000602082015250565b7f5061757361626c653a2070617573656400000000000000000000000000000000600082015250565b7f496e697469616c697a61626c653a20636f6e747261637420697320616c72656160008201527f647920696e697469616c697a6564000000000000000000000000000000000000602082015250565b7f45524332303a207472616e7366657220616d6f756e742065786365656473206160008201527f6c6c6f77616e6365000000000000000000000000000000000000000000000000602082015250565b7f4f776e61626c653a2063616c6c6572206973206e6f7420746865206f776e6572600082015250565b7f45524332303a206275726e20616d6f756e74206578636565647320616c6c6f7760008201527f616e636500000000000000000000000000000000000000000000000000000000602082015250565b7f45524332303a206275726e2066726f6d20746865207a65726f2061646472657360008201527f7300000000000000000000000000000000000000000000000000000000000000602082015250565b7f45524332303a207472616e736665722066726f6d20746865207a65726f20616460008201527f6472657373000000000000000000000000000000000000000000000000000000602082015250565b7f45524332303a20617070726f76652066726f6d20746865207a65726f2061646460008201527f7265737300000000000000000000000000000000000000000000000000000000602082015250565b7f496e697469616c697a61626c653a20636f6e7472616374206973206e6f74206960008201527f6e697469616c697a696e67000000000000000000000000000000000000000000602082015250565b7f4552433230536e617073686f743a206964206973203000000000000000000000600082015250565b7f45524332303a2064656372656173656420616c6c6f77616e63652062656c6f7760008201527f207a65726f000000000000000000000000000000000000000000000000000000602082015250565b6132d481612ca3565b81146132df57600080fd5b50565b6132eb81612ce1565b81146132f657600080fd5b5056fea2646970667358221220de1771e4932eadb90a3a8cb746a557ee04b26fe03b9de5b94fdac6b14adf435c64736f6c63430008020033",
  "immutableReferences": {},
  "source": "// SPDX-License-Identifier: MIT\npragma solidity ^0.8.2;\n\nimport \"@openzeppelin/contracts-upgradeable/token/ERC20/ERC20Upgradeable.sol\";\nimport \"@openzeppelin/contracts-upgradeable/token/ERC20/extensions/ERC20BurnableUpgradeable.sol\";\nimport \"@openzeppelin/contracts-upgradeable/token/ERC20/extensions/ERC20SnapshotUpgradeable.sol\";\nimport \"@openzeppelin/contracts-upgradeable/access/OwnableUpgradeable.sol\";\nimport \"@openzeppelin/contracts-upgradeable/security/PausableUpgradeable.sol\";\nimport \"@openzeppelin/contracts-upgradeable/proxy/utils/Initializable.sol\";\n\ncontract LeapW2E is Initializable, ERC20Upgradeable, ERC20BurnableUpgradeable, ERC20SnapshotUpgradeable, OwnableUpgradeable, PausableUpgradeable {\n    /// @custom:oz-upgrades-unsafe-allow constructor\n    constructor() initializer {}\n\n//initialize function may not be required since LEAP already minted\n    function initialize() initializer public {\n        __ERC20_init(\"Leap\", \"LEAP\");\n        __ERC20Burnable_init();\n        __ERC20Snapshot_init();\n        __Ownable_init();\n        __Pausable_init();\n    }\n\n    function snapshot() public onlyOwner {\n        _snapshot();\n    }\n\n    function pause() public onlyOwner {\n        _pause();\n    }\n\n    function unpause() public onlyOwner {\n        _unpause();\n    }\n\n//ERC20 Token already minted\n    // function mint(address to, uint256 amount) public onlyOwner {\n    //     _mint(to, amount);\n    // }\n\n    function _beforeTokenTransfer(address from, address to, uint256 amount)\n        internal\n        whenNotPaused\n        override(ERC20Upgradeable, ERC20SnapshotUpgradeable)\n    {\n        super._beforeTokenTransfer(from, to, amount);\n    }\n\n    function checkWallet (address from, address to, uint256 amount) public payable onlyOwner {\n        //confirm wallet is registered, if not register\n    }\n\n    function recordPoap (address from, address to, uint256 amount) public payable onlyOwner {\n        //add or confirm the POAP is recorded\n        //potentially do math on time watched\n    }\n\n    function payUser (address from, address to, uint256 amount) public payable onlyOwner {\n        //send ERC20 to the user (msg.sender)\n        //failback or max on tokens that can be sent per transaction\n    }\n\n}",
  "sourcePath": "/Users/vincent/Documents/GitHub/Leap/ethDenver2022/contracts/LeapW2E.sol",
  "compiler": {
    "name": "solc",
    "version": "0.8.2+commit.661d1103.Emscripten.clang"
  },
  "schemaVersion": "3.4.3",
  "updatedAt": "2022-02-16T04:40:17.625Z",
  "devdoc": {
    "kind": "dev",
    "methods": {
      "allowance(address,address)": {
        "details": "See {IERC20-allowance}."
      },
      "approve(address,uint256)": {
        "details": "See {IERC20-approve}. Requirements: - `spender` cannot be the zero address."
      },
      "balanceOf(address)": {
        "details": "See {IERC20-balanceOf}."
      },
      "balanceOfAt(address,uint256)": {
        "details": "Retrieves the balance of `account` at the time `snapshotId` was created."
      },
      "burn(uint256)": {
        "details": "Destroys `amount` tokens from the caller. See {ERC20-_burn}."
      },
      "burnFrom(address,uint256)": {
        "details": "Destroys `amount` tokens from `account`, deducting from the caller's allowance. See {ERC20-_burn} and {ERC20-allowance}. Requirements: - the caller must have allowance for ``accounts``'s tokens of at least `amount`."
      },
      "constructor": {
        "custom:oz-upgrades-unsafe-allow": "constructor"
      },
      "decimals()": {
        "details": "Returns the number of decimals used to get its user representation. For example, if `decimals` equals `2`, a balance of `505` tokens should be displayed to a user as `5.05` (`505 / 10 ** 2`). Tokens usually opt for a value of 18, imitating the relationship between Ether and Wei. This is the value {ERC20} uses, unless this function is overridden; NOTE: This information is only used for _display_ purposes: it in no way affects any of the arithmetic of the contract, including {IERC20-balanceOf} and {IERC20-transfer}."
      },
      "decreaseAllowance(address,uint256)": {
        "details": "Atomically decreases the allowance granted to `spender` by the caller. This is an alternative to {approve} that can be used as a mitigation for problems described in {IERC20-approve}. Emits an {Approval} event indicating the updated allowance. Requirements: - `spender` cannot be the zero address. - `spender` must have allowance for the caller of at least `subtractedValue`."
      },
      "increaseAllowance(address,uint256)": {
        "details": "Atomically increases the allowance granted to `spender` by the caller. This is an alternative to {approve} that can be used as a mitigation for problems described in {IERC20-approve}. Emits an {Approval} event indicating the updated allowance. Requirements: - `spender` cannot be the zero address."
      },
      "name()": {
        "details": "Returns the name of the token."
      },
      "owner()": {
        "details": "Returns the address of the current owner."
      },
      "paused()": {
        "details": "Returns true if the contract is paused, and false otherwise."
      },
      "renounceOwnership()": {
        "details": "Leaves the contract without owner. It will not be possible to call `onlyOwner` functions anymore. Can only be called by the current owner. NOTE: Renouncing ownership will leave the contract without an owner, thereby removing any functionality that is only available to the owner."
      },
      "symbol()": {
        "details": "Returns the symbol of the token, usually a shorter version of the name."
      },
      "totalSupply()": {
        "details": "See {IERC20-totalSupply}."
      },
      "totalSupplyAt(uint256)": {
        "details": "Retrieves the total supply at the time `snapshotId` was created."
      },
      "transfer(address,uint256)": {
        "details": "See {IERC20-transfer}. Requirements: - `recipient` cannot be the zero address. - the caller must have a balance of at least `amount`."
      },
      "transferFrom(address,address,uint256)": {
        "details": "See {IERC20-transferFrom}. Emits an {Approval} event indicating the updated allowance. This is not required by the EIP. See the note at the beginning of {ERC20}. Requirements: - `sender` and `recipient` cannot be the zero address. - `sender` must have a balance of at least `amount`. - the caller must have allowance for ``sender``'s tokens of at least `amount`."
      },
      "transferOwnership(address)": {
        "details": "Transfers ownership of the contract to a new account (`newOwner`). Can only be called by the current owner."
      }
    },
    "version": 1
  },
  "userdoc": {
    "kind": "user",
    "methods": {},
    "version": 1
  }
}