{
  "contractName": "LeapW2E",
  "abi": [
    {
      "inputs": [],
      "stateMutability": "nonpayable",
      "type": "constructor"
    },
    {
      "anonymous": false,
      "inputs": [
        {
          "indexed": true,
          "internalType": "address",
          "name": "owner",
          "type": "address"
        },
        {
          "indexed": true,
          "internalType": "address",
          "name": "spender",
          "type": "address"
        },
        {
          "indexed": false,
          "internalType": "uint256",
          "name": "value",
          "type": "uint256"
        }
      ],
      "name": "Approval",
      "type": "event"
    },
    {
      "anonymous": false,
      "inputs": [
        {
          "indexed": true,
          "internalType": "address",
          "name": "previousOwner",
          "type": "address"
        },
        {
          "indexed": true,
          "internalType": "address",
          "name": "newOwner",
          "type": "address"
        }
      ],
      "name": "OwnershipTransferred",
      "type": "event"
    },
    {
      "anonymous": false,
      "inputs": [
        {
          "indexed": false,
          "internalType": "address",
          "name": "account",
          "type": "address"
        }
      ],
      "name": "Paused",
      "type": "event"
    },
    {
      "anonymous": false,
      "inputs": [
        {
          "indexed": false,
          "internalType": "uint256",
          "name": "id",
          "type": "uint256"
        }
      ],
      "name": "Snapshot",
      "type": "event"
    },
    {
      "anonymous": false,
      "inputs": [
        {
          "indexed": true,
          "internalType": "address",
          "name": "from",
          "type": "address"
        },
        {
          "indexed": true,
          "internalType": "address",
          "name": "to",
          "type": "address"
        },
        {
          "indexed": false,
          "internalType": "uint256",
          "name": "value",
          "type": "uint256"
        }
      ],
      "name": "Transfer",
      "type": "event"
    },
    {
      "anonymous": false,
      "inputs": [
        {
          "indexed": false,
          "internalType": "address",
          "name": "account",
          "type": "address"
        }
      ],
      "name": "Unpaused",
      "type": "event"
    },
    {
      "inputs": [
        {
          "internalType": "address",
          "name": "owner",
          "type": "address"
        },
        {
          "internalType": "address",
          "name": "spender",
          "type": "address"
        }
      ],
      "name": "allowance",
      "outputs": [
        {
          "internalType": "uint256",
          "name": "",
          "type": "uint256"
        }
      ],
      "stateMutability": "view",
      "type": "function"
    },
    {
      "inputs": [
        {
          "internalType": "address",
          "name": "spender",
          "type": "address"
        },
        {
          "internalType": "uint256",
          "name": "amount",
          "type": "uint256"
        }
      ],
      "name": "approve",
      "outputs": [
        {
          "internalType": "bool",
          "name": "",
          "type": "bool"
        }
      ],
      "stateMutability": "nonpayable",
      "type": "function"
    },
    {
      "inputs": [
        {
          "internalType": "address",
          "name": "account",
          "type": "address"
        }
      ],
      "name": "balanceOf",
      "outputs": [
        {
          "internalType": "uint256",
          "name": "",
          "type": "uint256"
        }
      ],
      "stateMutability": "view",
      "type": "function"
    },
    {
      "inputs": [
        {
          "internalType": "address",
          "name": "account",
          "type": "address"
        },
        {
          "internalType": "uint256",
          "name": "snapshotId",
          "type": "uint256"
        }
      ],
      "name": "balanceOfAt",
      "outputs": [
        {
          "internalType": "uint256",
          "name": "",
          "type": "uint256"
        }
      ],
      "stateMutability": "view",
      "type": "function"
    },
    {
      "inputs": [
        {
          "internalType": "uint256",
          "name": "amount",
          "type": "uint256"
        }
      ],
      "name": "burn",
      "outputs": [],
      "stateMutability": "nonpayable",
      "type": "function"
    },
    {
      "inputs": [
        {
          "internalType": "address",
          "name": "account",
          "type": "address"
        },
        {
          "internalType": "uint256",
          "name": "amount",
          "type": "uint256"
        }
      ],
      "name": "burnFrom",
      "outputs": [],
      "stateMutability": "nonpayable",
      "type": "function"
    },
    {
      "inputs": [],
      "name": "decimals",
      "outputs": [
        {
          "internalType": "uint8",
          "name": "",
          "type": "uint8"
        }
      ],
      "stateMutability": "view",
      "type": "function"
    },
    {
      "inputs": [
        {
          "internalType": "address",
          "name": "spender",
          "type": "address"
        },
        {
          "internalType": "uint256",
          "name": "subtractedValue",
          "type": "uint256"
        }
      ],
      "name": "decreaseAllowance",
      "outputs": [
        {
          "internalType": "bool",
          "name": "",
          "type": "bool"
        }
      ],
      "stateMutability": "nonpayable",
      "type": "function"
    },
    {
      "inputs": [
        {
          "internalType": "address",
          "name": "spender",
          "type": "address"
        },
        {
          "internalType": "uint256",
          "name": "addedValue",
          "type": "uint256"
        }
      ],
      "name": "increaseAllowance",
      "outputs": [
        {
          "internalType": "bool",
          "name": "",
          "type": "bool"
        }
      ],
      "stateMutability": "nonpayable",
      "type": "function"
    },
    {
      "inputs": [],
      "name": "name",
      "outputs": [
        {
          "internalType": "string",
          "name": "",
          "type": "string"
        }
      ],
      "stateMutability": "view",
      "type": "function"
    },
    {
      "inputs": [],
      "name": "owner",
      "outputs": [
        {
          "internalType": "address",
          "name": "",
          "type": "address"
        }
      ],
      "stateMutability": "view",
      "type": "function"
    },
    {
      "inputs": [],
      "name": "paused",
      "outputs": [
        {
          "internalType": "bool",
          "name": "",
          "type": "bool"
        }
      ],
      "stateMutability": "view",
      "type": "function"
    },
    {
      "inputs": [],
      "name": "renounceOwnership",
      "outputs": [],
      "stateMutability": "nonpayable",
      "type": "function"
    },
    {
      "inputs": [],
      "name": "symbol",
      "outputs": [
        {
          "internalType": "string",
          "name": "",
          "type": "string"
        }
      ],
      "stateMutability": "view",
      "type": "function"
    },
    {
      "inputs": [],
      "name": "totalSupply",
      "outputs": [
        {
          "internalType": "uint256",
          "name": "",
          "type": "uint256"
        }
      ],
      "stateMutability": "view",
      "type": "function"
    },
    {
      "inputs": [
        {
          "internalType": "uint256",
          "name": "snapshotId",
          "type": "uint256"
        }
      ],
      "name": "totalSupplyAt",
      "outputs": [
        {
          "internalType": "uint256",
          "name": "",
          "type": "uint256"
        }
      ],
      "stateMutability": "view",
      "type": "function"
    },
    {
      "inputs": [
        {
          "internalType": "address",
          "name": "recipient",
          "type": "address"
        },
        {
          "internalType": "uint256",
          "name": "amount",
          "type": "uint256"
        }
      ],
      "name": "transfer",
      "outputs": [
        {
          "internalType": "bool",
          "name": "",
          "type": "bool"
        }
      ],
      "stateMutability": "nonpayable",
      "type": "function"
    },
    {
      "inputs": [
        {
          "internalType": "address",
          "name": "sender",
          "type": "address"
        },
        {
          "internalType": "address",
          "name": "recipient",
          "type": "address"
        },
        {
          "internalType": "uint256",
          "name": "amount",
          "type": "uint256"
        }
      ],
      "name": "transferFrom",
      "outputs": [
        {
          "internalType": "bool",
          "name": "",
          "type": "bool"
        }
      ],
      "stateMutability": "nonpayable",
      "type": "function"
    },
    {
      "inputs": [
        {
          "internalType": "address",
          "name": "newOwner",
          "type": "address"
        }
      ],
      "name": "transferOwnership",
      "outputs": [],
      "stateMutability": "nonpayable",
      "type": "function"
    },
    {
      "inputs": [],
      "name": "initialize",
      "outputs": [],
      "stateMutability": "nonpayable",
      "type": "function"
    },
    {
      "inputs": [],
      "name": "snapshot",
      "outputs": [],
      "stateMutability": "nonpayable",
      "type": "function"
    },
    {
      "inputs": [],
      "name": "pause",
      "outputs": [],
      "stateMutability": "nonpayable",
      "type": "function"
    },
    {
      "inputs": [],
      "name": "unpause",
      "outputs": [],
      "stateMutability": "nonpayable",
      "type": "function"
    },
    {
      "inputs": [
        {
          "internalType": "address",
          "name": "to",
          "type": "address"
        },
        {
          "internalType": "uint256",
          "name": "amount",
          "type": "uint256"
        }
      ],
      "name": "mint",
      "outputs": [],
      "stateMutability": "nonpayable",
      "type": "function"
    }
  ],
  "bytecode": "0x60806040523480156200001157600080fd5b50600060019054906101000a900460ff166200003c5760008054906101000a900460ff16156200004d565b6200004c6200010960201b60201c565b5b6200008f576040517f08c379a0000000000000000000000000000000000000000000000000000000008152600401620000869062000161565b60405180910390fd5b60008060019054906101000a900460ff161590508015620000e0576001600060016101000a81548160ff02191690831515021790555060016000806101000a81548160ff0219169083151502179055505b8015620001025760008060016101000a81548160ff0219169083151502179055505b50620001e3565b600062000121306200012760201b62000fbb1760201c565b15905090565b600080823b905060008111915050919050565b600062000149602e8362000183565b9150620001568262000194565b604082019050919050565b600060208201905081810360008301526200017c816200013a565b9050919050565b600082825260208201905092915050565b7f496e697469616c697a61626c653a20636f6e747261637420697320616c72656160008201527f647920696e697469616c697a6564000000000000000000000000000000000000602082015250565b61327780620001f36000396000f3fe608060405234801561001057600080fd5b50600436106101585760003560e01c8063715018a6116100c35780639711715a1161007c5780639711715a1461037d578063981b24d014610387578063a457c2d7146103b7578063a9059cbb146103e7578063dd62ed3e14610417578063f2fde38b1461044757610158565b8063715018a61461030757806379cc6790146103115780638129fc1c1461032d5780638456cb59146103375780638da5cb5b1461034157806395d89b411461035f57610158565b80633f4ba83a116101155780633f4ba83a1461024757806340c10f191461025157806342966c681461026d5780634ee2cd7e146102895780635c975abb146102b957806370a08231146102d757610158565b806306fdde031461015d578063095ea7b31461017b57806318160ddd146101ab57806323b872dd146101c9578063313ce567146101f95780633950935114610217575b600080fd5b610165610463565b6040516101729190612833565b60405180910390f35b6101956004803603810190610190919061248a565b6104f5565b6040516101a29190612818565b60405180910390f35b6101b3610513565b6040516101c09190612ab5565b60405180910390f35b6101e360048036038101906101de919061243b565b61051d565b6040516101f09190612818565b60405180910390f35b610201610615565b60405161020e9190612ad0565b60405180910390f35b610231600480360381019061022c919061248a565b61061e565b60405161023e9190612818565b60405180910390f35b61024f6106ca565b005b61026b6004803603810190610266919061248a565b610750565b005b610287600480360381019061028291906124c6565b6107da565b005b6102a3600480360381019061029e919061248a565b6107ee565b6040516102b09190612ab5565b60405180910390f35b6102c161085e565b6040516102ce9190612818565b60405180910390f35b6102f160048036038101906102ec91906123d6565b610875565b6040516102fe9190612ab5565b60405180910390f35b61030f6108be565b005b61032b6004803603810190610326919061248a565b610946565b005b6103356109c1565b005b61033f610b39565b005b610349610bbf565b60405161035691906127fd565b60405180910390f35b610367610be9565b6040516103749190612833565b60405180910390f35b610385610c7b565b005b6103a1600480360381019061039c91906124c6565b610d02565b6040516103ae9190612ab5565b60405180910390f35b6103d160048036038101906103cc919061248a565b610d33565b6040516103de9190612818565b60405180910390f35b61040160048036038101906103fc919061248a565b610e1e565b60405161040e9190612818565b60405180910390f35b610431600480360381019061042c91906123ff565b610e3c565b60405161043e9190612ab5565b60405180910390f35b610461600480360381019061045c91906123d6565b610ec3565b005b60606036805461047290612c4a565b80601f016020809104026020016040519081016040528092919081815260200182805461049e90612c4a565b80156104eb5780601f106104c0576101008083540402835291602001916104eb565b820191906000526020600020905b8154815290600101906020018083116104ce57829003601f168201915b5050505050905090565b6000610509610502610fce565b8484610fd6565b6001905092915050565b6000603554905090565b600061052a8484846111a1565b6000603460008673ffffffffffffffffffffffffffffffffffffffff1673ffffffffffffffffffffffffffffffffffffffff1681526020019081526020016000206000610575610fce565b73ffffffffffffffffffffffffffffffffffffffff1673ffffffffffffffffffffffffffffffffffffffff168152602001908152602001600020549050828110156105f5576040517f08c379a00000000000000000000000000000000000000000000000000000000081526004016105ec90612975565b60405180910390fd5b61060985610601610fce565b858403610fd6565b60019150509392505050565b60006012905090565b60006106c061062b610fce565b848460346000610639610fce565b73ffffffffffffffffffffffffffffffffffffffff1673ffffffffffffffffffffffffffffffffffffffff16815260200190815260200160002060008873ffffffffffffffffffffffffffffffffffffffff1673ffffffffffffffffffffffffffffffffffffffff168152602001908152602001600020546106bb9190612b07565b610fd6565b6001905092915050565b6106d2610fce565b73ffffffffffffffffffffffffffffffffffffffff166106f0610bbf565b73ffffffffffffffffffffffffffffffffffffffff1614610746576040517f08c379a000000000000000000000000000000000000000000000000000000000815260040161073d90612995565b60405180910390fd5b61074e611425565b565b610758610fce565b73ffffffffffffffffffffffffffffffffffffffff16610776610bbf565b73ffffffffffffffffffffffffffffffffffffffff16146107cc576040517f08c379a00000000000000000000000000000000000000000000000000000000081526004016107c390612995565b60405180910390fd5b6107d682826114c7565b5050565b6107eb6107e5610fce565b82611628565b50565b600080600061083b84609760008873ffffffffffffffffffffffffffffffffffffffff1673ffffffffffffffffffffffffffffffffffffffff168152602001908152602001600020611801565b91509150816108525761084d85610875565b610854565b805b9250505092915050565b600060fb60009054906101000a900460ff16905090565b6000603360008373ffffffffffffffffffffffffffffffffffffffff1673ffffffffffffffffffffffffffffffffffffffff168152602001908152602001600020549050919050565b6108c6610fce565b73ffffffffffffffffffffffffffffffffffffffff166108e4610bbf565b73ffffffffffffffffffffffffffffffffffffffff161461093a576040517f08c379a000000000000000000000000000000000000000000000000000000000815260040161093190612995565b60405180910390fd5b610944600061191d565b565b600061095983610954610fce565b610e3c565b90508181101561099e576040517f08c379a0000000000000000000000000000000000000000000000000000000008152600401610995906129b5565b60405180910390fd5b6109b2836109aa610fce565b848403610fd6565b6109bc8383611628565b505050565b600060019054906101000a900460ff166109e95760008054906101000a900460ff16156109f2565b6109f16119e3565b5b610a31576040517f08c379a0000000000000000000000000000000000000000000000000000000008152600401610a2890612955565b60405180910390fd5b60008060019054906101000a900460ff161590508015610a81576001600060016101000a81548160ff02191690831515021790555060016000806101000a81548160ff0219169083151502179055505b610af56040518060400160405280600481526020017f4c656170000000000000000000000000000000000000000000000000000000008152506040518060400160405280600481526020017f4c454150000000000000000000000000000000000000000000000000000000008152506119f4565b610afd611a59565b610b05611aba565b610b0d611b1b565b610b15611b7c565b8015610b365760008060016101000a81548160ff0219169083151502179055505b50565b610b41610fce565b73ffffffffffffffffffffffffffffffffffffffff16610b5f610bbf565b73ffffffffffffffffffffffffffffffffffffffff1614610bb5576040517f08c379a0000000000000000000000000000000000000000000000000000000008152600401610bac90612995565b60405180910390fd5b610bbd611bdd565b565b600060c960009054906101000a900473ffffffffffffffffffffffffffffffffffffffff16905090565b606060378054610bf890612c4a565b80601f0160208091040260200160405190810160405280929190818152602001828054610c2490612c4a565b8015610c715780601f10610c4657610100808354040283529160200191610c71565b820191906000526020600020905b815481529060010190602001808311610c5457829003601f168201915b5050505050905090565b610c83610fce565b73ffffffffffffffffffffffffffffffffffffffff16610ca1610bbf565b73ffffffffffffffffffffffffffffffffffffffff1614610cf7576040517f08c379a0000000000000000000000000000000000000000000000000000000008152600401610cee90612995565b60405180910390fd5b610cff611c80565b50565b6000806000610d12846098611801565b9150915081610d2857610d23610513565b610d2a565b805b92505050919050565b60008060346000610d42610fce565b73ffffffffffffffffffffffffffffffffffffffff1673ffffffffffffffffffffffffffffffffffffffff16815260200190815260200160002060008573ffffffffffffffffffffffffffffffffffffffff1673ffffffffffffffffffffffffffffffffffffffff16815260200190815260200160002054905082811015610dff576040517f08c379a0000000000000000000000000000000000000000000000000000000008152600401610df690612a75565b60405180910390fd5b610e13610e0a610fce565b85858403610fd6565b600191505092915050565b6000610e32610e2b610fce565b84846111a1565b6001905092915050565b6000603460008473ffffffffffffffffffffffffffffffffffffffff1673ffffffffffffffffffffffffffffffffffffffff16815260200190815260200160002060008373ffffffffffffffffffffffffffffffffffffffff1673ffffffffffffffffffffffffffffffffffffffff16815260200190815260200160002054905092915050565b610ecb610fce565b73ffffffffffffffffffffffffffffffffffffffff16610ee9610bbf565b73ffffffffffffffffffffffffffffffffffffffff1614610f3f576040517f08c379a0000000000000000000000000000000000000000000000000000000008152600401610f3690612995565b60405180910390fd5b600073ffffffffffffffffffffffffffffffffffffffff168173ffffffffffffffffffffffffffffffffffffffff161415610faf576040517f08c379a0000000000000000000000000000000000000000000000000000000008152600401610fa6906128d5565b60405180910390fd5b610fb88161191d565b50565b600080823b905060008111915050919050565b600033905090565b600073ffffffffffffffffffffffffffffffffffffffff168373ffffffffffffffffffffffffffffffffffffffff161415611046576040517f08c379a000000000000000000000000000000000000000000000000000000000815260040161103d90612a15565b60405180910390fd5b600073ffffffffffffffffffffffffffffffffffffffff168273ffffffffffffffffffffffffffffffffffffffff1614156110b6576040517f08c379a00000000000000000000000000000000000000000000000000000000081526004016110ad906128f5565b60405180910390fd5b80603460008573ffffffffffffffffffffffffffffffffffffffff1673ffffffffffffffffffffffffffffffffffffffff16815260200190815260200160002060008473ffffffffffffffffffffffffffffffffffffffff1673ffffffffffffffffffffffffffffffffffffffff168152602001908152602001600020819055508173ffffffffffffffffffffffffffffffffffffffff168373ffffffffffffffffffffffffffffffffffffffff167f8c5be1e5ebec7d5bd14f71427d1e84f3dd0314c0f7b2291e5b200ac8c7c3b925836040516111949190612ab5565b60405180910390a3505050565b600073ffffffffffffffffffffffffffffffffffffffff168373ffffffffffffffffffffffffffffffffffffffff161415611211576040517f08c379a0000000000000000000000000000000000000000000000000000000008152600401611208906129f5565b60405180910390fd5b600073ffffffffffffffffffffffffffffffffffffffff168273ffffffffffffffffffffffffffffffffffffffff161415611281576040517f08c379a000000000000000000000000000000000000000000000000000000000815260040161127890612875565b60405180910390fd5b61128c838383611cd6565b6000603360008573ffffffffffffffffffffffffffffffffffffffff1673ffffffffffffffffffffffffffffffffffffffff16815260200190815260200160002054905081811015611313576040517f08c379a000000000000000000000000000000000000000000000000000000000815260040161130a90612915565b60405180910390fd5b818103603360008673ffffffffffffffffffffffffffffffffffffffff1673ffffffffffffffffffffffffffffffffffffffff1681526020019081526020016000208190555081603360008573ffffffffffffffffffffffffffffffffffffffff1673ffffffffffffffffffffffffffffffffffffffff16815260200190815260200160002060008282546113a89190612b07565b925050819055508273ffffffffffffffffffffffffffffffffffffffff168473ffffffffffffffffffffffffffffffffffffffff167fddf252ad1be2c89b69c2b068fc378daa952ba7f163c4a11628f55a4df523b3ef8460405161140c9190612ab5565b60405180910390a361141f848484611d2e565b50505050565b61142d61085e565b61146c576040517f08c379a000000000000000000000000000000000000000000000000000000000815260040161146390612895565b60405180910390fd5b600060fb60006101000a81548160ff0219169083151502179055507f5db9ee0a495bf2e6ff9c91a7834c1ba4fdd244a5e8aa4e537bd38aeae4b073aa6114b0610fce565b6040516114bd91906127fd565b60405180910390a1565b600073ffffffffffffffffffffffffffffffffffffffff168273ffffffffffffffffffffffffffffffffffffffff161415611537576040517f08c379a000000000000000000000000000000000000000000000000000000000815260040161152e90612a95565b60405180910390fd5b61154360008383611cd6565b80603560008282546115559190612b07565b9250508190555080603360008473ffffffffffffffffffffffffffffffffffffffff1673ffffffffffffffffffffffffffffffffffffffff16815260200190815260200160002060008282546115ab9190612b07565b925050819055508173ffffffffffffffffffffffffffffffffffffffff16600073ffffffffffffffffffffffffffffffffffffffff167fddf252ad1be2c89b69c2b068fc378daa952ba7f163c4a11628f55a4df523b3ef836040516116109190612ab5565b60405180910390a361162460008383611d2e565b5050565b600073ffffffffffffffffffffffffffffffffffffffff168273ffffffffffffffffffffffffffffffffffffffff161415611698576040517f08c379a000000000000000000000000000000000000000000000000000000000815260040161168f906129d5565b60405180910390fd5b6116a482600083611cd6565b6000603360008473ffffffffffffffffffffffffffffffffffffffff1673ffffffffffffffffffffffffffffffffffffffff1681526020019081526020016000205490508181101561172b576040517f08c379a0000000000000000000000000000000000000000000000000000000008152600401611722906128b5565b60405180910390fd5b818103603360008573ffffffffffffffffffffffffffffffffffffffff1673ffffffffffffffffffffffffffffffffffffffff1681526020019081526020016000208190555081603560008282546117839190612b8e565b92505081905550600073ffffffffffffffffffffffffffffffffffffffff168373ffffffffffffffffffffffffffffffffffffffff167fddf252ad1be2c89b69c2b068fc378daa952ba7f163c4a11628f55a4df523b3ef846040516117e89190612ab5565b60405180910390a36117fc83600084611d2e565b505050565b60008060008411611847576040517f08c379a000000000000000000000000000000000000000000000000000000000815260040161183e90612a55565b60405180910390fd5b61184f611d33565b841115611891576040517f08c379a000000000000000000000000000000000000000000000000000000000815260040161188890612855565b60405180910390fd5b60006118a98585600001611d4490919063ffffffff16565b905083600001805490508114156118c7576000809250925050611916565b6001846001018281548110611905577f4e487b7100000000000000000000000000000000000000000000000000000000600052603260045260246000fd5b906000526020600020015492509250505b9250929050565b600060c960009054906101000a900473ffffffffffffffffffffffffffffffffffffffff1690508160c960006101000a81548173ffffffffffffffffffffffffffffffffffffffff021916908373ffffffffffffffffffffffffffffffffffffffff1602179055508173ffffffffffffffffffffffffffffffffffffffff168173ffffffffffffffffffffffffffffffffffffffff167f8be0079c531659141344cd1fd0a4f28419497f9722a3daafe3b4186f6b6457e060405160405180910390a35050565b60006119ee30610fbb565b15905090565b600060019054906101000a900460ff16611a43576040517f08c379a0000000000000000000000000000000000000000000000000000000008152600401611a3a90612a35565b60405180910390fd5b611a4b611e6a565b611a558282611ebb565b5050565b600060019054906101000a900460ff16611aa8576040517f08c379a0000000000000000000000000000000000000000000000000000000008152600401611a9f90612a35565b60405180910390fd5b611ab0611e6a565b611ab8611f3c565b565b600060019054906101000a900460ff16611b09576040517f08c379a0000000000000000000000000000000000000000000000000000000008152600401611b0090612a35565b60405180910390fd5b611b11611e6a565b611b19611f8d565b565b600060019054906101000a900460ff16611b6a576040517f08c379a0000000000000000000000000000000000000000000000000000000008152600401611b6190612a35565b60405180910390fd5b611b72611e6a565b611b7a611fde565b565b600060019054906101000a900460ff16611bcb576040517f08c379a0000000000000000000000000000000000000000000000000000000008152600401611bc290612a35565b60405180910390fd5b611bd3611e6a565b611bdb61203f565b565b611be561085e565b15611c25576040517f08c379a0000000000000000000000000000000000000000000000000000000008152600401611c1c90612935565b60405180910390fd5b600160fb60006101000a81548160ff0219169083151502179055507f62e78cea01bee320cd4e420270b5ea74000d11b0c9f74754ebdbfc544b05a258611c69610fce565b604051611c7691906127fd565b60405180910390a1565b6000611c8c609a6120ab565b6000611c96611d33565b90507f8030e83b04d87bef53480e26263266d6ca66863aa8506aca6f2559d18aa1cb6781604051611cc79190612ab5565b60405180910390a18091505090565b611cde61085e565b15611d1e576040517f08c379a0000000000000000000000000000000000000000000000000000000008152600401611d1590612935565b60405180910390fd5b611d298383836120c1565b505050565b505050565b6000611d3f609a61217b565b905090565b60008083805490501415611d5b5760009050611e64565b600080848054905090505b80821015611de5576000611d7a8383612189565b905084868281548110611db6577f4e487b7100000000000000000000000000000000000000000000000000000000600052603260045260246000fd5b90600052602060002001541115611dcf57809150611ddf565b600181611ddc9190612b07565b92505b50611d66565b600082118015611e4357508385600184611dff9190612b8e565b81548110611e36577f4e487b7100000000000000000000000000000000000000000000000000000000600052603260045260246000fd5b9060005260206000200154145b15611e5e57600182611e559190612b8e565b92505050611e64565b81925050505b92915050565b600060019054906101000a900460ff16611eb9576040517f08c379a0000000000000000000000000000000000000000000000000000000008152600401611eb090612a35565b60405180910390fd5b565b600060019054906101000a900460ff16611f0a576040517f08c379a0000000000000000000000000000000000000000000000000000000008152600401611f0190612a35565b60405180910390fd5b8160369080519060200190611f20929190612309565b508060379080519060200190611f37929190612309565b505050565b600060019054906101000a900460ff16611f8b576040517f08c379a0000000000000000000000000000000000000000000000000000000008152600401611f8290612a35565b60405180910390fd5b565b600060019054906101000a900460ff16611fdc576040517f08c379a0000000000000000000000000000000000000000000000000000000008152600401611fd390612a35565b60405180910390fd5b565b600060019054906101000a900460ff1661202d576040517f08c379a000000000000000000000000000000000000000000000000000000000815260040161202490612a35565b60405180910390fd5b61203d612038610fce565b61191d565b565b600060019054906101000a900460ff1661208e576040517f08c379a000000000000000000000000000000000000000000000000000000000815260040161208590612a35565b60405180910390fd5b600060fb60006101000a81548160ff021916908315150217905550565b6001816000016000828254019250508190555050565b6120cc8383836121af565b600073ffffffffffffffffffffffffffffffffffffffff168373ffffffffffffffffffffffffffffffffffffffff1614156121175761210a826121b4565b612112612207565b612176565b600073ffffffffffffffffffffffffffffffffffffffff168273ffffffffffffffffffffffffffffffffffffffff16141561216257612155836121b4565b61215d612207565b612175565b61216b836121b4565b612174826121b4565b5b5b505050565b600081600001549050919050565b6000600282841861219a9190612b5d565b8284166121a79190612b07565b905092915050565b505050565b612204609760008373ffffffffffffffffffffffffffffffffffffffff1673ffffffffffffffffffffffffffffffffffffffff1681526020019081526020016000206121ff83610875565b61221b565b50565b6122196098612214610513565b61221b565b565b6000612225611d33565b90508061223484600001612296565b10156122915782600001819080600181540180825580915050600190039060005260206000200160009091909190915055826001018290806001815401808255809150506001900390600052602060002001600090919091909150555b505050565b600080828054905014156122ad5760009050612304565b81600183805490506122bf9190612b8e565b815481106122f6577f4e487b7100000000000000000000000000000000000000000000000000000000600052603260045260246000fd5b906000526020600020015490505b919050565b82805461231590612c4a565b90600052602060002090601f016020900481019282612337576000855561237e565b82601f1061235057805160ff191683800117855561237e565b8280016001018555821561237e579182015b8281111561237d578251825591602001919060010190612362565b5b50905061238b919061238f565b5090565b5b808211156123a8576000816000905550600101612390565b5090565b6000813590506123bb81613213565b92915050565b6000813590506123d08161322a565b92915050565b6000602082840312156123e857600080fd5b60006123f6848285016123ac565b91505092915050565b6000806040838503121561241257600080fd5b6000612420858286016123ac565b9250506020612431858286016123ac565b9150509250929050565b60008060006060848603121561245057600080fd5b600061245e868287016123ac565b935050602061246f868287016123ac565b9250506040612480868287016123c1565b9150509250925092565b6000806040838503121561249d57600080fd5b60006124ab858286016123ac565b92505060206124bc858286016123c1565b9150509250929050565b6000602082840312156124d857600080fd5b60006124e6848285016123c1565b91505092915050565b6124f881612bc2565b82525050565b61250781612bd4565b82525050565b600061251882612aeb565b6125228185612af6565b9350612532818560208601612c17565b61253b81612d09565b840191505092915050565b6000612553601d83612af6565b915061255e82612d1a565b602082019050919050565b6000612576602383612af6565b915061258182612d43565b604082019050919050565b6000612599601483612af6565b91506125a482612d92565b602082019050919050565b60006125bc602283612af6565b91506125c782612dbb565b604082019050919050565b60006125df602683612af6565b91506125ea82612e0a565b604082019050919050565b6000612602602283612af6565b915061260d82612e59565b604082019050919050565b6000612625602683612af6565b915061263082612ea8565b604082019050919050565b6000612648601083612af6565b915061265382612ef7565b602082019050919050565b600061266b602e83612af6565b915061267682612f20565b604082019050919050565b600061268e602883612af6565b915061269982612f6f565b604082019050919050565b60006126b1602083612af6565b91506126bc82612fbe565b602082019050919050565b60006126d4602483612af6565b91506126df82612fe7565b604082019050919050565b60006126f7602183612af6565b915061270282613036565b604082019050919050565b600061271a602583612af6565b915061272582613085565b604082019050919050565b600061273d602483612af6565b9150612748826130d4565b604082019050919050565b6000612760602b83612af6565b915061276b82613123565b604082019050919050565b6000612783601683612af6565b915061278e82613172565b602082019050919050565b60006127a6602583612af6565b91506127b18261319b565b604082019050919050565b60006127c9601f83612af6565b91506127d4826131ea565b602082019050919050565b6127e881612c00565b82525050565b6127f781612c0a565b82525050565b600060208201905061281260008301846124ef565b92915050565b600060208201905061282d60008301846124fe565b92915050565b6000602082019050818103600083015261284d818461250d565b905092915050565b6000602082019050818103600083015261286e81612546565b9050919050565b6000602082019050818103600083015261288e81612569565b9050919050565b600060208201905081810360008301526128ae8161258c565b9050919050565b600060208201905081810360008301526128ce816125af565b9050919050565b600060208201905081810360008301526128ee816125d2565b9050919050565b6000602082019050818103600083015261290e816125f5565b9050919050565b6000602082019050818103600083015261292e81612618565b9050919050565b6000602082019050818103600083015261294e8161263b565b9050919050565b6000602082019050818103600083015261296e8161265e565b9050919050565b6000602082019050818103600083015261298e81612681565b9050919050565b600060208201905081810360008301526129ae816126a4565b9050919050565b600060208201905081810360008301526129ce816126c7565b9050919050565b600060208201905081810360008301526129ee816126ea565b9050919050565b60006020820190508181036000830152612a0e8161270d565b9050919050565b60006020820190508181036000830152612a2e81612730565b9050919050565b60006020820190508181036000830152612a4e81612753565b9050919050565b60006020820190508181036000830152612a6e81612776565b9050919050565b60006020820190508181036000830152612a8e81612799565b9050919050565b60006020820190508181036000830152612aae816127bc565b9050919050565b6000602082019050612aca60008301846127df565b92915050565b6000602082019050612ae560008301846127ee565b92915050565b600081519050919050565b600082825260208201905092915050565b6000612b1282612c00565b9150612b1d83612c00565b9250827fffffffffffffffffffffffffffffffffffffffffffffffffffffffffffffffff03821115612b5257612b51612c7c565b5b828201905092915050565b6000612b6882612c00565b9150612b7383612c00565b925082612b8357612b82612cab565b5b828204905092915050565b6000612b9982612c00565b9150612ba483612c00565b925082821015612bb757612bb6612c7c565b5b828203905092915050565b6000612bcd82612be0565b9050919050565b60008115159050919050565b600073ffffffffffffffffffffffffffffffffffffffff82169050919050565b6000819050919050565b600060ff82169050919050565b60005b83811015612c35578082015181840152602081019050612c1a565b83811115612c44576000848401525b50505050565b60006002820490506001821680612c6257607f821691505b60208210811415612c7657612c75612cda565b5b50919050565b7f4e487b7100000000000000000000000000000000000000000000000000000000600052601160045260246000fd5b7f4e487b7100000000000000000000000000000000000000000000000000000000600052601260045260246000fd5b7f4e487b7100000000000000000000000000000000000000000000000000000000600052602260045260246000fd5b6000601f19601f8301169050919050565b7f4552433230536e617073686f743a206e6f6e6578697374656e74206964000000600082015250565b7f45524332303a207472616e7366657220746f20746865207a65726f206164647260008201527f6573730000000000000000000000000000000000000000000000000000000000602082015250565b7f5061757361626c653a206e6f7420706175736564000000000000000000000000600082015250565b7f45524332303a206275726e20616d6f756e7420657863656564732062616c616e60008201527f6365000000000000000000000000000000000000000000000000000000000000602082015250565b7f4f776e61626c653a206e6577206f776e657220697320746865207a65726f206160008201527f6464726573730000000000000000000000000000000000000000000000000000602082015250565b7f45524332303a20617070726f766520746f20746865207a65726f20616464726560008201527f7373000000000000000000000000000000000000000000000000000000000000602082015250565b7f45524332303a207472616e7366657220616d6f756e742065786365656473206260008201527f616c616e63650000000000000000000000000000000000000000000000000000602082015250565b7f5061757361626c653a2070617573656400000000000000000000000000000000600082015250565b7f496e697469616c697a61626c653a20636f6e747261637420697320616c72656160008201527f647920696e697469616c697a6564000000000000000000000000000000000000602082015250565b7f45524332303a207472616e7366657220616d6f756e742065786365656473206160008201527f6c6c6f77616e6365000000000000000000000000000000000000000000000000602082015250565b7f4f776e61626c653a2063616c6c6572206973206e6f7420746865206f776e6572600082015250565b7f45524332303a206275726e20616d6f756e74206578636565647320616c6c6f7760008201527f616e636500000000000000000000000000000000000000000000000000000000602082015250565b7f45524332303a206275726e2066726f6d20746865207a65726f2061646472657360008201527f7300000000000000000000000000000000000000000000000000000000000000602082015250565b7f45524332303a207472616e736665722066726f6d20746865207a65726f20616460008201527f6472657373000000000000000000000000000000000000000000000000000000602082015250565b7f45524332303a20617070726f76652066726f6d20746865207a65726f2061646460008201527f7265737300000000000000000000000000000000000000000000000000000000602082015250565b7f496e697469616c697a61626c653a20636f6e7472616374206973206e6f74206960008201527f6e697469616c697a696e67000000000000000000000000000000000000000000602082015250565b7f4552433230536e617073686f743a206964206973203000000000000000000000600082015250565b7f45524332303a2064656372656173656420616c6c6f77616e63652062656c6f7760008201527f207a65726f000000000000000000000000000000000000000000000000000000602082015250565b7f45524332303a206d696e7420746f20746865207a65726f206164647265737300600082015250565b61321c81612bc2565b811461322757600080fd5b50565b61323381612c00565b811461323e57600080fd5b5056fea2646970667358221220d5a714eb70b7c321e3420c8afb44e53ae69eaaf86d395ef1f83203d216fcff5864736f6c63430008020033",
  "immutableReferences": {},
  "source": "// SPDX-License-Identifier: MIT\npragma solidity ^0.8.2;\n\nimport \"@openzeppelin/contracts-upgradeable/token/ERC20/ERC20Upgradeable.sol\";\nimport \"@openzeppelin/contracts-upgradeable/token/ERC20/extensions/ERC20BurnableUpgradeable.sol\";\nimport \"@openzeppelin/contracts-upgradeable/token/ERC20/extensions/ERC20SnapshotUpgradeable.sol\";\nimport \"@openzeppelin/contracts-upgradeable/access/OwnableUpgradeable.sol\";\nimport \"@openzeppelin/contracts-upgradeable/security/PausableUpgradeable.sol\";\nimport \"@openzeppelin/contracts-upgradeable/proxy/utils/Initializable.sol\";\n\ncontract LeapW2E is Initializable, ERC20Upgradeable, ERC20BurnableUpgradeable, ERC20SnapshotUpgradeable, OwnableUpgradeable, PausableUpgradeable {\n    /// @custom:oz-upgrades-unsafe-allow constructor\n    constructor() initializer {}\n\n    function initialize() initializer public {\n        __ERC20_init(\"Leap\", \"LEAP\");\n        __ERC20Burnable_init();\n        __ERC20Snapshot_init();\n        __Ownable_init();\n        __Pausable_init();\n    }\n\n    function snapshot() public onlyOwner {\n        _snapshot();\n    }\n\n    function pause() public onlyOwner {\n        _pause();\n    }\n\n    function unpause() public onlyOwner {\n        _unpause();\n    }\n\n    function mint(address to, uint256 amount) public onlyOwner {\n        _mint(to, amount);\n    }\n\n    function _beforeTokenTransfer(address from, address to, uint256 amount)\n        internal\n        whenNotPaused\n        override(ERC20Upgradeable, ERC20SnapshotUpgradeable)\n    {\n        super._beforeTokenTransfer(from, to, amount);\n    }\n}",
  "sourcePath": "/Users/vincent/Documents/GitHub/Leap/ethDenver2022/contracts/LeapW2E.sol",
  "compiler": {
    "name": "solc",
    "version": "0.8.2+commit.661d1103.Emscripten.clang"
  },
  "schemaVersion": "3.4.3",
  "updatedAt": "2022-02-14T15:03:14.552Z",
  "devdoc": {
    "kind": "dev",
    "methods": {
      "allowance(address,address)": {
        "details": "See {IERC20-allowance}."
      },
      "approve(address,uint256)": {
        "details": "See {IERC20-approve}. Requirements: - `spender` cannot be the zero address."
      },
      "balanceOf(address)": {
        "details": "See {IERC20-balanceOf}."
      },
      "balanceOfAt(address,uint256)": {
        "details": "Retrieves the balance of `account` at the time `snapshotId` was created."
      },
      "burn(uint256)": {
        "details": "Destroys `amount` tokens from the caller. See {ERC20-_burn}."
      },
      "burnFrom(address,uint256)": {
        "details": "Destroys `amount` tokens from `account`, deducting from the caller's allowance. See {ERC20-_burn} and {ERC20-allowance}. Requirements: - the caller must have allowance for ``accounts``'s tokens of at least `amount`."
      },
      "constructor": {
        "custom:oz-upgrades-unsafe-allow": "constructor"
      },
      "decimals()": {
        "details": "Returns the number of decimals used to get its user representation. For example, if `decimals` equals `2`, a balance of `505` tokens should be displayed to a user as `5.05` (`505 / 10 ** 2`). Tokens usually opt for a value of 18, imitating the relationship between Ether and Wei. This is the value {ERC20} uses, unless this function is overridden; NOTE: This information is only used for _display_ purposes: it in no way affects any of the arithmetic of the contract, including {IERC20-balanceOf} and {IERC20-transfer}."
      },
      "decreaseAllowance(address,uint256)": {
        "details": "Atomically decreases the allowance granted to `spender` by the caller. This is an alternative to {approve} that can be used as a mitigation for problems described in {IERC20-approve}. Emits an {Approval} event indicating the updated allowance. Requirements: - `spender` cannot be the zero address. - `spender` must have allowance for the caller of at least `subtractedValue`."
      },
      "increaseAllowance(address,uint256)": {
        "details": "Atomically increases the allowance granted to `spender` by the caller. This is an alternative to {approve} that can be used as a mitigation for problems described in {IERC20-approve}. Emits an {Approval} event indicating the updated allowance. Requirements: - `spender` cannot be the zero address."
      },
      "name()": {
        "details": "Returns the name of the token."
      },
      "owner()": {
        "details": "Returns the address of the current owner."
      },
      "paused()": {
        "details": "Returns true if the contract is paused, and false otherwise."
      },
      "renounceOwnership()": {
        "details": "Leaves the contract without owner. It will not be possible to call `onlyOwner` functions anymore. Can only be called by the current owner. NOTE: Renouncing ownership will leave the contract without an owner, thereby removing any functionality that is only available to the owner."
      },
      "symbol()": {
        "details": "Returns the symbol of the token, usually a shorter version of the name."
      },
      "totalSupply()": {
        "details": "See {IERC20-totalSupply}."
      },
      "totalSupplyAt(uint256)": {
        "details": "Retrieves the total supply at the time `snapshotId` was created."
      },
      "transfer(address,uint256)": {
        "details": "See {IERC20-transfer}. Requirements: - `recipient` cannot be the zero address. - the caller must have a balance of at least `amount`."
      },
      "transferFrom(address,address,uint256)": {
        "details": "See {IERC20-transferFrom}. Emits an {Approval} event indicating the updated allowance. This is not required by the EIP. See the note at the beginning of {ERC20}. Requirements: - `sender` and `recipient` cannot be the zero address. - `sender` must have a balance of at least `amount`. - the caller must have allowance for ``sender``'s tokens of at least `amount`."
      },
      "transferOwnership(address)": {
        "details": "Transfers ownership of the contract to a new account (`newOwner`). Can only be called by the current owner."
      }
    },
    "version": 1
  },
  "userdoc": {
    "kind": "user",
    "methods": {},
    "version": 1
  }
}