{
  "contractName": "TokenFactory",
  "abi": [
    {
      "inputs": [],
      "stateMutability": "nonpayable",
      "type": "constructor"
    },
    {
      "anonymous": false,
      "inputs": [
        {
          "indexed": true,
          "internalType": "address",
          "name": "owner",
          "type": "address"
        },
        {
          "indexed": true,
          "internalType": "address",
          "name": "spender",
          "type": "address"
        },
        {
          "indexed": false,
          "internalType": "uint256",
          "name": "value",
          "type": "uint256"
        }
      ],
      "name": "Approval",
      "type": "event"
    },
    {
      "anonymous": false,
      "inputs": [
        {
          "indexed": true,
          "internalType": "address",
          "name": "delegator",
          "type": "address"
        },
        {
          "indexed": true,
          "internalType": "address",
          "name": "fromDelegate",
          "type": "address"
        },
        {
          "indexed": true,
          "internalType": "address",
          "name": "toDelegate",
          "type": "address"
        }
      ],
      "name": "DelegateChanged",
      "type": "event"
    },
    {
      "anonymous": false,
      "inputs": [
        {
          "indexed": true,
          "internalType": "address",
          "name": "delegate",
          "type": "address"
        },
        {
          "indexed": false,
          "internalType": "uint256",
          "name": "previousBalance",
          "type": "uint256"
        },
        {
          "indexed": false,
          "internalType": "uint256",
          "name": "newBalance",
          "type": "uint256"
        }
      ],
      "name": "DelegateVotesChanged",
      "type": "event"
    },
    {
      "anonymous": false,
      "inputs": [
        {
          "indexed": true,
          "internalType": "address",
          "name": "previousOwner",
          "type": "address"
        },
        {
          "indexed": true,
          "internalType": "address",
          "name": "newOwner",
          "type": "address"
        }
      ],
      "name": "OwnershipTransferred",
      "type": "event"
    },
    {
      "anonymous": false,
      "inputs": [
        {
          "indexed": false,
          "internalType": "address",
          "name": "account",
          "type": "address"
        }
      ],
      "name": "Paused",
      "type": "event"
    },
    {
      "anonymous": false,
      "inputs": [
        {
          "indexed": false,
          "internalType": "uint256",
          "name": "id",
          "type": "uint256"
        }
      ],
      "name": "Snapshot",
      "type": "event"
    },
    {
      "anonymous": false,
      "inputs": [
        {
          "indexed": true,
          "internalType": "address",
          "name": "from",
          "type": "address"
        },
        {
          "indexed": true,
          "internalType": "address",
          "name": "to",
          "type": "address"
        },
        {
          "indexed": false,
          "internalType": "uint256",
          "name": "value",
          "type": "uint256"
        }
      ],
      "name": "Transfer",
      "type": "event"
    },
    {
      "anonymous": false,
      "inputs": [
        {
          "indexed": false,
          "internalType": "address",
          "name": "account",
          "type": "address"
        }
      ],
      "name": "Unpaused",
      "type": "event"
    },
    {
      "inputs": [],
      "name": "DOMAIN_SEPARATOR",
      "outputs": [
        {
          "internalType": "bytes32",
          "name": "",
          "type": "bytes32"
        }
      ],
      "stateMutability": "view",
      "type": "function"
    },
    {
      "inputs": [
        {
          "internalType": "address",
          "name": "owner",
          "type": "address"
        },
        {
          "internalType": "address",
          "name": "spender",
          "type": "address"
        }
      ],
      "name": "allowance",
      "outputs": [
        {
          "internalType": "uint256",
          "name": "",
          "type": "uint256"
        }
      ],
      "stateMutability": "view",
      "type": "function"
    },
    {
      "inputs": [
        {
          "internalType": "address",
          "name": "spender",
          "type": "address"
        },
        {
          "internalType": "uint256",
          "name": "amount",
          "type": "uint256"
        }
      ],
      "name": "approve",
      "outputs": [
        {
          "internalType": "bool",
          "name": "",
          "type": "bool"
        }
      ],
      "stateMutability": "nonpayable",
      "type": "function"
    },
    {
      "inputs": [
        {
          "internalType": "address",
          "name": "account",
          "type": "address"
        }
      ],
      "name": "balanceOf",
      "outputs": [
        {
          "internalType": "uint256",
          "name": "",
          "type": "uint256"
        }
      ],
      "stateMutability": "view",
      "type": "function"
    },
    {
      "inputs": [
        {
          "internalType": "address",
          "name": "account",
          "type": "address"
        },
        {
          "internalType": "uint256",
          "name": "snapshotId",
          "type": "uint256"
        }
      ],
      "name": "balanceOfAt",
      "outputs": [
        {
          "internalType": "uint256",
          "name": "",
          "type": "uint256"
        }
      ],
      "stateMutability": "view",
      "type": "function"
    },
    {
      "inputs": [
        {
          "internalType": "uint256",
          "name": "amount",
          "type": "uint256"
        }
      ],
      "name": "burn",
      "outputs": [],
      "stateMutability": "nonpayable",
      "type": "function"
    },
    {
      "inputs": [
        {
          "internalType": "address",
          "name": "account",
          "type": "address"
        },
        {
          "internalType": "uint256",
          "name": "amount",
          "type": "uint256"
        }
      ],
      "name": "burnFrom",
      "outputs": [],
      "stateMutability": "nonpayable",
      "type": "function"
    },
    {
      "inputs": [
        {
          "internalType": "address",
          "name": "account",
          "type": "address"
        },
        {
          "internalType": "uint32",
          "name": "pos",
          "type": "uint32"
        }
      ],
      "name": "checkpoints",
      "outputs": [
        {
          "components": [
            {
              "internalType": "uint32",
              "name": "fromBlock",
              "type": "uint32"
            },
            {
              "internalType": "uint224",
              "name": "votes",
              "type": "uint224"
            }
          ],
          "internalType": "struct ERC20VotesUpgradeable.Checkpoint",
          "name": "",
          "type": "tuple"
        }
      ],
      "stateMutability": "view",
      "type": "function"
    },
    {
      "inputs": [],
      "name": "decimals",
      "outputs": [
        {
          "internalType": "uint8",
          "name": "",
          "type": "uint8"
        }
      ],
      "stateMutability": "view",
      "type": "function"
    },
    {
      "inputs": [
        {
          "internalType": "address",
          "name": "spender",
          "type": "address"
        },
        {
          "internalType": "uint256",
          "name": "subtractedValue",
          "type": "uint256"
        }
      ],
      "name": "decreaseAllowance",
      "outputs": [
        {
          "internalType": "bool",
          "name": "",
          "type": "bool"
        }
      ],
      "stateMutability": "nonpayable",
      "type": "function"
    },
    {
      "inputs": [
        {
          "internalType": "address",
          "name": "delegatee",
          "type": "address"
        }
      ],
      "name": "delegate",
      "outputs": [],
      "stateMutability": "nonpayable",
      "type": "function"
    },
    {
      "inputs": [
        {
          "internalType": "address",
          "name": "delegatee",
          "type": "address"
        },
        {
          "internalType": "uint256",
          "name": "nonce",
          "type": "uint256"
        },
        {
          "internalType": "uint256",
          "name": "expiry",
          "type": "uint256"
        },
        {
          "internalType": "uint8",
          "name": "v",
          "type": "uint8"
        },
        {
          "internalType": "bytes32",
          "name": "r",
          "type": "bytes32"
        },
        {
          "internalType": "bytes32",
          "name": "s",
          "type": "bytes32"
        }
      ],
      "name": "delegateBySig",
      "outputs": [],
      "stateMutability": "nonpayable",
      "type": "function"
    },
    {
      "inputs": [
        {
          "internalType": "address",
          "name": "account",
          "type": "address"
        }
      ],
      "name": "delegates",
      "outputs": [
        {
          "internalType": "address",
          "name": "",
          "type": "address"
        }
      ],
      "stateMutability": "view",
      "type": "function"
    },
    {
      "inputs": [
        {
          "internalType": "uint256",
          "name": "blockNumber",
          "type": "uint256"
        }
      ],
      "name": "getPastTotalSupply",
      "outputs": [
        {
          "internalType": "uint256",
          "name": "",
          "type": "uint256"
        }
      ],
      "stateMutability": "view",
      "type": "function"
    },
    {
      "inputs": [
        {
          "internalType": "address",
          "name": "account",
          "type": "address"
        },
        {
          "internalType": "uint256",
          "name": "blockNumber",
          "type": "uint256"
        }
      ],
      "name": "getPastVotes",
      "outputs": [
        {
          "internalType": "uint256",
          "name": "",
          "type": "uint256"
        }
      ],
      "stateMutability": "view",
      "type": "function"
    },
    {
      "inputs": [
        {
          "internalType": "address",
          "name": "account",
          "type": "address"
        }
      ],
      "name": "getVotes",
      "outputs": [
        {
          "internalType": "uint256",
          "name": "",
          "type": "uint256"
        }
      ],
      "stateMutability": "view",
      "type": "function"
    },
    {
      "inputs": [
        {
          "internalType": "address",
          "name": "spender",
          "type": "address"
        },
        {
          "internalType": "uint256",
          "name": "addedValue",
          "type": "uint256"
        }
      ],
      "name": "increaseAllowance",
      "outputs": [
        {
          "internalType": "bool",
          "name": "",
          "type": "bool"
        }
      ],
      "stateMutability": "nonpayable",
      "type": "function"
    },
    {
      "inputs": [],
      "name": "name",
      "outputs": [
        {
          "internalType": "string",
          "name": "",
          "type": "string"
        }
      ],
      "stateMutability": "view",
      "type": "function"
    },
    {
      "inputs": [
        {
          "internalType": "address",
          "name": "owner",
          "type": "address"
        }
      ],
      "name": "nonces",
      "outputs": [
        {
          "internalType": "uint256",
          "name": "",
          "type": "uint256"
        }
      ],
      "stateMutability": "view",
      "type": "function"
    },
    {
      "inputs": [
        {
          "internalType": "address",
          "name": "account",
          "type": "address"
        }
      ],
      "name": "numCheckpoints",
      "outputs": [
        {
          "internalType": "uint32",
          "name": "",
          "type": "uint32"
        }
      ],
      "stateMutability": "view",
      "type": "function"
    },
    {
      "inputs": [],
      "name": "owner",
      "outputs": [
        {
          "internalType": "address",
          "name": "",
          "type": "address"
        }
      ],
      "stateMutability": "view",
      "type": "function"
    },
    {
      "inputs": [],
      "name": "paused",
      "outputs": [
        {
          "internalType": "bool",
          "name": "",
          "type": "bool"
        }
      ],
      "stateMutability": "view",
      "type": "function"
    },
    {
      "inputs": [
        {
          "internalType": "address",
          "name": "owner",
          "type": "address"
        },
        {
          "internalType": "address",
          "name": "spender",
          "type": "address"
        },
        {
          "internalType": "uint256",
          "name": "value",
          "type": "uint256"
        },
        {
          "internalType": "uint256",
          "name": "deadline",
          "type": "uint256"
        },
        {
          "internalType": "uint8",
          "name": "v",
          "type": "uint8"
        },
        {
          "internalType": "bytes32",
          "name": "r",
          "type": "bytes32"
        },
        {
          "internalType": "bytes32",
          "name": "s",
          "type": "bytes32"
        }
      ],
      "name": "permit",
      "outputs": [],
      "stateMutability": "nonpayable",
      "type": "function"
    },
    {
      "inputs": [],
      "name": "renounceOwnership",
      "outputs": [],
      "stateMutability": "nonpayable",
      "type": "function"
    },
    {
      "inputs": [],
      "name": "symbol",
      "outputs": [
        {
          "internalType": "string",
          "name": "",
          "type": "string"
        }
      ],
      "stateMutability": "view",
      "type": "function"
    },
    {
      "inputs": [],
      "name": "totalSupply",
      "outputs": [
        {
          "internalType": "uint256",
          "name": "",
          "type": "uint256"
        }
      ],
      "stateMutability": "view",
      "type": "function"
    },
    {
      "inputs": [
        {
          "internalType": "uint256",
          "name": "snapshotId",
          "type": "uint256"
        }
      ],
      "name": "totalSupplyAt",
      "outputs": [
        {
          "internalType": "uint256",
          "name": "",
          "type": "uint256"
        }
      ],
      "stateMutability": "view",
      "type": "function"
    },
    {
      "inputs": [
        {
          "internalType": "address",
          "name": "recipient",
          "type": "address"
        },
        {
          "internalType": "uint256",
          "name": "amount",
          "type": "uint256"
        }
      ],
      "name": "transfer",
      "outputs": [
        {
          "internalType": "bool",
          "name": "",
          "type": "bool"
        }
      ],
      "stateMutability": "nonpayable",
      "type": "function"
    },
    {
      "inputs": [
        {
          "internalType": "address",
          "name": "sender",
          "type": "address"
        },
        {
          "internalType": "address",
          "name": "recipient",
          "type": "address"
        },
        {
          "internalType": "uint256",
          "name": "amount",
          "type": "uint256"
        }
      ],
      "name": "transferFrom",
      "outputs": [
        {
          "internalType": "bool",
          "name": "",
          "type": "bool"
        }
      ],
      "stateMutability": "nonpayable",
      "type": "function"
    },
    {
      "inputs": [
        {
          "internalType": "address",
          "name": "newOwner",
          "type": "address"
        }
      ],
      "name": "transferOwnership",
      "outputs": [],
      "stateMutability": "nonpayable",
      "type": "function"
    },
    {
      "inputs": [],
      "name": "initialize",
      "outputs": [],
      "stateMutability": "nonpayable",
      "type": "function"
    },
    {
      "inputs": [],
      "name": "snapshot",
      "outputs": [],
      "stateMutability": "nonpayable",
      "type": "function"
    },
    {
      "inputs": [],
      "name": "pause",
      "outputs": [],
      "stateMutability": "nonpayable",
      "type": "function"
    },
    {
      "inputs": [],
      "name": "unpause",
      "outputs": [],
      "stateMutability": "nonpayable",
      "type": "function"
    },
    {
      "inputs": [
        {
          "internalType": "address",
          "name": "to",
          "type": "address"
        },
        {
          "internalType": "uint256",
          "name": "amount",
          "type": "uint256"
        }
      ],
      "name": "mint",
      "outputs": [],
      "stateMutability": "nonpayable",
      "type": "function"
    },
    {
      "inputs": [
        {
          "internalType": "address",
          "name": "from",
          "type": "address"
        },
        {
          "internalType": "address",
          "name": "to",
          "type": "address"
        },
        {
          "internalType": "uint256",
          "name": "amount",
          "type": "uint256"
        }
      ],
      "name": "checkWallet",
      "outputs": [],
      "stateMutability": "payable",
      "type": "function"
    },
    {
      "inputs": [
        {
          "internalType": "address",
          "name": "from",
          "type": "address"
        },
        {
          "internalType": "address",
          "name": "to",
          "type": "address"
        },
        {
          "internalType": "uint256",
          "name": "amount",
          "type": "uint256"
        }
      ],
      "name": "confirmTime",
      "outputs": [],
      "stateMutability": "payable",
      "type": "function"
    },
    {
      "inputs": [
        {
          "internalType": "address",
          "name": "from",
          "type": "address"
        },
        {
          "internalType": "address",
          "name": "to",
          "type": "address"
        },
        {
          "internalType": "uint256",
          "name": "amount",
          "type": "uint256"
        }
      ],
      "name": "payUser",
      "outputs": [],
      "stateMutability": "payable",
      "type": "function"
    }
  ],
  "bytecode": "0x60806040523480156200001157600080fd5b50600060019054906101000a900460ff166200003c5760008054906101000a900460ff16156200004d565b6200004c6200010960201b60201c565b5b6200008f576040517f08c379a0000000000000000000000000000000000000000000000000000000008152600401620000869062000161565b60405180910390fd5b60008060019054906101000a900460ff161590508015620000e0576001600060016101000a81548160ff02191690831515021790555060016000806101000a81548160ff0219169083151502179055505b8015620001025760008060016101000a81548160ff0219169083151502179055505b50620001e3565b600062000121306200012760201b62001d0b1760201c565b15905090565b600080823b905060008111915050919050565b600062000149602e8362000183565b9150620001568262000194565b604082019050919050565b600060208201905081810360008301526200017c816200013a565b9050919050565b600082825260208201905092915050565b7f496e697469616c697a61626c653a20636f6e747261637420697320616c72656160008201527f647920696e697469616c697a6564000000000000000000000000000000000000602082015250565b615d6e80620001f36000396000f3fe6080604052600436106102255760003560e01c80637ecebe0011610123578063981b24d0116100ab578063d505accf1161006f578063d505accf14610825578063dd62ed3e1461084e578063ec700c731461088b578063f1127ed8146108a7578063f2fde38b146108e457610225565b8063981b24d0146107085780639ab24eb014610745578063a457c2d714610782578063a9059cbb146107bf578063c3cda520146107fc57610225565b80638bf2455b116100f25780638bf2455b146106425780638da5cb5b1461065e5780638e539e8c1461068957806395d89b41146106c65780639711715a146106f157610225565b80637ecebe00146105bb5780638129fc1c146105f85780638166b86f1461060f5780638456cb591461062b57610225565b806340c10f19116101b15780635c975abb116101755780635c975abb146104d65780636fcfff451461050157806370a082311461053e578063715018a61461057b57806379cc67901461059257610225565b806340c10f19146103e157806342966c681461040a5780634ee2cd7e14610433578063587cde1e146104705780635c19a95c146104ad57610225565b8063313ce567116101f8578063313ce567146102fa5780633644e5151461032557806339509351146103505780633a46b1a81461038d5780633f4ba83a146103ca57610225565b806306fdde031461022a578063095ea7b31461025557806318160ddd1461029257806323b872dd146102bd575b600080fd5b34801561023657600080fd5b5061023f61090d565b60405161024c9190614c04565b60405180910390f35b34801561026157600080fd5b5061027c600480360381019061027791906143bd565b61099f565b6040516102899190614a90565b60405180910390f35b34801561029e57600080fd5b506102a76109bd565b6040516102b49190615021565b60405180910390f35b3480156102c957600080fd5b506102e460048036038101906102df91906142d0565b6109c7565b6040516102f19190614a90565b60405180910390f35b34801561030657600080fd5b5061030f610abf565b60405161031c9190615080565b60405180910390f35b34801561033157600080fd5b5061033a610ac8565b6040516103479190614aab565b60405180910390f35b34801561035c57600080fd5b50610377600480360381019061037291906143bd565b610ad7565b6040516103849190614a90565b60405180910390f35b34801561039957600080fd5b506103b460048036038101906103af91906143bd565b610b83565b6040516103c19190615021565b60405180910390f35b3480156103d657600080fd5b506103df610c18565b005b3480156103ed57600080fd5b50610408600480360381019061040391906143bd565b610c9e565b005b34801561041657600080fd5b50610431600480360381019061042c91906144be565b610d28565b005b34801561043f57600080fd5b5061045a600480360381019061045591906143bd565b610d3c565b6040516104679190615021565b60405180910390f35b34801561047c57600080fd5b506104976004803603810190610492919061426b565b610dac565b6040516104a49190614a75565b60405180910390f35b3480156104b957600080fd5b506104d460048036038101906104cf919061426b565b610e16565b005b3480156104e257600080fd5b506104eb610e2a565b6040516104f89190614a90565b60405180910390f35b34801561050d57600080fd5b506105286004803603810190610523919061426b565b610e41565b6040516105359190615065565b60405180910390f35b34801561054a57600080fd5b506105656004803603810190610560919061426b565b610e96565b6040516105729190615021565b60405180910390f35b34801561058757600080fd5b50610590610edf565b005b34801561059e57600080fd5b506105b960048036038101906105b491906143bd565b610f67565b005b3480156105c757600080fd5b506105e260048036038101906105dd919061426b565b610fe2565b6040516105ef9190615021565b60405180910390f35b34801561060457600080fd5b5061060d611033565b005b610629600480360381019061062491906142d0565b611216565b005b34801561063757600080fd5b50610640611297565b005b61065c600480360381019061065791906142d0565b61131d565b005b34801561066a57600080fd5b5061067361139e565b6040516106809190614a75565b60405180910390f35b34801561069557600080fd5b506106b060048036038101906106ab91906144be565b6113c8565b6040516106bd9190615021565b60405180910390f35b3480156106d257600080fd5b506106db61141f565b6040516106e89190614c04565b60405180910390f35b3480156106fd57600080fd5b506107066114b1565b005b34801561071457600080fd5b5061072f600480360381019061072a91906144be565b611538565b60405161073c9190615021565b60405180910390f35b34801561075157600080fd5b5061076c6004803603810190610767919061426b565b611569565b6040516107799190615021565b60405180910390f35b34801561078e57600080fd5b506107a960048036038101906107a491906143bd565b6116a2565b6040516107b69190614a90565b60405180910390f35b3480156107cb57600080fd5b506107e660048036038101906107e191906143bd565b61178d565b6040516107f39190614a90565b60405180910390f35b34801561080857600080fd5b50610823600480360381019061081e91906143f9565b6117ab565b005b34801561083157600080fd5b5061084c6004803603810190610847919061431f565b6118af565b005b34801561085a57600080fd5b5061087560048036038101906108709190614294565b6119d4565b6040516108829190615021565b60405180910390f35b6108a560048036038101906108a091906142d0565b611a5b565b005b3480156108b357600080fd5b506108ce60048036038101906108c99190614482565b611adc565b6040516108db9190615006565b60405180910390f35b3480156108f057600080fd5b5061090b6004803603810190610906919061426b565b611c13565b005b60606036805461091c90615412565b80601f016020809104026020016040519081016040528092919081815260200182805461094890615412565b80156109955780601f1061096a57610100808354040283529160200191610995565b820191906000526020600020905b81548152906001019060200180831161097857829003601f168201915b5050505050905090565b60006109b36109ac611d1e565b8484611d26565b6001905092915050565b6000603554905090565b60006109d4848484611ef1565b6000603460008673ffffffffffffffffffffffffffffffffffffffff1673ffffffffffffffffffffffffffffffffffffffff1681526020019081526020016000206000610a1f611d1e565b73ffffffffffffffffffffffffffffffffffffffff1673ffffffffffffffffffffffffffffffffffffffff16815260200190815260200160002054905082811015610a9f576040517f08c379a0000000000000000000000000000000000000000000000000000000008152600401610a9690614e66565b60405180910390fd5b610ab385610aab611d1e565b858403611d26565b60019150509392505050565b60006012905090565b6000610ad2612175565b905090565b6000610b79610ae4611d1e565b848460346000610af2611d1e565b73ffffffffffffffffffffffffffffffffffffffff1673ffffffffffffffffffffffffffffffffffffffff16815260200190815260200160002060008873ffffffffffffffffffffffffffffffffffffffff1673ffffffffffffffffffffffffffffffffffffffff16815260200190815260200160002054610b7491906150c2565b611d26565b6001905092915050565b6000438210610bc7576040517f08c379a0000000000000000000000000000000000000000000000000000000008152600401610bbe90614c86565b60405180910390fd5b610c1061019560008573ffffffffffffffffffffffffffffffffffffffff1673ffffffffffffffffffffffffffffffffffffffff168152602001908152602001600020836121b5565b905092915050565b610c20611d1e565b73ffffffffffffffffffffffffffffffffffffffff16610c3e61139e565b73ffffffffffffffffffffffffffffffffffffffff1614610c94576040517f08c379a0000000000000000000000000000000000000000000000000000000008152600401610c8b90614ea6565b60405180910390fd5b610c9c61230d565b565b610ca6611d1e565b73ffffffffffffffffffffffffffffffffffffffff16610cc461139e565b73ffffffffffffffffffffffffffffffffffffffff1614610d1a576040517f08c379a0000000000000000000000000000000000000000000000000000000008152600401610d1190614ea6565b60405180910390fd5b610d2482826123af565b5050565b610d39610d33611d1e565b826123bd565b50565b6000806000610d8984609760008873ffffffffffffffffffffffffffffffffffffffff1673ffffffffffffffffffffffffffffffffffffffff1681526020019081526020016000206123cb565b9150915081610da057610d9b85610e96565b610da2565b805b9250505092915050565b600061019460008373ffffffffffffffffffffffffffffffffffffffff1673ffffffffffffffffffffffffffffffffffffffff16815260200190815260200160002060009054906101000a900473ffffffffffffffffffffffffffffffffffffffff169050919050565b610e27610e21611d1e565b826124e7565b50565b600060fb60009054906101000a900460ff16905090565b6000610e8f61019560008473ffffffffffffffffffffffffffffffffffffffff1673ffffffffffffffffffffffffffffffffffffffff16815260200190815260200160002080549050612602565b9050919050565b6000603360008373ffffffffffffffffffffffffffffffffffffffff1673ffffffffffffffffffffffffffffffffffffffff168152602001908152602001600020549050919050565b610ee7611d1e565b73ffffffffffffffffffffffffffffffffffffffff16610f0561139e565b73ffffffffffffffffffffffffffffffffffffffff1614610f5b576040517f08c379a0000000000000000000000000000000000000000000000000000000008152600401610f5290614ea6565b60405180910390fd5b610f656000612655565b565b6000610f7a83610f75611d1e565b6119d4565b905081811015610fbf576040517f08c379a0000000000000000000000000000000000000000000000000000000008152600401610fb690614ee6565b60405180910390fd5b610fd383610fcb611d1e565b848403611d26565b610fdd83836123bd565b505050565b600061102c61016160008473ffffffffffffffffffffffffffffffffffffffff1673ffffffffffffffffffffffffffffffffffffffff16815260200190815260200160002061271b565b9050919050565b600060019054906101000a900460ff1661105b5760008054906101000a900460ff1615611064565b611063612729565b5b6110a3576040517f08c379a000000000000000000000000000000000000000000000000000000000815260040161109a90614e06565b60405180910390fd5b60008060019054906101000a900460ff1615905080156110f3576001600060016101000a81548160ff02191690831515021790555060016000806101000a81548160ff0219169083151502179055505b6111676040518060400160405280600481526020017f4c656570000000000000000000000000000000000000000000000000000000008152506040518060400160405280600481526020017f4c4545500000000000000000000000000000000000000000000000000000000081525061273a565b61116f61279f565b611177612800565b61117f612861565b6111876128c2565b6111c56040518060400160405280600481526020017f4c65657000000000000000000000000000000000000000000000000000000000815250612923565b6111f2336111d1610abf565b600a6111dd919061519c565b6461c9f368006111ed91906152ba565b6123af565b80156112135760008060016101000a81548160ff0219169083151502179055505b50565b61121e611d1e565b73ffffffffffffffffffffffffffffffffffffffff1661123c61139e565b73ffffffffffffffffffffffffffffffffffffffff1614611292576040517f08c379a000000000000000000000000000000000000000000000000000000000815260040161128990614ea6565b60405180910390fd5b505050565b61129f611d1e565b73ffffffffffffffffffffffffffffffffffffffff166112bd61139e565b73ffffffffffffffffffffffffffffffffffffffff1614611313576040517f08c379a000000000000000000000000000000000000000000000000000000000815260040161130a90614ea6565b60405180910390fd5b61131b6129c5565b565b611325611d1e565b73ffffffffffffffffffffffffffffffffffffffff1661134361139e565b73ffffffffffffffffffffffffffffffffffffffff1614611399576040517f08c379a000000000000000000000000000000000000000000000000000000000815260040161139090614ea6565b60405180910390fd5b505050565b600060c960009054906101000a900473ffffffffffffffffffffffffffffffffffffffff16905090565b600043821061140c576040517f08c379a000000000000000000000000000000000000000000000000000000000815260040161140390614c86565b60405180910390fd5b611418610196836121b5565b9050919050565b60606037805461142e90615412565b80601f016020809104026020016040519081016040528092919081815260200182805461145a90615412565b80156114a75780601f1061147c576101008083540402835291602001916114a7565b820191906000526020600020905b81548152906001019060200180831161148a57829003601f168201915b5050505050905090565b6114b9611d1e565b73ffffffffffffffffffffffffffffffffffffffff166114d761139e565b73ffffffffffffffffffffffffffffffffffffffff161461152d576040517f08c379a000000000000000000000000000000000000000000000000000000000815260040161152490614ea6565b60405180910390fd5b611535612a68565b50565b60008060006115488460986123cb565b915091508161155e576115596109bd565b611560565b805b92505050919050565b60008061019560008473ffffffffffffffffffffffffffffffffffffffff1673ffffffffffffffffffffffffffffffffffffffff168152602001908152602001600020805490509050600081146116795761019560008473ffffffffffffffffffffffffffffffffffffffff1673ffffffffffffffffffffffffffffffffffffffff1681526020019081526020016000206001826116079190615314565b8154811061163e577f4e487b7100000000000000000000000000000000000000000000000000000000600052603260045260246000fd5b9060005260206000200160000160049054906101000a90047bffffffffffffffffffffffffffffffffffffffffffffffffffffffff1661167c565b60005b7bffffffffffffffffffffffffffffffffffffffffffffffffffffffff16915050919050565b600080603460006116b1611d1e565b73ffffffffffffffffffffffffffffffffffffffff1673ffffffffffffffffffffffffffffffffffffffff16815260200190815260200160002060008573ffffffffffffffffffffffffffffffffffffffff1673ffffffffffffffffffffffffffffffffffffffff1681526020019081526020016000205490508281101561176e576040517f08c379a000000000000000000000000000000000000000000000000000000000815260040161176590614fc6565b60405180910390fd5b611782611779611d1e565b85858403611d26565b600191505092915050565b60006117a161179a611d1e565b8484611ef1565b6001905092915050565b834211156117ee576040517f08c379a00000000000000000000000000000000000000000000000000000000081526004016117e590614cc6565b60405180910390fd5b60006118506118487fe48329057bfd03d55e49b547132e39cffd9c1820ad7b9d4c5307691425d15adf89898960405160200161182d9493929190614b27565b60405160208183030381529060405280519060200120612abe565b858585612ad8565b905061185b81612b03565b861461189c576040517f08c379a000000000000000000000000000000000000000000000000000000000815260040161189390614d26565b60405180910390fd5b6118a681886124e7565b50505050505050565b834211156118f2576040517f08c379a00000000000000000000000000000000000000000000000000000000081526004016118e990614d86565b60405180910390fd5b6000610162548888886119048c612b03565b8960405160200161191a96959493929190614ac6565b604051602081830303815290604052805190602001209050600061193d82612abe565b9050600061194d82878787612ad8565b90508973ffffffffffffffffffffffffffffffffffffffff168173ffffffffffffffffffffffffffffffffffffffff16146119bd576040517f08c379a00000000000000000000000000000000000000000000000000000000081526004016119b490614e46565b60405180910390fd5b6119c88a8a8a611d26565b50505050505050505050565b6000603460008473ffffffffffffffffffffffffffffffffffffffff1673ffffffffffffffffffffffffffffffffffffffff16815260200190815260200160002060008373ffffffffffffffffffffffffffffffffffffffff1673ffffffffffffffffffffffffffffffffffffffff16815260200190815260200160002054905092915050565b611a63611d1e565b73ffffffffffffffffffffffffffffffffffffffff16611a8161139e565b73ffffffffffffffffffffffffffffffffffffffff1614611ad7576040517f08c379a0000000000000000000000000000000000000000000000000000000008152600401611ace90614ea6565b60405180910390fd5b505050565b611ae4614121565b61019560008473ffffffffffffffffffffffffffffffffffffffff1673ffffffffffffffffffffffffffffffffffffffff1681526020019081526020016000208263ffffffff1681548110611b62577f4e487b7100000000000000000000000000000000000000000000000000000000600052603260045260246000fd5b906000526020600020016040518060400160405290816000820160009054906101000a900463ffffffff1663ffffffff1663ffffffff1681526020016000820160049054906101000a90047bffffffffffffffffffffffffffffffffffffffffffffffffffffffff167bffffffffffffffffffffffffffffffffffffffffffffffffffffffff167bffffffffffffffffffffffffffffffffffffffffffffffffffffffff1681525050905092915050565b611c1b611d1e565b73ffffffffffffffffffffffffffffffffffffffff16611c3961139e565b73ffffffffffffffffffffffffffffffffffffffff1614611c8f576040517f08c379a0000000000000000000000000000000000000000000000000000000008152600401611c8690614ea6565b60405180910390fd5b600073ffffffffffffffffffffffffffffffffffffffff168173ffffffffffffffffffffffffffffffffffffffff161415611cff576040517f08c379a0000000000000000000000000000000000000000000000000000000008152600401611cf690614d46565b60405180910390fd5b611d0881612655565b50565b600080823b905060008111915050919050565b600033905090565b600073ffffffffffffffffffffffffffffffffffffffff168373ffffffffffffffffffffffffffffffffffffffff161415611d96576040517f08c379a0000000000000000000000000000000000000000000000000000000008152600401611d8d90614f66565b60405180910390fd5b600073ffffffffffffffffffffffffffffffffffffffff168273ffffffffffffffffffffffffffffffffffffffff161415611e06576040517f08c379a0000000000000000000000000000000000000000000000000000000008152600401611dfd90614d66565b60405180910390fd5b80603460008573ffffffffffffffffffffffffffffffffffffffff1673ffffffffffffffffffffffffffffffffffffffff16815260200190815260200160002060008473ffffffffffffffffffffffffffffffffffffffff1673ffffffffffffffffffffffffffffffffffffffff168152602001908152602001600020819055508173ffffffffffffffffffffffffffffffffffffffff168373ffffffffffffffffffffffffffffffffffffffff167f8c5be1e5ebec7d5bd14f71427d1e84f3dd0314c0f7b2291e5b200ac8c7c3b92583604051611ee49190615021565b60405180910390a3505050565b600073ffffffffffffffffffffffffffffffffffffffff168373ffffffffffffffffffffffffffffffffffffffff161415611f61576040517f08c379a0000000000000000000000000000000000000000000000000000000008152600401611f5890614f26565b60405180910390fd5b600073ffffffffffffffffffffffffffffffffffffffff168273ffffffffffffffffffffffffffffffffffffffff161415611fd1576040517f08c379a0000000000000000000000000000000000000000000000000000000008152600401611fc890614c66565b60405180910390fd5b611fdc838383612b62565b6000603360008573ffffffffffffffffffffffffffffffffffffffff1673ffffffffffffffffffffffffffffffffffffffff16815260200190815260200160002054905081811015612063576040517f08c379a000000000000000000000000000000000000000000000000000000000815260040161205a90614da6565b60405180910390fd5b818103603360008673ffffffffffffffffffffffffffffffffffffffff1673ffffffffffffffffffffffffffffffffffffffff1681526020019081526020016000208190555081603360008573ffffffffffffffffffffffffffffffffffffffff1673ffffffffffffffffffffffffffffffffffffffff16815260200190815260200160002060008282546120f891906150c2565b925050819055508273ffffffffffffffffffffffffffffffffffffffff168473ffffffffffffffffffffffffffffffffffffffff167fddf252ad1be2c89b69c2b068fc378daa952ba7f163c4a11628f55a4df523b3ef8460405161215c9190615021565b60405180910390a361216f848484612bba565b50505050565b60006121b07f8b73c3c69bb8fe3d512ecc4cf759cc79239f7b179b0ffacaa9a75d522b39400f6121a3612bca565b6121ab612bd5565b612be0565b905090565b6000808380549050905060005b8181101561225a5760006121d68284612c1a565b905084868281548110612212577f4e487b7100000000000000000000000000000000000000000000000000000000600052603260045260246000fd5b9060005260206000200160000160009054906101000a900463ffffffff1663ffffffff16111561224457809250612254565b60018161225191906150c2565b91505b506121c2565b600082146122e257846001836122709190615314565b815481106122a7577f4e487b7100000000000000000000000000000000000000000000000000000000600052603260045260246000fd5b9060005260206000200160000160049054906101000a90047bffffffffffffffffffffffffffffffffffffffffffffffffffffffff166122e5565b60005b7bffffffffffffffffffffffffffffffffffffffffffffffffffffffff169250505092915050565b612315610e2a565b612354576040517f08c379a000000000000000000000000000000000000000000000000000000000815260040161234b90614ca6565b60405180910390fd5b600060fb60006101000a81548160ff0219169083151502179055507f5db9ee0a495bf2e6ff9c91a7834c1ba4fdd244a5e8aa4e537bd38aeae4b073aa612398611d1e565b6040516123a59190614a75565b60405180910390a1565b6123b98282612c40565b5050565b6123c78282612cce565b5050565b60008060008411612411576040517f08c379a000000000000000000000000000000000000000000000000000000000815260040161240890614fa6565b60405180910390fd5b612419612ced565b84111561245b576040517f08c379a000000000000000000000000000000000000000000000000000000000815260040161245290614c46565b60405180910390fd5b60006124738585600001612cfe90919063ffffffff16565b905083600001805490508114156124915760008092509250506124e0565b60018460010182815481106124cf577f4e487b7100000000000000000000000000000000000000000000000000000000600052603260045260246000fd5b906000526020600020015492509250505b9250929050565b60006124f283610dac565b905060006124ff84610e96565b90508261019460008673ffffffffffffffffffffffffffffffffffffffff1673ffffffffffffffffffffffffffffffffffffffff16815260200190815260200160002060006101000a81548173ffffffffffffffffffffffffffffffffffffffff021916908373ffffffffffffffffffffffffffffffffffffffff1602179055508273ffffffffffffffffffffffffffffffffffffffff168273ffffffffffffffffffffffffffffffffffffffff168573ffffffffffffffffffffffffffffffffffffffff167f3134e8a2e6d97e929a7e54011ea5485d7d196dd5f0ba4d4ef95803e8e3fc257f60405160405180910390a46125fc828483612e24565b50505050565b600063ffffffff801682111561264d576040517f08c379a000000000000000000000000000000000000000000000000000000000815260040161264490614f46565b60405180910390fd5b819050919050565b600060c960009054906101000a900473ffffffffffffffffffffffffffffffffffffffff1690508160c960006101000a81548173ffffffffffffffffffffffffffffffffffffffff021916908373ffffffffffffffffffffffffffffffffffffffff1602179055508173ffffffffffffffffffffffffffffffffffffffff168173ffffffffffffffffffffffffffffffffffffffff167f8be0079c531659141344cd1fd0a4f28419497f9722a3daafe3b4186f6b6457e060405160405180910390a35050565b600081600001549050919050565b600061273430611d0b565b15905090565b600060019054906101000a900460ff16612789576040517f08c379a000000000000000000000000000000000000000000000000000000000815260040161278090614f86565b60405180910390fd5b61279161301f565b61279b8282613070565b5050565b600060019054906101000a900460ff166127ee576040517f08c379a00000000000000000000000000000000000000000000000000000000081526004016127e590614f86565b60405180910390fd5b6127f661301f565b6127fe6130f1565b565b600060019054906101000a900460ff1661284f576040517f08c379a000000000000000000000000000000000000000000000000000000000815260040161284690614f86565b60405180910390fd5b61285761301f565b61285f613142565b565b600060019054906101000a900460ff166128b0576040517f08c379a00000000000000000000000000000000000000000000000000000000081526004016128a790614f86565b60405180910390fd5b6128b861301f565b6128c0613193565b565b600060019054906101000a900460ff16612911576040517f08c379a000000000000000000000000000000000000000000000000000000000815260040161290890614f86565b60405180910390fd5b61291961301f565b6129216131f4565b565b600060019054906101000a900460ff16612972576040517f08c379a000000000000000000000000000000000000000000000000000000000815260040161296990614f86565b60405180910390fd5b61297a61301f565b6129b9816040518060400160405280600181526020017f3100000000000000000000000000000000000000000000000000000000000000815250613260565b6129c2816132dd565b50565b6129cd610e2a565b15612a0d576040517f08c379a0000000000000000000000000000000000000000000000000000000008152600401612a0490614de6565b60405180910390fd5b600160fb60006101000a81548160ff0219169083151502179055507f62e78cea01bee320cd4e420270b5ea74000d11b0c9f74754ebdbfc544b05a258612a51611d1e565b604051612a5e9190614a75565b60405180910390a1565b6000612a74609a613357565b6000612a7e612ced565b90507f8030e83b04d87bef53480e26263266d6ca66863aa8506aca6f2559d18aa1cb6781604051612aaf9190615021565b60405180910390a18091505090565b6000612ad1612acb612175565b8361336d565b9050919050565b6000806000612ae9878787876133a0565b91509150612af6816134ad565b8192505050949350505050565b60008061016160008473ffffffffffffffffffffffffffffffffffffffff1673ffffffffffffffffffffffffffffffffffffffff1681526020019081526020016000209050612b518161271b565b9150612b5c81613357565b50919050565b612b6a610e2a565b15612baa576040517f08c379a0000000000000000000000000000000000000000000000000000000008152600401612ba190614de6565b60405180910390fd5b612bb58383836137fe565b505050565b612bc58383836138b8565b505050565b600061012d54905090565b600061012e54905090565b60008383834630604051602001612bfb959493929190614b6c565b6040516020818303038152906040528051906020012090509392505050565b60006002828418612c2b9190615118565b828416612c3891906150c2565b905092915050565b612c4a82826138e3565b612c52613a44565b7bffffffffffffffffffffffffffffffffffffffffffffffffffffffff16612c786109bd565b1115612cb9576040517f08c379a0000000000000000000000000000000000000000000000000000000008152600401612cb090614e86565b60405180910390fd5b612cc8610196613a6883613a7e565b50505050565b612cd88282613d68565b612ce7610196613f4183613a7e565b50505050565b6000612cf9609a61271b565b905090565b60008083805490501415612d155760009050612e1e565b600080848054905090505b80821015612d9f576000612d348383612c1a565b905084868281548110612d70577f4e487b7100000000000000000000000000000000000000000000000000000000600052603260045260246000fd5b90600052602060002001541115612d8957809150612d99565b600181612d9691906150c2565b92505b50612d20565b600082118015612dfd57508385600184612db99190615314565b81548110612df0577f4e487b7100000000000000000000000000000000000000000000000000000000600052603260045260246000fd5b9060005260206000200154145b15612e1857600182612e0f9190615314565b92505050612e1e565b81925050505b92915050565b8173ffffffffffffffffffffffffffffffffffffffff168373ffffffffffffffffffffffffffffffffffffffff1614158015612e605750600081115b1561301a57600073ffffffffffffffffffffffffffffffffffffffff168373ffffffffffffffffffffffffffffffffffffffff1614612f3f57600080612ee861019560008773ffffffffffffffffffffffffffffffffffffffff1673ffffffffffffffffffffffffffffffffffffffff168152602001908152602001600020613f4185613a7e565b915091508473ffffffffffffffffffffffffffffffffffffffff167fdec2bacdd2f05b59de34da9b523dff8be42e5e38e818c82fdb0bae774387a7248383604051612f3492919061503c565b60405180910390a250505b600073ffffffffffffffffffffffffffffffffffffffff168273ffffffffffffffffffffffffffffffffffffffff161461301957600080612fc261019560008673ffffffffffffffffffffffffffffffffffffffff1673ffffffffffffffffffffffffffffffffffffffff168152602001908152602001600020613a6885613a7e565b915091508373ffffffffffffffffffffffffffffffffffffffff167fdec2bacdd2f05b59de34da9b523dff8be42e5e38e818c82fdb0bae774387a724838360405161300e92919061503c565b60405180910390a250505b5b505050565b600060019054906101000a900460ff1661306e576040517f08c379a000000000000000000000000000000000000000000000000000000000815260040161306590614f86565b60405180910390fd5b565b600060019054906101000a900460ff166130bf576040517f08c379a00000000000000000000000000000000000000000000000000000000081526004016130b690614f86565b60405180910390fd5b81603690805190602001906130d592919061415f565b5080603790805190602001906130ec92919061415f565b505050565b600060019054906101000a900460ff16613140576040517f08c379a000000000000000000000000000000000000000000000000000000000815260040161313790614f86565b60405180910390fd5b565b600060019054906101000a900460ff16613191576040517f08c379a000000000000000000000000000000000000000000000000000000000815260040161318890614f86565b60405180910390fd5b565b600060019054906101000a900460ff166131e2576040517f08c379a00000000000000000000000000000000000000000000000000000000081526004016131d990614f86565b60405180910390fd5b6131f26131ed611d1e565b612655565b565b600060019054906101000a900460ff16613243576040517f08c379a000000000000000000000000000000000000000000000000000000000815260040161323a90614f86565b60405180910390fd5b600060fb60006101000a81548160ff021916908315150217905550565b600060019054906101000a900460ff166132af576040517f08c379a00000000000000000000000000000000000000000000000000000000081526004016132a690614f86565b60405180910390fd5b6000828051906020012090506000828051906020012090508161012d819055508061012e8190555050505050565b600060019054906101000a900460ff1661332c576040517f08c379a000000000000000000000000000000000000000000000000000000000815260040161332390614f86565b60405180910390fd5b7f6e71edae12b1b97f4d1f60370fef10105fa2faae0126114a169c64845d6126c96101628190555050565b6001816000016000828254019250508190555050565b60008282604051602001613382929190614a3e565b60405160208183030381529060405280519060200120905092915050565b6000807f7fffffffffffffffffffffffffffffff5d576e7357a4501ddfe92f46681b20a08360001c11156133db5760006003915091506134a4565b601b8560ff16141580156133f35750601c8560ff1614155b156134055760006004915091506134a4565b60006001878787876040516000815260200160405260405161342a9493929190614bbf565b6020604051602081039080840390855afa15801561344c573d6000803e3d6000fd5b505050602060405103519050600073ffffffffffffffffffffffffffffffffffffffff168173ffffffffffffffffffffffffffffffffffffffff16141561349b576000600192509250506134a4565b80600092509250505b94509492505050565b600060048111156134e7577f4e487b7100000000000000000000000000000000000000000000000000000000600052602160045260246000fd5b816004811115613520577f4e487b7100000000000000000000000000000000000000000000000000000000600052602160045260246000fd5b141561352b576137fb565b60016004811115613565577f4e487b7100000000000000000000000000000000000000000000000000000000600052602160045260246000fd5b81600481111561359e577f4e487b7100000000000000000000000000000000000000000000000000000000600052602160045260246000fd5b14156135df576040517f08c379a00000000000000000000000000000000000000000000000000000000081526004016135d690614c26565b60405180910390fd5b60026004811115613619577f4e487b7100000000000000000000000000000000000000000000000000000000600052602160045260246000fd5b816004811115613652577f4e487b7100000000000000000000000000000000000000000000000000000000600052602160045260246000fd5b1415613693576040517f08c379a000000000000000000000000000000000000000000000000000000000815260040161368a90614d06565b60405180910390fd5b600360048111156136cd577f4e487b7100000000000000000000000000000000000000000000000000000000600052602160045260246000fd5b816004811115613706577f4e487b7100000000000000000000000000000000000000000000000000000000600052602160045260246000fd5b1415613747576040517f08c379a000000000000000000000000000000000000000000000000000000000815260040161373e90614dc6565b60405180910390fd5b600480811115613780577f4e487b7100000000000000000000000000000000000000000000000000000000600052602160045260246000fd5b8160048111156137b9577f4e487b7100000000000000000000000000000000000000000000000000000000600052602160045260246000fd5b14156137fa576040517f08c379a00000000000000000000000000000000000000000000000000000000081526004016137f190614e26565b60405180910390fd5b5b50565b613809838383613f57565b600073ffffffffffffffffffffffffffffffffffffffff168373ffffffffffffffffffffffffffffffffffffffff1614156138545761384782613f5c565b61384f613faf565b6138b3565b600073ffffffffffffffffffffffffffffffffffffffff168273ffffffffffffffffffffffffffffffffffffffff16141561389f5761389283613f5c565b61389a613faf565b6138b2565b6138a883613f5c565b6138b182613f5c565b5b5b505050565b6138c3838383613fc3565b6138de6138cf84610dac565b6138d884610dac565b83612e24565b505050565b600073ffffffffffffffffffffffffffffffffffffffff168273ffffffffffffffffffffffffffffffffffffffff161415613953576040517f08c379a000000000000000000000000000000000000000000000000000000000815260040161394a90614fe6565b60405180910390fd5b61395f60008383612b62565b806035600082825461397191906150c2565b9250508190555080603360008473ffffffffffffffffffffffffffffffffffffffff1673ffffffffffffffffffffffffffffffffffffffff16815260200190815260200160002060008282546139c791906150c2565b925050819055508173ffffffffffffffffffffffffffffffffffffffff16600073ffffffffffffffffffffffffffffffffffffffff167fddf252ad1be2c89b69c2b068fc378daa952ba7f163c4a11628f55a4df523b3ef83604051613a2c9190615021565b60405180910390a3613a4060008383612bba565b5050565b60007bffffffffffffffffffffffffffffffffffffffffffffffffffffffff905090565b60008183613a7691906150c2565b905092915050565b60008060008580549050905060008114613b125785600182613aa09190615314565b81548110613ad7577f4e487b7100000000000000000000000000000000000000000000000000000000600052603260045260246000fd5b9060005260206000200160000160049054906101000a90047bffffffffffffffffffffffffffffffffffffffffffffffffffffffff16613b15565b60005b7bffffffffffffffffffffffffffffffffffffffffffffffffffffffff169250613b4383858763ffffffff16565b9150600081118015613bbc57504386600183613b5f9190615314565b81548110613b96577f4e487b7100000000000000000000000000000000000000000000000000000000600052603260045260246000fd5b9060005260206000200160000160009054906101000a900463ffffffff1663ffffffff16145b15613c6f57613bca82613fc8565b86600183613bd89190615314565b81548110613c0f577f4e487b7100000000000000000000000000000000000000000000000000000000600052603260045260246000fd5b9060005260206000200160000160046101000a8154817bffffffffffffffffffffffffffffffffffffffffffffffffffffffff02191690837bffffffffffffffffffffffffffffffffffffffffffffffffffffffff160217905550613d5f565b856040518060400160405280613c8443612602565b63ffffffff168152602001613c9885613fc8565b7bffffffffffffffffffffffffffffffffffffffffffffffffffffffff168152509080600181540180825580915050600190039060005260206000200160009091909190915060008201518160000160006101000a81548163ffffffff021916908363ffffffff16021790555060208201518160000160046101000a8154817bffffffffffffffffffffffffffffffffffffffffffffffffffffffff02191690837bffffffffffffffffffffffffffffffffffffffffffffffffffffffff16021790555050505b50935093915050565b600073ffffffffffffffffffffffffffffffffffffffff168273ffffffffffffffffffffffffffffffffffffffff161415613dd8576040517f08c379a0000000000000000000000000000000000000000000000000000000008152600401613dcf90614f06565b60405180910390fd5b613de482600083612b62565b6000603360008473ffffffffffffffffffffffffffffffffffffffff1673ffffffffffffffffffffffffffffffffffffffff16815260200190815260200160002054905081811015613e6b576040517f08c379a0000000000000000000000000000000000000000000000000000000008152600401613e6290614ce6565b60405180910390fd5b818103603360008573ffffffffffffffffffffffffffffffffffffffff1673ffffffffffffffffffffffffffffffffffffffff168152602001908152602001600020819055508160356000828254613ec39190615314565b92505081905550600073ffffffffffffffffffffffffffffffffffffffff168373ffffffffffffffffffffffffffffffffffffffff167fddf252ad1be2c89b69c2b068fc378daa952ba7f163c4a11628f55a4df523b3ef84604051613f289190615021565b60405180910390a3613f3c83600084612bba565b505050565b60008183613f4f9190615314565b905092915050565b505050565b613fac609760008373ffffffffffffffffffffffffffffffffffffffff1673ffffffffffffffffffffffffffffffffffffffff168152602001908152602001600020613fa783610e96565b614033565b50565b613fc16098613fbc6109bd565b614033565b565b505050565b60007bffffffffffffffffffffffffffffffffffffffffffffffffffffffff801682111561402b576040517f08c379a000000000000000000000000000000000000000000000000000000000815260040161402290614ec6565b60405180910390fd5b819050919050565b600061403d612ced565b90508061404c846000016140ae565b10156140a95782600001819080600181540180825580915050600190039060005260206000200160009091909190915055826001018290806001815401808255809150506001900390600052602060002001600090919091909150555b505050565b600080828054905014156140c5576000905061411c565b81600183805490506140d79190615314565b8154811061410e577f4e487b7100000000000000000000000000000000000000000000000000000000600052603260045260246000fd5b906000526020600020015490505b919050565b6040518060400160405280600063ffffffff16815260200160007bffffffffffffffffffffffffffffffffffffffffffffffffffffffff1681525090565b82805461416b90615412565b90600052602060002090601f01602090048101928261418d57600085556141d4565b82601f106141a657805160ff19168380011785556141d4565b828001600101855582156141d4579182015b828111156141d35782518255916020019190600101906141b8565b5b5090506141e191906141e5565b5090565b5b808211156141fe5760008160009055506001016141e6565b5090565b60008135905061421181615cc5565b92915050565b60008135905061422681615cdc565b92915050565b60008135905061423b81615cf3565b92915050565b60008135905061425081615d0a565b92915050565b60008135905061426581615d21565b92915050565b60006020828403121561427d57600080fd5b600061428b84828501614202565b91505092915050565b600080604083850312156142a757600080fd5b60006142b585828601614202565b92505060206142c685828601614202565b9150509250929050565b6000806000606084860312156142e557600080fd5b60006142f386828701614202565b935050602061430486828701614202565b92505060406143158682870161422c565b9150509250925092565b600080600080600080600060e0888a03121561433a57600080fd5b60006143488a828b01614202565b97505060206143598a828b01614202565b965050604061436a8a828b0161422c565b955050606061437b8a828b0161422c565b945050608061438c8a828b01614256565b93505060a061439d8a828b01614217565b92505060c06143ae8a828b01614217565b91505092959891949750929550565b600080604083850312156143d057600080fd5b60006143de85828601614202565b92505060206143ef8582860161422c565b9150509250929050565b60008060008060008060c0878903121561441257600080fd5b600061442089828a01614202565b965050602061443189828a0161422c565b955050604061444289828a0161422c565b945050606061445389828a01614256565b935050608061446489828a01614217565b92505060a061447589828a01614217565b9150509295509295509295565b6000806040838503121561449557600080fd5b60006144a385828601614202565b92505060206144b485828601614241565b9150509250929050565b6000602082840312156144d057600080fd5b60006144de8482850161422c565b91505092915050565b6144f081615348565b82525050565b6144ff8161535a565b82525050565b61450e81615366565b82525050565b61452561452082615366565b615444565b82525050565b60006145368261509b565b61454081856150a6565b93506145508185602086016153df565b614559816154db565b840191505092915050565b60006145716018836150a6565b915061457c826154f9565b602082019050919050565b6000614594601d836150a6565b915061459f82615522565b602082019050919050565b60006145b76023836150a6565b91506145c28261554b565b604082019050919050565b60006145da601f836150a6565b91506145e58261559a565b602082019050919050565b60006145fd6014836150a6565b9150614608826155c3565b602082019050919050565b6000614620601d836150a6565b915061462b826155ec565b602082019050919050565b60006146436022836150a6565b915061464e82615615565b604082019050919050565b6000614666601f836150a6565b915061467182615664565b602082019050919050565b60006146896019836150a6565b91506146948261568d565b602082019050919050565b60006146ac6026836150a6565b91506146b7826156b6565b604082019050919050565b60006146cf6022836150a6565b91506146da82615705565b604082019050919050565b60006146f26002836150b7565b91506146fd82615754565b600282019050919050565b6000614715601d836150a6565b91506147208261577d565b602082019050919050565b60006147386026836150a6565b9150614743826157a6565b604082019050919050565b600061475b6022836150a6565b9150614766826157f5565b604082019050919050565b600061477e6010836150a6565b915061478982615844565b602082019050919050565b60006147a1602e836150a6565b91506147ac8261586d565b604082019050919050565b60006147c46022836150a6565b91506147cf826158bc565b604082019050919050565b60006147e7601e836150a6565b91506147f28261590b565b602082019050919050565b600061480a6028836150a6565b915061481582615934565b604082019050919050565b600061482d6030836150a6565b915061483882615983565b604082019050919050565b60006148506020836150a6565b915061485b826159d2565b602082019050919050565b60006148736027836150a6565b915061487e826159fb565b604082019050919050565b60006148966024836150a6565b91506148a182615a4a565b604082019050919050565b60006148b96021836150a6565b91506148c482615a99565b604082019050919050565b60006148dc6025836150a6565b91506148e782615ae8565b604082019050919050565b60006148ff6026836150a6565b915061490a82615b37565b604082019050919050565b60006149226024836150a6565b915061492d82615b86565b604082019050919050565b6000614945602b836150a6565b915061495082615bd5565b604082019050919050565b60006149686016836150a6565b915061497382615c24565b602082019050919050565b600061498b6025836150a6565b915061499682615c4d565b604082019050919050565b60006149ae601f836150a6565b91506149b982615c9c565b602082019050919050565b6040820160008201516149da6000850182614a11565b5060208201516149ed60208501826149f3565b50505050565b6149fc81615390565b82525050565b614a0b816153b8565b82525050565b614a1a816153c2565b82525050565b614a29816153c2565b82525050565b614a38816153d2565b82525050565b6000614a49826146e5565b9150614a558285614514565b602082019150614a658284614514565b6020820191508190509392505050565b6000602082019050614a8a60008301846144e7565b92915050565b6000602082019050614aa560008301846144f6565b92915050565b6000602082019050614ac06000830184614505565b92915050565b600060c082019050614adb6000830189614505565b614ae860208301886144e7565b614af560408301876144e7565b614b026060830186614a02565b614b0f6080830185614a02565b614b1c60a0830184614a02565b979650505050505050565b6000608082019050614b3c6000830187614505565b614b4960208301866144e7565b614b566040830185614a02565b614b636060830184614a02565b95945050505050565b600060a082019050614b816000830188614505565b614b8e6020830187614505565b614b9b6040830186614505565b614ba86060830185614a02565b614bb560808301846144e7565b9695505050505050565b6000608082019050614bd46000830187614505565b614be16020830186614a2f565b614bee6040830185614505565b614bfb6060830184614505565b95945050505050565b60006020820190508181036000830152614c1e818461452b565b905092915050565b60006020820190508181036000830152614c3f81614564565b9050919050565b60006020820190508181036000830152614c5f81614587565b9050919050565b60006020820190508181036000830152614c7f816145aa565b9050919050565b60006020820190508181036000830152614c9f816145cd565b9050919050565b60006020820190508181036000830152614cbf816145f0565b9050919050565b60006020820190508181036000830152614cdf81614613565b9050919050565b60006020820190508181036000830152614cff81614636565b9050919050565b60006020820190508181036000830152614d1f81614659565b9050919050565b60006020820190508181036000830152614d3f8161467c565b9050919050565b60006020820190508181036000830152614d5f8161469f565b9050919050565b60006020820190508181036000830152614d7f816146c2565b9050919050565b60006020820190508181036000830152614d9f81614708565b9050919050565b60006020820190508181036000830152614dbf8161472b565b9050919050565b60006020820190508181036000830152614ddf8161474e565b9050919050565b60006020820190508181036000830152614dff81614771565b9050919050565b60006020820190508181036000830152614e1f81614794565b9050919050565b60006020820190508181036000830152614e3f816147b7565b9050919050565b60006020820190508181036000830152614e5f816147da565b9050919050565b60006020820190508181036000830152614e7f816147fd565b9050919050565b60006020820190508181036000830152614e9f81614820565b9050919050565b60006020820190508181036000830152614ebf81614843565b9050919050565b60006020820190508181036000830152614edf81614866565b9050919050565b60006020820190508181036000830152614eff81614889565b9050919050565b60006020820190508181036000830152614f1f816148ac565b9050919050565b60006020820190508181036000830152614f3f816148cf565b9050919050565b60006020820190508181036000830152614f5f816148f2565b9050919050565b60006020820190508181036000830152614f7f81614915565b9050919050565b60006020820190508181036000830152614f9f81614938565b9050919050565b60006020820190508181036000830152614fbf8161495b565b9050919050565b60006020820190508181036000830152614fdf8161497e565b9050919050565b60006020820190508181036000830152614fff816149a1565b9050919050565b600060408201905061501b60008301846149c4565b92915050565b60006020820190506150366000830184614a02565b92915050565b60006040820190506150516000830185614a02565b61505e6020830184614a02565b9392505050565b600060208201905061507a6000830184614a20565b92915050565b60006020820190506150956000830184614a2f565b92915050565b600081519050919050565b600082825260208201905092915050565b600081905092915050565b60006150cd826153b8565b91506150d8836153b8565b9250827fffffffffffffffffffffffffffffffffffffffffffffffffffffffffffffffff0382111561510d5761510c61544e565b5b828201905092915050565b6000615123826153b8565b915061512e836153b8565b92508261513e5761513d61547d565b5b828204905092915050565b6000808291508390505b60018511156151935780860481111561516f5761516e61544e565b5b600185161561517e5780820291505b808102905061518c856154ec565b9450615153565b94509492505050565b60006151a7826153b8565b91506151b2836153d2565b92506151df7fffffffffffffffffffffffffffffffffffffffffffffffffffffffffffffffff84846151e7565b905092915050565b6000826151f757600190506152b3565b8161520557600090506152b3565b816001811461521b576002811461522557615254565b60019150506152b3565b60ff8411156152375761523661544e565b5b8360020a91508482111561524e5761524d61544e565b5b506152b3565b5060208310610133831016604e8410600b84101617156152895782820a9050838111156152845761528361544e565b5b6152b3565b6152968484846001615149565b925090508184048111156152ad576152ac61544e565b5b81810290505b9392505050565b60006152c5826153b8565b91506152d0836153b8565b9250817fffffffffffffffffffffffffffffffffffffffffffffffffffffffffffffffff04831182151516156153095761530861544e565b5b828202905092915050565b600061531f826153b8565b915061532a836153b8565b92508282101561533d5761533c61544e565b5b828203905092915050565b600061535382615370565b9050919050565b60008115159050919050565b6000819050919050565b600073ffffffffffffffffffffffffffffffffffffffff82169050919050565b60007bffffffffffffffffffffffffffffffffffffffffffffffffffffffff82169050919050565b6000819050919050565b600063ffffffff82169050919050565b600060ff82169050919050565b60005b838110156153fd5780820151818401526020810190506153e2565b8381111561540c576000848401525b50505050565b6000600282049050600182168061542a57607f821691505b6020821081141561543e5761543d6154ac565b5b50919050565b6000819050919050565b7f4e487b7100000000000000000000000000000000000000000000000000000000600052601160045260246000fd5b7f4e487b7100000000000000000000000000000000000000000000000000000000600052601260045260246000fd5b7f4e487b7100000000000000000000000000000000000000000000000000000000600052602260045260246000fd5b6000601f19601f8301169050919050565b60008160011c9050919050565b7f45434453413a20696e76616c6964207369676e61747572650000000000000000600082015250565b7f4552433230536e617073686f743a206e6f6e6578697374656e74206964000000600082015250565b7f45524332303a207472616e7366657220746f20746865207a65726f206164647260008201527f6573730000000000000000000000000000000000000000000000000000000000602082015250565b7f4552433230566f7465733a20626c6f636b206e6f7420796574206d696e656400600082015250565b7f5061757361626c653a206e6f7420706175736564000000000000000000000000600082015250565b7f4552433230566f7465733a207369676e61747572652065787069726564000000600082015250565b7f45524332303a206275726e20616d6f756e7420657863656564732062616c616e60008201527f6365000000000000000000000000000000000000000000000000000000000000602082015250565b7f45434453413a20696e76616c6964207369676e6174757265206c656e67746800600082015250565b7f4552433230566f7465733a20696e76616c6964206e6f6e636500000000000000600082015250565b7f4f776e61626c653a206e6577206f776e657220697320746865207a65726f206160008201527f6464726573730000000000000000000000000000000000000000000000000000602082015250565b7f45524332303a20617070726f766520746f20746865207a65726f20616464726560008201527f7373000000000000000000000000000000000000000000000000000000000000602082015250565b7f1901000000000000000000000000000000000000000000000000000000000000600082015250565b7f45524332305065726d69743a206578706972656420646561646c696e65000000600082015250565b7f45524332303a207472616e7366657220616d6f756e742065786365656473206260008201527f616c616e63650000000000000000000000000000000000000000000000000000602082015250565b7f45434453413a20696e76616c6964207369676e6174757265202773272076616c60008201527f7565000000000000000000000000000000000000000000000000000000000000602082015250565b7f5061757361626c653a2070617573656400000000000000000000000000000000600082015250565b7f496e697469616c697a61626c653a20636f6e747261637420697320616c72656160008201527f647920696e697469616c697a6564000000000000000000000000000000000000602082015250565b7f45434453413a20696e76616c6964207369676e6174757265202776272076616c60008201527f7565000000000000000000000000000000000000000000000000000000000000602082015250565b7f45524332305065726d69743a20696e76616c6964207369676e61747572650000600082015250565b7f45524332303a207472616e7366657220616d6f756e742065786365656473206160008201527f6c6c6f77616e6365000000000000000000000000000000000000000000000000602082015250565b7f4552433230566f7465733a20746f74616c20737570706c79207269736b73206f60008201527f766572666c6f77696e6720766f74657300000000000000000000000000000000602082015250565b7f4f776e61626c653a2063616c6c6572206973206e6f7420746865206f776e6572600082015250565b7f53616665436173743a2076616c756520646f65736e27742066697420696e203260008201527f3234206269747300000000000000000000000000000000000000000000000000602082015250565b7f45524332303a206275726e20616d6f756e74206578636565647320616c6c6f7760008201527f616e636500000000000000000000000000000000000000000000000000000000602082015250565b7f45524332303a206275726e2066726f6d20746865207a65726f2061646472657360008201527f7300000000000000000000000000000000000000000000000000000000000000602082015250565b7f45524332303a207472616e736665722066726f6d20746865207a65726f20616460008201527f6472657373000000000000000000000000000000000000000000000000000000602082015250565b7f53616665436173743a2076616c756520646f65736e27742066697420696e203360008201527f3220626974730000000000000000000000000000000000000000000000000000602082015250565b7f45524332303a20617070726f76652066726f6d20746865207a65726f2061646460008201527f7265737300000000000000000000000000000000000000000000000000000000602082015250565b7f496e697469616c697a61626c653a20636f6e7472616374206973206e6f74206960008201527f6e697469616c697a696e67000000000000000000000000000000000000000000602082015250565b7f4552433230536e617073686f743a206964206973203000000000000000000000600082015250565b7f45524332303a2064656372656173656420616c6c6f77616e63652062656c6f7760008201527f207a65726f000000000000000000000000000000000000000000000000000000602082015250565b7f45524332303a206d696e7420746f20746865207a65726f206164647265737300600082015250565b615cce81615348565b8114615cd957600080fd5b50565b615ce581615366565b8114615cf057600080fd5b50565b615cfc816153b8565b8114615d0757600080fd5b50565b615d13816153c2565b8114615d1e57600080fd5b50565b615d2a816153d2565b8114615d3557600080fd5b5056fea264697066735822122023bc8a1032128846c101b907136ea8a36d955a8e2f760d738779bbd7fa4a019e64736f6c63430008040033",
  "immutableReferences": {},
  "source": "// SPDX-License-Identifier: MIT\n/// @custom:security-contact ryvince.dev@gmail.com\n\npragma solidity ^0.8.4;\n\nimport \"@openzeppelin/contracts-upgradeable/token/ERC20/ERC20Upgradeable.sol\";\nimport \"@openzeppelin/contracts-upgradeable/token/ERC20/extensions/ERC20BurnableUpgradeable.sol\";\nimport \"@openzeppelin/contracts-upgradeable/token/ERC20/extensions/ERC20SnapshotUpgradeable.sol\";\nimport \"@openzeppelin/contracts-upgradeable/access/OwnableUpgradeable.sol\";\nimport \"@openzeppelin/contracts-upgradeable/security/PausableUpgradeable.sol\";\nimport \"@openzeppelin/contracts-upgradeable/token/ERC20/extensions/draft-ERC20PermitUpgradeable.sol\";\nimport \"@openzeppelin/contracts-upgradeable/token/ERC20/extensions/ERC20VotesUpgradeable.sol\";\nimport \"@openzeppelin/contracts-upgradeable/proxy/utils/Initializable.sol\";\n\n\ncontract TokenFactory is Initializable, ERC20Upgradeable, ERC20BurnableUpgradeable, ERC20SnapshotUpgradeable, OwnableUpgradeable, PausableUpgradeable, ERC20PermitUpgradeable, ERC20VotesUpgradeable {\n    /// @custom:oz-upgrades-unsafe-allow constructor\n    constructor() initializer {}\n\n    function initialize() initializer public {\n        __ERC20_init(\"Leep\", \"LEEP\");\n        __ERC20Burnable_init();\n        __ERC20Snapshot_init();\n        __Ownable_init();\n        __Pausable_init();\n        __ERC20Permit_init(\"Leep\");\n\n        _mint(msg.sender, 420000000000 * 10 ** decimals());\n    }\n\n    function snapshot() public onlyOwner {\n        _snapshot();\n    }\n\n    function pause() public onlyOwner {\n        _pause();\n    }\n\n    function unpause() public onlyOwner {\n        _unpause();\n    }\n\n    function mint(address to, uint256 amount) public onlyOwner {\n        _mint(to, amount);\n    }\n\n    function _beforeTokenTransfer(address from, address to, uint256 amount)\n        internal\n        whenNotPaused\n        override(ERC20Upgradeable, ERC20SnapshotUpgradeable)\n    {\n        super._beforeTokenTransfer(from, to, amount);\n    }\n\n\n    function checkWallet (address from, address to, uint256 amount) public payable onlyOwner {\n        //confirm wallet is registered, if not register\n    }\n\n    function confirmTime (address from, address to, uint256 amount) public payable onlyOwner {\n        //confirm the time watched \n        //potentially do math on time watched, randomize\n    }\n\n    function payUser (address from, address to, uint256 amount) public payable onlyOwner {\n        //airdrop the ERC20 to the user (msg.sender)\n        //failback or max on tokens that can be sent per transaction\n    }\n\n\n    // The following functions are overrides required by Solidity. \n    // From OpenZepplin\n\n    function _afterTokenTransfer(address from, address to, uint256 amount)\n        internal\n        override(ERC20Upgradeable, ERC20VotesUpgradeable)\n    {\n        super._afterTokenTransfer(from, to, amount);\n    }\n\n    function _mint(address to, uint256 amount)\n        internal\n        override(ERC20Upgradeable, ERC20VotesUpgradeable)\n    {\n        super._mint(to, amount);\n    }\n\n    function _burn(address account, uint256 amount)\n        internal\n        override(ERC20Upgradeable, ERC20VotesUpgradeable)\n    {\n        super._burn(account, amount);\n    }\n}",
  "sourcePath": "/Users/vincent/Documents/GitHub/Leap/ethDenver2022/contracts/TokenFactory.sol",
  "compiler": {
    "name": "solc",
    "version": "0.8.4+commit.c7e474f2.Emscripten.clang"
  },
  "schemaVersion": "3.4.3",
  "updatedAt": "2022-02-17T00:46:51.017Z",
  "devdoc": {
    "kind": "dev",
    "methods": {
      "DOMAIN_SEPARATOR()": {
        "details": "See {IERC20Permit-DOMAIN_SEPARATOR}."
      },
      "allowance(address,address)": {
        "details": "See {IERC20-allowance}."
      },
      "approve(address,uint256)": {
        "details": "See {IERC20-approve}. Requirements: - `spender` cannot be the zero address."
      },
      "balanceOf(address)": {
        "details": "See {IERC20-balanceOf}."
      },
      "balanceOfAt(address,uint256)": {
        "details": "Retrieves the balance of `account` at the time `snapshotId` was created."
      },
      "burn(uint256)": {
        "details": "Destroys `amount` tokens from the caller. See {ERC20-_burn}."
      },
      "burnFrom(address,uint256)": {
        "details": "Destroys `amount` tokens from `account`, deducting from the caller's allowance. See {ERC20-_burn} and {ERC20-allowance}. Requirements: - the caller must have allowance for ``accounts``'s tokens of at least `amount`."
      },
      "checkpoints(address,uint32)": {
        "details": "Get the `pos`-th checkpoint for `account`."
      },
      "constructor": {
        "custom:oz-upgrades-unsafe-allow": "constructor"
      },
      "decimals()": {
        "details": "Returns the number of decimals used to get its user representation. For example, if `decimals` equals `2`, a balance of `505` tokens should be displayed to a user as `5.05` (`505 / 10 ** 2`). Tokens usually opt for a value of 18, imitating the relationship between Ether and Wei. This is the value {ERC20} uses, unless this function is overridden; NOTE: This information is only used for _display_ purposes: it in no way affects any of the arithmetic of the contract, including {IERC20-balanceOf} and {IERC20-transfer}."
      },
      "decreaseAllowance(address,uint256)": {
        "details": "Atomically decreases the allowance granted to `spender` by the caller. This is an alternative to {approve} that can be used as a mitigation for problems described in {IERC20-approve}. Emits an {Approval} event indicating the updated allowance. Requirements: - `spender` cannot be the zero address. - `spender` must have allowance for the caller of at least `subtractedValue`."
      },
      "delegate(address)": {
        "details": "Delegate votes from the sender to `delegatee`."
      },
      "delegateBySig(address,uint256,uint256,uint8,bytes32,bytes32)": {
        "details": "Delegates votes from signer to `delegatee`"
      },
      "delegates(address)": {
        "details": "Get the address `account` is currently delegating to."
      },
      "getPastTotalSupply(uint256)": {
        "details": "Retrieve the `totalSupply` at the end of `blockNumber`. Note, this value is the sum of all balances. It is but NOT the sum of all the delegated votes! Requirements: - `blockNumber` must have been already mined"
      },
      "getPastVotes(address,uint256)": {
        "details": "Retrieve the number of votes for `account` at the end of `blockNumber`. Requirements: - `blockNumber` must have been already mined"
      },
      "getVotes(address)": {
        "details": "Gets the current votes balance for `account`"
      },
      "increaseAllowance(address,uint256)": {
        "details": "Atomically increases the allowance granted to `spender` by the caller. This is an alternative to {approve} that can be used as a mitigation for problems described in {IERC20-approve}. Emits an {Approval} event indicating the updated allowance. Requirements: - `spender` cannot be the zero address."
      },
      "name()": {
        "details": "Returns the name of the token."
      },
      "nonces(address)": {
        "details": "See {IERC20Permit-nonces}."
      },
      "numCheckpoints(address)": {
        "details": "Get number of checkpoints for `account`."
      },
      "owner()": {
        "details": "Returns the address of the current owner."
      },
      "paused()": {
        "details": "Returns true if the contract is paused, and false otherwise."
      },
      "permit(address,address,uint256,uint256,uint8,bytes32,bytes32)": {
        "details": "See {IERC20Permit-permit}."
      },
      "renounceOwnership()": {
        "details": "Leaves the contract without owner. It will not be possible to call `onlyOwner` functions anymore. Can only be called by the current owner. NOTE: Renouncing ownership will leave the contract without an owner, thereby removing any functionality that is only available to the owner."
      },
      "symbol()": {
        "details": "Returns the symbol of the token, usually a shorter version of the name."
      },
      "totalSupply()": {
        "details": "See {IERC20-totalSupply}."
      },
      "totalSupplyAt(uint256)": {
        "details": "Retrieves the total supply at the time `snapshotId` was created."
      },
      "transfer(address,uint256)": {
        "details": "See {IERC20-transfer}. Requirements: - `recipient` cannot be the zero address. - the caller must have a balance of at least `amount`."
      },
      "transferFrom(address,address,uint256)": {
        "details": "See {IERC20-transferFrom}. Emits an {Approval} event indicating the updated allowance. This is not required by the EIP. See the note at the beginning of {ERC20}. Requirements: - `sender` and `recipient` cannot be the zero address. - `sender` must have a balance of at least `amount`. - the caller must have allowance for ``sender``'s tokens of at least `amount`."
      },
      "transferOwnership(address)": {
        "details": "Transfers ownership of the contract to a new account (`newOwner`). Can only be called by the current owner."
      }
    },
    "version": 1
  },
  "userdoc": {
    "kind": "user",
    "methods": {},
    "version": 1
  }
}