{
  "contractName": "TokenFactory",
  "abi": [
    {
      "inputs": [],
      "stateMutability": "nonpayable",
      "type": "constructor"
    },
    {
      "anonymous": false,
      "inputs": [
        {
          "indexed": true,
          "internalType": "address",
          "name": "owner",
          "type": "address"
        },
        {
          "indexed": true,
          "internalType": "address",
          "name": "spender",
          "type": "address"
        },
        {
          "indexed": false,
          "internalType": "uint256",
          "name": "value",
          "type": "uint256"
        }
      ],
      "name": "Approval",
      "type": "event"
    },
    {
      "anonymous": false,
      "inputs": [
        {
          "indexed": true,
          "internalType": "address",
          "name": "delegator",
          "type": "address"
        },
        {
          "indexed": true,
          "internalType": "address",
          "name": "fromDelegate",
          "type": "address"
        },
        {
          "indexed": true,
          "internalType": "address",
          "name": "toDelegate",
          "type": "address"
        }
      ],
      "name": "DelegateChanged",
      "type": "event"
    },
    {
      "anonymous": false,
      "inputs": [
        {
          "indexed": true,
          "internalType": "address",
          "name": "delegate",
          "type": "address"
        },
        {
          "indexed": false,
          "internalType": "uint256",
          "name": "previousBalance",
          "type": "uint256"
        },
        {
          "indexed": false,
          "internalType": "uint256",
          "name": "newBalance",
          "type": "uint256"
        }
      ],
      "name": "DelegateVotesChanged",
      "type": "event"
    },
    {
      "anonymous": false,
      "inputs": [
        {
          "indexed": true,
          "internalType": "address",
          "name": "previousOwner",
          "type": "address"
        },
        {
          "indexed": true,
          "internalType": "address",
          "name": "newOwner",
          "type": "address"
        }
      ],
      "name": "OwnershipTransferred",
      "type": "event"
    },
    {
      "anonymous": false,
      "inputs": [
        {
          "indexed": false,
          "internalType": "address",
          "name": "account",
          "type": "address"
        }
      ],
      "name": "Paused",
      "type": "event"
    },
    {
      "anonymous": false,
      "inputs": [
        {
          "indexed": false,
          "internalType": "uint256",
          "name": "id",
          "type": "uint256"
        }
      ],
      "name": "Snapshot",
      "type": "event"
    },
    {
      "anonymous": false,
      "inputs": [
        {
          "indexed": true,
          "internalType": "address",
          "name": "from",
          "type": "address"
        },
        {
          "indexed": true,
          "internalType": "address",
          "name": "to",
          "type": "address"
        },
        {
          "indexed": false,
          "internalType": "uint256",
          "name": "value",
          "type": "uint256"
        }
      ],
      "name": "Transfer",
      "type": "event"
    },
    {
      "anonymous": false,
      "inputs": [
        {
          "indexed": false,
          "internalType": "address",
          "name": "account",
          "type": "address"
        }
      ],
      "name": "Unpaused",
      "type": "event"
    },
    {
      "inputs": [],
      "name": "DOMAIN_SEPARATOR",
      "outputs": [
        {
          "internalType": "bytes32",
          "name": "",
          "type": "bytes32"
        }
      ],
      "stateMutability": "view",
      "type": "function",
      "constant": true
    },
    {
      "inputs": [
        {
          "internalType": "address",
          "name": "owner",
          "type": "address"
        },
        {
          "internalType": "address",
          "name": "spender",
          "type": "address"
        }
      ],
      "name": "allowance",
      "outputs": [
        {
          "internalType": "uint256",
          "name": "",
          "type": "uint256"
        }
      ],
      "stateMutability": "view",
      "type": "function",
      "constant": true
    },
    {
      "inputs": [
        {
          "internalType": "address",
          "name": "spender",
          "type": "address"
        },
        {
          "internalType": "uint256",
          "name": "amount",
          "type": "uint256"
        }
      ],
      "name": "approve",
      "outputs": [
        {
          "internalType": "bool",
          "name": "",
          "type": "bool"
        }
      ],
      "stateMutability": "nonpayable",
      "type": "function"
    },
    {
      "inputs": [
        {
          "internalType": "address",
          "name": "account",
          "type": "address"
        }
      ],
      "name": "balanceOf",
      "outputs": [
        {
          "internalType": "uint256",
          "name": "",
          "type": "uint256"
        }
      ],
      "stateMutability": "view",
      "type": "function",
      "constant": true
    },
    {
      "inputs": [
        {
          "internalType": "address",
          "name": "account",
          "type": "address"
        },
        {
          "internalType": "uint256",
          "name": "snapshotId",
          "type": "uint256"
        }
      ],
      "name": "balanceOfAt",
      "outputs": [
        {
          "internalType": "uint256",
          "name": "",
          "type": "uint256"
        }
      ],
      "stateMutability": "view",
      "type": "function",
      "constant": true
    },
    {
      "inputs": [
        {
          "internalType": "uint256",
          "name": "amount",
          "type": "uint256"
        }
      ],
      "name": "burn",
      "outputs": [],
      "stateMutability": "nonpayable",
      "type": "function"
    },
    {
      "inputs": [
        {
          "internalType": "address",
          "name": "account",
          "type": "address"
        },
        {
          "internalType": "uint256",
          "name": "amount",
          "type": "uint256"
        }
      ],
      "name": "burnFrom",
      "outputs": [],
      "stateMutability": "nonpayable",
      "type": "function"
    },
    {
      "inputs": [
        {
          "internalType": "address",
          "name": "account",
          "type": "address"
        },
        {
          "internalType": "uint32",
          "name": "pos",
          "type": "uint32"
        }
      ],
      "name": "checkpoints",
      "outputs": [
        {
          "components": [
            {
              "internalType": "uint32",
              "name": "fromBlock",
              "type": "uint32"
            },
            {
              "internalType": "uint224",
              "name": "votes",
              "type": "uint224"
            }
          ],
          "internalType": "struct ERC20VotesUpgradeable.Checkpoint",
          "name": "",
          "type": "tuple"
        }
      ],
      "stateMutability": "view",
      "type": "function",
      "constant": true
    },
    {
      "inputs": [],
      "name": "decimals",
      "outputs": [
        {
          "internalType": "uint8",
          "name": "",
          "type": "uint8"
        }
      ],
      "stateMutability": "view",
      "type": "function",
      "constant": true
    },
    {
      "inputs": [
        {
          "internalType": "address",
          "name": "spender",
          "type": "address"
        },
        {
          "internalType": "uint256",
          "name": "subtractedValue",
          "type": "uint256"
        }
      ],
      "name": "decreaseAllowance",
      "outputs": [
        {
          "internalType": "bool",
          "name": "",
          "type": "bool"
        }
      ],
      "stateMutability": "nonpayable",
      "type": "function"
    },
    {
      "inputs": [
        {
          "internalType": "address",
          "name": "delegatee",
          "type": "address"
        }
      ],
      "name": "delegate",
      "outputs": [],
      "stateMutability": "nonpayable",
      "type": "function"
    },
    {
      "inputs": [
        {
          "internalType": "address",
          "name": "delegatee",
          "type": "address"
        },
        {
          "internalType": "uint256",
          "name": "nonce",
          "type": "uint256"
        },
        {
          "internalType": "uint256",
          "name": "expiry",
          "type": "uint256"
        },
        {
          "internalType": "uint8",
          "name": "v",
          "type": "uint8"
        },
        {
          "internalType": "bytes32",
          "name": "r",
          "type": "bytes32"
        },
        {
          "internalType": "bytes32",
          "name": "s",
          "type": "bytes32"
        }
      ],
      "name": "delegateBySig",
      "outputs": [],
      "stateMutability": "nonpayable",
      "type": "function"
    },
    {
      "inputs": [
        {
          "internalType": "address",
          "name": "account",
          "type": "address"
        }
      ],
      "name": "delegates",
      "outputs": [
        {
          "internalType": "address",
          "name": "",
          "type": "address"
        }
      ],
      "stateMutability": "view",
      "type": "function",
      "constant": true
    },
    {
      "inputs": [
        {
          "internalType": "uint256",
          "name": "blockNumber",
          "type": "uint256"
        }
      ],
      "name": "getPastTotalSupply",
      "outputs": [
        {
          "internalType": "uint256",
          "name": "",
          "type": "uint256"
        }
      ],
      "stateMutability": "view",
      "type": "function",
      "constant": true
    },
    {
      "inputs": [
        {
          "internalType": "address",
          "name": "account",
          "type": "address"
        },
        {
          "internalType": "uint256",
          "name": "blockNumber",
          "type": "uint256"
        }
      ],
      "name": "getPastVotes",
      "outputs": [
        {
          "internalType": "uint256",
          "name": "",
          "type": "uint256"
        }
      ],
      "stateMutability": "view",
      "type": "function",
      "constant": true
    },
    {
      "inputs": [
        {
          "internalType": "address",
          "name": "account",
          "type": "address"
        }
      ],
      "name": "getVotes",
      "outputs": [
        {
          "internalType": "uint256",
          "name": "",
          "type": "uint256"
        }
      ],
      "stateMutability": "view",
      "type": "function",
      "constant": true
    },
    {
      "inputs": [
        {
          "internalType": "address",
          "name": "spender",
          "type": "address"
        },
        {
          "internalType": "uint256",
          "name": "addedValue",
          "type": "uint256"
        }
      ],
      "name": "increaseAllowance",
      "outputs": [
        {
          "internalType": "bool",
          "name": "",
          "type": "bool"
        }
      ],
      "stateMutability": "nonpayable",
      "type": "function"
    },
    {
      "inputs": [],
      "name": "name",
      "outputs": [
        {
          "internalType": "string",
          "name": "",
          "type": "string"
        }
      ],
      "stateMutability": "view",
      "type": "function",
      "constant": true
    },
    {
      "inputs": [
        {
          "internalType": "address",
          "name": "owner",
          "type": "address"
        }
      ],
      "name": "nonces",
      "outputs": [
        {
          "internalType": "uint256",
          "name": "",
          "type": "uint256"
        }
      ],
      "stateMutability": "view",
      "type": "function",
      "constant": true
    },
    {
      "inputs": [
        {
          "internalType": "address",
          "name": "account",
          "type": "address"
        }
      ],
      "name": "numCheckpoints",
      "outputs": [
        {
          "internalType": "uint32",
          "name": "",
          "type": "uint32"
        }
      ],
      "stateMutability": "view",
      "type": "function",
      "constant": true
    },
    {
      "inputs": [],
      "name": "owner",
      "outputs": [
        {
          "internalType": "address",
          "name": "",
          "type": "address"
        }
      ],
      "stateMutability": "view",
      "type": "function",
      "constant": true
    },
    {
      "inputs": [],
      "name": "paused",
      "outputs": [
        {
          "internalType": "bool",
          "name": "",
          "type": "bool"
        }
      ],
      "stateMutability": "view",
      "type": "function",
      "constant": true
    },
    {
      "inputs": [
        {
          "internalType": "address",
          "name": "owner",
          "type": "address"
        },
        {
          "internalType": "address",
          "name": "spender",
          "type": "address"
        },
        {
          "internalType": "uint256",
          "name": "value",
          "type": "uint256"
        },
        {
          "internalType": "uint256",
          "name": "deadline",
          "type": "uint256"
        },
        {
          "internalType": "uint8",
          "name": "v",
          "type": "uint8"
        },
        {
          "internalType": "bytes32",
          "name": "r",
          "type": "bytes32"
        },
        {
          "internalType": "bytes32",
          "name": "s",
          "type": "bytes32"
        }
      ],
      "name": "permit",
      "outputs": [],
      "stateMutability": "nonpayable",
      "type": "function"
    },
    {
      "inputs": [],
      "name": "renounceOwnership",
      "outputs": [],
      "stateMutability": "nonpayable",
      "type": "function"
    },
    {
      "inputs": [],
      "name": "symbol",
      "outputs": [
        {
          "internalType": "string",
          "name": "",
          "type": "string"
        }
      ],
      "stateMutability": "view",
      "type": "function",
      "constant": true
    },
    {
      "inputs": [],
      "name": "totalSupply",
      "outputs": [
        {
          "internalType": "uint256",
          "name": "",
          "type": "uint256"
        }
      ],
      "stateMutability": "view",
      "type": "function",
      "constant": true
    },
    {
      "inputs": [
        {
          "internalType": "uint256",
          "name": "snapshotId",
          "type": "uint256"
        }
      ],
      "name": "totalSupplyAt",
      "outputs": [
        {
          "internalType": "uint256",
          "name": "",
          "type": "uint256"
        }
      ],
      "stateMutability": "view",
      "type": "function",
      "constant": true
    },
    {
      "inputs": [
        {
          "internalType": "address",
          "name": "to",
          "type": "address"
        },
        {
          "internalType": "uint256",
          "name": "amount",
          "type": "uint256"
        }
      ],
      "name": "transfer",
      "outputs": [
        {
          "internalType": "bool",
          "name": "",
          "type": "bool"
        }
      ],
      "stateMutability": "nonpayable",
      "type": "function"
    },
    {
      "inputs": [
        {
          "internalType": "address",
          "name": "from",
          "type": "address"
        },
        {
          "internalType": "address",
          "name": "to",
          "type": "address"
        },
        {
          "internalType": "uint256",
          "name": "amount",
          "type": "uint256"
        }
      ],
      "name": "transferFrom",
      "outputs": [
        {
          "internalType": "bool",
          "name": "",
          "type": "bool"
        }
      ],
      "stateMutability": "nonpayable",
      "type": "function"
    },
    {
      "inputs": [
        {
          "internalType": "address",
          "name": "newOwner",
          "type": "address"
        }
      ],
      "name": "transferOwnership",
      "outputs": [],
      "stateMutability": "nonpayable",
      "type": "function"
    },
    {
      "inputs": [],
      "name": "initialize",
      "outputs": [],
      "stateMutability": "nonpayable",
      "type": "function"
    },
    {
      "inputs": [],
      "name": "snapshot",
      "outputs": [],
      "stateMutability": "nonpayable",
      "type": "function"
    },
    {
      "inputs": [],
      "name": "pause",
      "outputs": [],
      "stateMutability": "nonpayable",
      "type": "function"
    },
    {
      "inputs": [],
      "name": "unpause",
      "outputs": [],
      "stateMutability": "nonpayable",
      "type": "function"
    },
    {
      "inputs": [
        {
          "internalType": "address",
          "name": "to",
          "type": "address"
        },
        {
          "internalType": "uint256",
          "name": "amount",
          "type": "uint256"
        }
      ],
      "name": "mint",
      "outputs": [],
      "stateMutability": "nonpayable",
      "type": "function"
    },
    {
      "inputs": [
        {
          "internalType": "address",
          "name": "from",
          "type": "address"
        },
        {
          "internalType": "address",
          "name": "to",
          "type": "address"
        },
        {
          "internalType": "uint256",
          "name": "amount",
          "type": "uint256"
        }
      ],
      "name": "checkWallet",
      "outputs": [],
      "stateMutability": "payable",
      "type": "function",
      "payable": true
    },
    {
      "inputs": [
        {
          "internalType": "address",
          "name": "from",
          "type": "address"
        },
        {
          "internalType": "address",
          "name": "to",
          "type": "address"
        },
        {
          "internalType": "uint256",
          "name": "amount",
          "type": "uint256"
        }
      ],
      "name": "confirmTime",
      "outputs": [],
      "stateMutability": "payable",
      "type": "function",
      "payable": true
    },
    {
      "inputs": [
        {
          "internalType": "address",
          "name": "from",
          "type": "address"
        },
        {
          "internalType": "address",
          "name": "to",
          "type": "address"
        },
        {
          "internalType": "uint256",
          "name": "amount",
          "type": "uint256"
        }
      ],
      "name": "payUser",
      "outputs": [],
      "stateMutability": "payable",
      "type": "function",
      "payable": true
    }
  ],
  "bytecode": "0x60806040523480156200001157600080fd5b50600060019054906101000a900460ff166200003c5760008054906101000a900460ff16156200004d565b6200004c6200010960201b60201c565b5b6200008f576040517f08c379a0000000000000000000000000000000000000000000000000000000008152600401620000869062000171565b60405180910390fd5b60008060019054906101000a900460ff161590508015620000e0576001600060016101000a81548160ff02191690831515021790555060016000806101000a81548160ff0219169083151502179055505b8015620001025760008060016101000a81548160ff0219169083151502179055505b50620001f3565b600062000121306200012760201b62001bee1760201c565b15905090565b6000808273ffffffffffffffffffffffffffffffffffffffff163b119050919050565b600062000159602e8362000193565b91506200016682620001a4565b604082019050919050565b600060208201905081810360008301526200018c816200014a565b9050919050565b600082825260208201905092915050565b7f496e697469616c697a61626c653a20636f6e747261637420697320616c72656160008201527f647920696e697469616c697a6564000000000000000000000000000000000000602082015250565b615b0280620002036000396000f3fe6080604052600436106102255760003560e01c80637ecebe0011610123578063981b24d0116100ab578063d505accf1161006f578063d505accf14610825578063dd62ed3e1461084e578063ec700c731461088b578063f1127ed8146108a7578063f2fde38b146108e457610225565b8063981b24d0146107085780639ab24eb014610745578063a457c2d714610782578063a9059cbb146107bf578063c3cda520146107fc57610225565b80638bf2455b116100f25780638bf2455b146106425780638da5cb5b1461065e5780638e539e8c1461068957806395d89b41146106c65780639711715a146106f157610225565b80637ecebe00146105bb5780638129fc1c146105f85780638166b86f1461060f5780638456cb591461062b57610225565b806340c10f19116101b15780635c975abb116101755780635c975abb146104d65780636fcfff451461050157806370a082311461053e578063715018a61461057b57806379cc67901461059257610225565b806340c10f19146103e157806342966c681461040a5780634ee2cd7e14610433578063587cde1e146104705780635c19a95c146104ad57610225565b8063313ce567116101f8578063313ce567146102fa5780633644e5151461032557806339509351146103505780633a46b1a81461038d5780633f4ba83a146103ca57610225565b806306fdde031461022a578063095ea7b31461025557806318160ddd1461029257806323b872dd146102bd575b600080fd5b34801561023657600080fd5b5061023f61090d565b60405161024c9190614a2d565b60405180910390f35b34801561026157600080fd5b5061027c60048036038101906102779190614209565b61099f565b60405161028991906148b9565b60405180910390f35b34801561029e57600080fd5b506102a76109c2565b6040516102b49190614e2a565b60405180910390f35b3480156102c957600080fd5b506102e460048036038101906102df919061411c565b6109cc565b6040516102f191906148b9565b60405180910390f35b34801561030657600080fd5b5061030f6109fb565b60405161031c9190614e89565b60405180910390f35b34801561033157600080fd5b5061033a610a04565b60405161034791906148d4565b60405180910390f35b34801561035c57600080fd5b5061037760048036038101906103729190614209565b610a13565b60405161038491906148b9565b60405180910390f35b34801561039957600080fd5b506103b460048036038101906103af9190614209565b610abd565b6040516103c19190614e2a565b60405180910390f35b3480156103d657600080fd5b506103df610b52565b005b3480156103ed57600080fd5b5061040860048036038101906104039190614209565b610bd8565b005b34801561041657600080fd5b50610431600480360381019061042c919061430a565b610c62565b005b34801561043f57600080fd5b5061045a60048036038101906104559190614209565b610c76565b6040516104679190614e2a565b60405180910390f35b34801561047c57600080fd5b50610497600480360381019061049291906140b7565b610ce6565b6040516104a4919061489e565b60405180910390f35b3480156104b957600080fd5b506104d460048036038101906104cf91906140b7565b610d50565b005b3480156104e257600080fd5b506104eb610d64565b6040516104f891906148b9565b60405180910390f35b34801561050d57600080fd5b50610528600480360381019061052391906140b7565b610d7b565b6040516105359190614e6e565b60405180910390f35b34801561054a57600080fd5b50610565600480360381019061056091906140b7565b610dd0565b6040516105729190614e2a565b60405180910390f35b34801561058757600080fd5b50610590610e19565b005b34801561059e57600080fd5b506105b960048036038101906105b49190614209565b610ea1565b005b3480156105c757600080fd5b506105e260048036038101906105dd91906140b7565b610ec1565b6040516105ef9190614e2a565b60405180910390f35b34801561060457600080fd5b5061060d610f12565b005b6106296004803603810190610624919061411c565b6110f5565b005b34801561063757600080fd5b50610640611176565b005b61065c6004803603810190610657919061411c565b6111fc565b005b34801561066a57600080fd5b5061067361127d565b604051610680919061489e565b60405180910390f35b34801561069557600080fd5b506106b060048036038101906106ab919061430a565b6112a7565b6040516106bd9190614e2a565b60405180910390f35b3480156106d257600080fd5b506106db6112fe565b6040516106e89190614a2d565b60405180910390f35b3480156106fd57600080fd5b50610706611390565b005b34801561071457600080fd5b5061072f600480360381019061072a919061430a565b611417565b60405161073c9190614e2a565b60405180910390f35b34801561075157600080fd5b5061076c600480360381019061076791906140b7565b611448565b6040516107799190614e2a565b60405180910390f35b34801561078e57600080fd5b506107a960048036038101906107a49190614209565b611581565b6040516107b691906148b9565b60405180910390f35b3480156107cb57600080fd5b506107e660048036038101906107e19190614209565b61166b565b6040516107f391906148b9565b60405180910390f35b34801561080857600080fd5b50610823600480360381019061081e9190614245565b61168e565b005b34801561083157600080fd5b5061084c6004803603810190610847919061416b565b611792565b005b34801561085a57600080fd5b50610875600480360381019061087091906140e0565b6118b7565b6040516108829190614e2a565b60405180910390f35b6108a560048036038101906108a0919061411c565b61193e565b005b3480156108b357600080fd5b506108ce60048036038101906108c991906142ce565b6119bf565b6040516108db9190614e0f565b60405180910390f35b3480156108f057600080fd5b5061090b600480360381019061090691906140b7565b611af6565b005b60606036805461091c9061521b565b80601f01602080910402602001604051908101604052809291908181526020018280546109489061521b565b80156109955780601f1061096a57610100808354040283529160200191610995565b820191906000526020600020905b81548152906001019060200180831161097857829003601f168201915b5050505050905090565b6000806109aa611c11565b90506109b7818585611c19565b600191505092915050565b6000603554905090565b6000806109d7611c11565b90506109e4858285611de4565b6109ef858585611e70565b60019150509392505050565b60006012905090565b6000610a0e6120f4565b905090565b600080610a1e611c11565b9050610ab2818585603460008673ffffffffffffffffffffffffffffffffffffffff1673ffffffffffffffffffffffffffffffffffffffff16815260200190815260200160002060008973ffffffffffffffffffffffffffffffffffffffff1673ffffffffffffffffffffffffffffffffffffffff16815260200190815260200160002054610aad9190614ecb565b611c19565b600191505092915050565b6000438210610b01576040517f08c379a0000000000000000000000000000000000000000000000000000000008152600401610af890614aaf565b60405180910390fd5b610b4a61019560008573ffffffffffffffffffffffffffffffffffffffff1673ffffffffffffffffffffffffffffffffffffffff16815260200190815260200160002083612134565b905092915050565b610b5a611c11565b73ffffffffffffffffffffffffffffffffffffffff16610b7861127d565b73ffffffffffffffffffffffffffffffffffffffff1614610bce576040517f08c379a0000000000000000000000000000000000000000000000000000000008152600401610bc590614ccf565b60405180910390fd5b610bd661228c565b565b610be0611c11565b73ffffffffffffffffffffffffffffffffffffffff16610bfe61127d565b73ffffffffffffffffffffffffffffffffffffffff1614610c54576040517f08c379a0000000000000000000000000000000000000000000000000000000008152600401610c4b90614ccf565b60405180910390fd5b610c5e828261232e565b5050565b610c73610c6d611c11565b8261233c565b50565b6000806000610cc384609760008873ffffffffffffffffffffffffffffffffffffffff1673ffffffffffffffffffffffffffffffffffffffff16815260200190815260200160002061234a565b9150915081610cda57610cd585610dd0565b610cdc565b805b9250505092915050565b600061019460008373ffffffffffffffffffffffffffffffffffffffff1673ffffffffffffffffffffffffffffffffffffffff16815260200190815260200160002060009054906101000a900473ffffffffffffffffffffffffffffffffffffffff169050919050565b610d61610d5b611c11565b82612466565b50565b600060fb60009054906101000a900460ff16905090565b6000610dc961019560008473ffffffffffffffffffffffffffffffffffffffff1673ffffffffffffffffffffffffffffffffffffffff16815260200190815260200160002080549050612581565b9050919050565b6000603360008373ffffffffffffffffffffffffffffffffffffffff1673ffffffffffffffffffffffffffffffffffffffff168152602001908152602001600020549050919050565b610e21611c11565b73ffffffffffffffffffffffffffffffffffffffff16610e3f61127d565b73ffffffffffffffffffffffffffffffffffffffff1614610e95576040517f08c379a0000000000000000000000000000000000000000000000000000000008152600401610e8c90614ccf565b60405180910390fd5b610e9f60006125d4565b565b610eb382610ead611c11565b83611de4565b610ebd828261233c565b5050565b6000610f0b61016160008473ffffffffffffffffffffffffffffffffffffffff1673ffffffffffffffffffffffffffffffffffffffff16815260200190815260200160002061269a565b9050919050565b600060019054906101000a900460ff16610f3a5760008054906101000a900460ff1615610f43565b610f426126a8565b5b610f82576040517f08c379a0000000000000000000000000000000000000000000000000000000008152600401610f7990614c4f565b60405180910390fd5b60008060019054906101000a900460ff161590508015610fd2576001600060016101000a81548160ff02191690831515021790555060016000806101000a81548160ff0219169083151502179055505b6110466040518060400160405280600a81526020017f4c65617020546f6b656e000000000000000000000000000000000000000000008152506040518060400160405280600481526020017f4c334150000000000000000000000000000000000000000000000000000000008152506126b9565b61104e612716565b611056612767565b61105e6127b8565b611066612811565b6110a46040518060400160405280600481526020017f4c3341500000000000000000000000000000000000000000000000000000000081525061286a565b6110d1336110b06109fb565b600a6110bc9190614fa5565b6461c9f368006110cc91906150c3565b61232e565b80156110f25760008060016101000a81548160ff0219169083151502179055505b50565b6110fd611c11565b73ffffffffffffffffffffffffffffffffffffffff1661111b61127d565b73ffffffffffffffffffffffffffffffffffffffff1614611171576040517f08c379a000000000000000000000000000000000000000000000000000000000815260040161116890614ccf565b60405180910390fd5b505050565b61117e611c11565b73ffffffffffffffffffffffffffffffffffffffff1661119c61127d565b73ffffffffffffffffffffffffffffffffffffffff16146111f2576040517f08c379a00000000000000000000000000000000000000000000000000000000081526004016111e990614ccf565b60405180910390fd5b6111fa612904565b565b611204611c11565b73ffffffffffffffffffffffffffffffffffffffff1661122261127d565b73ffffffffffffffffffffffffffffffffffffffff1614611278576040517f08c379a000000000000000000000000000000000000000000000000000000000815260040161126f90614ccf565b60405180910390fd5b505050565b600060c960009054906101000a900473ffffffffffffffffffffffffffffffffffffffff16905090565b60004382106112eb576040517f08c379a00000000000000000000000000000000000000000000000000000000081526004016112e290614aaf565b60405180910390fd5b6112f761019683612134565b9050919050565b60606037805461130d9061521b565b80601f01602080910402602001604051908101604052809291908181526020018280546113399061521b565b80156113865780601f1061135b57610100808354040283529160200191611386565b820191906000526020600020905b81548152906001019060200180831161136957829003601f168201915b5050505050905090565b611398611c11565b73ffffffffffffffffffffffffffffffffffffffff166113b661127d565b73ffffffffffffffffffffffffffffffffffffffff161461140c576040517f08c379a000000000000000000000000000000000000000000000000000000000815260040161140390614ccf565b60405180910390fd5b6114146129a7565b50565b600080600061142784609861234a565b915091508161143d576114386109c2565b61143f565b805b92505050919050565b60008061019560008473ffffffffffffffffffffffffffffffffffffffff1673ffffffffffffffffffffffffffffffffffffffff168152602001908152602001600020805490509050600081146115585761019560008473ffffffffffffffffffffffffffffffffffffffff1673ffffffffffffffffffffffffffffffffffffffff1681526020019081526020016000206001826114e6919061511d565b8154811061151d577f4e487b7100000000000000000000000000000000000000000000000000000000600052603260045260246000fd5b9060005260206000200160000160049054906101000a90047bffffffffffffffffffffffffffffffffffffffffffffffffffffffff1661155b565b60005b7bffffffffffffffffffffffffffffffffffffffffffffffffffffffff16915050919050565b60008061158c611c11565b90506000603460008373ffffffffffffffffffffffffffffffffffffffff1673ffffffffffffffffffffffffffffffffffffffff16815260200190815260200160002060008673ffffffffffffffffffffffffffffffffffffffff1673ffffffffffffffffffffffffffffffffffffffff16815260200190815260200160002054905083811015611652576040517f08c379a000000000000000000000000000000000000000000000000000000000815260040161164990614dcf565b60405180910390fd5b61165f8286868403611c19565b60019250505092915050565b600080611676611c11565b9050611683818585611e70565b600191505092915050565b834211156116d1576040517f08c379a00000000000000000000000000000000000000000000000000000000081526004016116c890614aef565b60405180910390fd5b600061173361172b7fe48329057bfd03d55e49b547132e39cffd9c1820ad7b9d4c5307691425d15adf8989896040516020016117109493929190614950565b604051602081830303815290604052805190602001206129fd565b858585612a17565b905061173e81612a42565b861461177f576040517f08c379a000000000000000000000000000000000000000000000000000000000815260040161177690614b4f565b60405180910390fd5b6117898188612466565b50505050505050565b834211156117d5576040517f08c379a00000000000000000000000000000000000000000000000000000000081526004016117cc90614bcf565b60405180910390fd5b6000610162548888886117e78c612a42565b896040516020016117fd969594939291906148ef565b6040516020818303038152906040528051906020012090506000611820826129fd565b9050600061183082878787612a17565b90508973ffffffffffffffffffffffffffffffffffffffff168173ffffffffffffffffffffffffffffffffffffffff16146118a0576040517f08c379a000000000000000000000000000000000000000000000000000000000815260040161189790614c8f565b60405180910390fd5b6118ab8a8a8a611c19565b50505050505050505050565b6000603460008473ffffffffffffffffffffffffffffffffffffffff1673ffffffffffffffffffffffffffffffffffffffff16815260200190815260200160002060008373ffffffffffffffffffffffffffffffffffffffff1673ffffffffffffffffffffffffffffffffffffffff16815260200190815260200160002054905092915050565b611946611c11565b73ffffffffffffffffffffffffffffffffffffffff1661196461127d565b73ffffffffffffffffffffffffffffffffffffffff16146119ba576040517f08c379a00000000000000000000000000000000000000000000000000000000081526004016119b190614ccf565b60405180910390fd5b505050565b6119c7613f6d565b61019560008473ffffffffffffffffffffffffffffffffffffffff1673ffffffffffffffffffffffffffffffffffffffff1681526020019081526020016000208263ffffffff1681548110611a45577f4e487b7100000000000000000000000000000000000000000000000000000000600052603260045260246000fd5b906000526020600020016040518060400160405290816000820160009054906101000a900463ffffffff1663ffffffff1663ffffffff1681526020016000820160049054906101000a90047bffffffffffffffffffffffffffffffffffffffffffffffffffffffff167bffffffffffffffffffffffffffffffffffffffffffffffffffffffff167bffffffffffffffffffffffffffffffffffffffffffffffffffffffff1681525050905092915050565b611afe611c11565b73ffffffffffffffffffffffffffffffffffffffff16611b1c61127d565b73ffffffffffffffffffffffffffffffffffffffff1614611b72576040517f08c379a0000000000000000000000000000000000000000000000000000000008152600401611b6990614ccf565b60405180910390fd5b600073ffffffffffffffffffffffffffffffffffffffff168173ffffffffffffffffffffffffffffffffffffffff161415611be2576040517f08c379a0000000000000000000000000000000000000000000000000000000008152600401611bd990614b6f565b60405180910390fd5b611beb816125d4565b50565b6000808273ffffffffffffffffffffffffffffffffffffffff163b119050919050565b600033905090565b600073ffffffffffffffffffffffffffffffffffffffff168373ffffffffffffffffffffffffffffffffffffffff161415611c89576040517f08c379a0000000000000000000000000000000000000000000000000000000008152600401611c8090614d6f565b60405180910390fd5b600073ffffffffffffffffffffffffffffffffffffffff168273ffffffffffffffffffffffffffffffffffffffff161415611cf9576040517f08c379a0000000000000000000000000000000000000000000000000000000008152600401611cf090614b8f565b60405180910390fd5b80603460008573ffffffffffffffffffffffffffffffffffffffff1673ffffffffffffffffffffffffffffffffffffffff16815260200190815260200160002060008473ffffffffffffffffffffffffffffffffffffffff1673ffffffffffffffffffffffffffffffffffffffff168152602001908152602001600020819055508173ffffffffffffffffffffffffffffffffffffffff168373ffffffffffffffffffffffffffffffffffffffff167f8c5be1e5ebec7d5bd14f71427d1e84f3dd0314c0f7b2291e5b200ac8c7c3b92583604051611dd79190614e2a565b60405180910390a3505050565b6000611df084846118b7565b90507fffffffffffffffffffffffffffffffffffffffffffffffffffffffffffffffff8114611e6a5781811015611e5c576040517f08c379a0000000000000000000000000000000000000000000000000000000008152600401611e5390614baf565b60405180910390fd5b611e698484848403611c19565b5b50505050565b600073ffffffffffffffffffffffffffffffffffffffff168373ffffffffffffffffffffffffffffffffffffffff161415611ee0576040517f08c379a0000000000000000000000000000000000000000000000000000000008152600401611ed790614d2f565b60405180910390fd5b600073ffffffffffffffffffffffffffffffffffffffff168273ffffffffffffffffffffffffffffffffffffffff161415611f50576040517f08c379a0000000000000000000000000000000000000000000000000000000008152600401611f4790614a8f565b60405180910390fd5b611f5b838383612aa1565b6000603360008573ffffffffffffffffffffffffffffffffffffffff1673ffffffffffffffffffffffffffffffffffffffff16815260200190815260200160002054905081811015611fe2576040517f08c379a0000000000000000000000000000000000000000000000000000000008152600401611fd990614bef565b60405180910390fd5b818103603360008673ffffffffffffffffffffffffffffffffffffffff1673ffffffffffffffffffffffffffffffffffffffff1681526020019081526020016000208190555081603360008573ffffffffffffffffffffffffffffffffffffffff1673ffffffffffffffffffffffffffffffffffffffff16815260200190815260200160002060008282546120779190614ecb565b925050819055508273ffffffffffffffffffffffffffffffffffffffff168473ffffffffffffffffffffffffffffffffffffffff167fddf252ad1be2c89b69c2b068fc378daa952ba7f163c4a11628f55a4df523b3ef846040516120db9190614e2a565b60405180910390a36120ee848484612af9565b50505050565b600061212f7f8b73c3c69bb8fe3d512ecc4cf759cc79239f7b179b0ffacaa9a75d522b39400f612122612b09565b61212a612b14565b612b1f565b905090565b6000808380549050905060005b818110156121d95760006121558284612b59565b905084868281548110612191577f4e487b7100000000000000000000000000000000000000000000000000000000600052603260045260246000fd5b9060005260206000200160000160009054906101000a900463ffffffff1663ffffffff1611156121c3578092506121d3565b6001816121d09190614ecb565b91505b50612141565b6000821461226157846001836121ef919061511d565b81548110612226577f4e487b7100000000000000000000000000000000000000000000000000000000600052603260045260246000fd5b9060005260206000200160000160049054906101000a90047bffffffffffffffffffffffffffffffffffffffffffffffffffffffff16612264565b60005b7bffffffffffffffffffffffffffffffffffffffffffffffffffffffff169250505092915050565b612294610d64565b6122d3576040517f08c379a00000000000000000000000000000000000000000000000000000000081526004016122ca90614acf565b60405180910390fd5b600060fb60006101000a81548160ff0219169083151502179055507f5db9ee0a495bf2e6ff9c91a7834c1ba4fdd244a5e8aa4e537bd38aeae4b073aa612317611c11565b604051612324919061489e565b60405180910390a1565b6123388282612b7f565b5050565b6123468282612c0d565b5050565b60008060008411612390576040517f08c379a000000000000000000000000000000000000000000000000000000000815260040161238790614daf565b60405180910390fd5b612398612c2c565b8411156123da576040517f08c379a00000000000000000000000000000000000000000000000000000000081526004016123d190614a6f565b60405180910390fd5b60006123f28585600001612c3d90919063ffffffff16565b9050836000018054905081141561241057600080925092505061245f565b600184600101828154811061244e577f4e487b7100000000000000000000000000000000000000000000000000000000600052603260045260246000fd5b906000526020600020015492509250505b9250929050565b600061247183610ce6565b9050600061247e84610dd0565b90508261019460008673ffffffffffffffffffffffffffffffffffffffff1673ffffffffffffffffffffffffffffffffffffffff16815260200190815260200160002060006101000a81548173ffffffffffffffffffffffffffffffffffffffff021916908373ffffffffffffffffffffffffffffffffffffffff1602179055508273ffffffffffffffffffffffffffffffffffffffff168273ffffffffffffffffffffffffffffffffffffffff168573ffffffffffffffffffffffffffffffffffffffff167f3134e8a2e6d97e929a7e54011ea5485d7d196dd5f0ba4d4ef95803e8e3fc257f60405160405180910390a461257b828483612d63565b50505050565b600063ffffffff80168211156125cc576040517f08c379a00000000000000000000000000000000000000000000000000000000081526004016125c390614d4f565b60405180910390fd5b819050919050565b600060c960009054906101000a900473ffffffffffffffffffffffffffffffffffffffff1690508160c960006101000a81548173ffffffffffffffffffffffffffffffffffffffff021916908373ffffffffffffffffffffffffffffffffffffffff1602179055508173ffffffffffffffffffffffffffffffffffffffff168173ffffffffffffffffffffffffffffffffffffffff167f8be0079c531659141344cd1fd0a4f28419497f9722a3daafe3b4186f6b6457e060405160405180910390a35050565b600081600001549050919050565b60006126b330611bee565b15905090565b600060019054906101000a900460ff16612708576040517f08c379a00000000000000000000000000000000000000000000000000000000081526004016126ff90614d8f565b60405180910390fd5b6127128282612f5e565b5050565b600060019054906101000a900460ff16612765576040517f08c379a000000000000000000000000000000000000000000000000000000000815260040161275c90614d8f565b60405180910390fd5b565b600060019054906101000a900460ff166127b6576040517f08c379a00000000000000000000000000000000000000000000000000000000081526004016127ad90614d8f565b60405180910390fd5b565b600060019054906101000a900460ff16612807576040517f08c379a00000000000000000000000000000000000000000000000000000000081526004016127fe90614d8f565b60405180910390fd5b61280f612fdf565b565b600060019054906101000a900460ff16612860576040517f08c379a000000000000000000000000000000000000000000000000000000000815260040161285790614d8f565b60405180910390fd5b612868613040565b565b600060019054906101000a900460ff166128b9576040517f08c379a00000000000000000000000000000000000000000000000000000000081526004016128b090614d8f565b60405180910390fd5b6128f8816040518060400160405280600181526020017f31000000000000000000000000000000000000000000000000000000000000008152506130ac565b61290181613129565b50565b61290c610d64565b1561294c576040517f08c379a000000000000000000000000000000000000000000000000000000000815260040161294390614c2f565b60405180910390fd5b600160fb60006101000a81548160ff0219169083151502179055507f62e78cea01bee320cd4e420270b5ea74000d11b0c9f74754ebdbfc544b05a258612990611c11565b60405161299d919061489e565b60405180910390a1565b60006129b3609a6131a3565b60006129bd612c2c565b90507f8030e83b04d87bef53480e26263266d6ca66863aa8506aca6f2559d18aa1cb67816040516129ee9190614e2a565b60405180910390a18091505090565b6000612a10612a0a6120f4565b836131b9565b9050919050565b6000806000612a28878787876131ec565b91509150612a35816132f9565b8192505050949350505050565b60008061016160008473ffffffffffffffffffffffffffffffffffffffff1673ffffffffffffffffffffffffffffffffffffffff1681526020019081526020016000209050612a908161269a565b9150612a9b816131a3565b50919050565b612aa9610d64565b15612ae9576040517f08c379a0000000000000000000000000000000000000000000000000000000008152600401612ae090614c2f565b60405180910390fd5b612af483838361364a565b505050565b612b04838383613704565b505050565b600061012d54905090565b600061012e54905090565b60008383834630604051602001612b3a959493929190614995565b6040516020818303038152906040528051906020012090509392505050565b60006002828418612b6a9190614f21565b828416612b779190614ecb565b905092915050565b612b89828261372f565b612b91613890565b7bffffffffffffffffffffffffffffffffffffffffffffffffffffffff16612bb76109c2565b1115612bf8576040517f08c379a0000000000000000000000000000000000000000000000000000000008152600401612bef90614caf565b60405180910390fd5b612c076101966138b4836138ca565b50505050565b612c178282613bb4565b612c26610196613d8d836138ca565b50505050565b6000612c38609a61269a565b905090565b60008083805490501415612c545760009050612d5d565b600080848054905090505b80821015612cde576000612c738383612b59565b905084868281548110612caf577f4e487b7100000000000000000000000000000000000000000000000000000000600052603260045260246000fd5b90600052602060002001541115612cc857809150612cd8565b600181612cd59190614ecb565b92505b50612c5f565b600082118015612d3c57508385600184612cf8919061511d565b81548110612d2f577f4e487b7100000000000000000000000000000000000000000000000000000000600052603260045260246000fd5b9060005260206000200154145b15612d5757600182612d4e919061511d565b92505050612d5d565b81925050505b92915050565b8173ffffffffffffffffffffffffffffffffffffffff168373ffffffffffffffffffffffffffffffffffffffff1614158015612d9f5750600081115b15612f5957600073ffffffffffffffffffffffffffffffffffffffff168373ffffffffffffffffffffffffffffffffffffffff1614612e7e57600080612e2761019560008773ffffffffffffffffffffffffffffffffffffffff1673ffffffffffffffffffffffffffffffffffffffff168152602001908152602001600020613d8d856138ca565b915091508473ffffffffffffffffffffffffffffffffffffffff167fdec2bacdd2f05b59de34da9b523dff8be42e5e38e818c82fdb0bae774387a7248383604051612e73929190614e45565b60405180910390a250505b600073ffffffffffffffffffffffffffffffffffffffff168273ffffffffffffffffffffffffffffffffffffffff1614612f5857600080612f0161019560008673ffffffffffffffffffffffffffffffffffffffff1673ffffffffffffffffffffffffffffffffffffffff1681526020019081526020016000206138b4856138ca565b915091508373ffffffffffffffffffffffffffffffffffffffff167fdec2bacdd2f05b59de34da9b523dff8be42e5e38e818c82fdb0bae774387a7248383604051612f4d929190614e45565b60405180910390a250505b5b505050565b600060019054906101000a900460ff16612fad576040517f08c379a0000000000000000000000000000000000000000000000000000000008152600401612fa490614d8f565b60405180910390fd5b8160369080519060200190612fc3929190613fab565b508060379080519060200190612fda929190613fab565b505050565b600060019054906101000a900460ff1661302e576040517f08c379a000000000000000000000000000000000000000000000000000000000815260040161302590614d8f565b60405180910390fd5b61303e613039611c11565b6125d4565b565b600060019054906101000a900460ff1661308f576040517f08c379a000000000000000000000000000000000000000000000000000000000815260040161308690614d8f565b60405180910390fd5b600060fb60006101000a81548160ff021916908315150217905550565b600060019054906101000a900460ff166130fb576040517f08c379a00000000000000000000000000000000000000000000000000000000081526004016130f290614d8f565b60405180910390fd5b6000828051906020012090506000828051906020012090508161012d819055508061012e8190555050505050565b600060019054906101000a900460ff16613178576040517f08c379a000000000000000000000000000000000000000000000000000000000815260040161316f90614d8f565b60405180910390fd5b7f6e71edae12b1b97f4d1f60370fef10105fa2faae0126114a169c64845d6126c96101628190555050565b6001816000016000828254019250508190555050565b600082826040516020016131ce929190614867565b60405160208183030381529060405280519060200120905092915050565b6000807f7fffffffffffffffffffffffffffffff5d576e7357a4501ddfe92f46681b20a08360001c11156132275760006003915091506132f0565b601b8560ff161415801561323f5750601c8560ff1614155b156132515760006004915091506132f0565b60006001878787876040516000815260200160405260405161327694939291906149e8565b6020604051602081039080840390855afa158015613298573d6000803e3d6000fd5b505050602060405103519050600073ffffffffffffffffffffffffffffffffffffffff168173ffffffffffffffffffffffffffffffffffffffff1614156132e7576000600192509250506132f0565b80600092509250505b94509492505050565b60006004811115613333577f4e487b7100000000000000000000000000000000000000000000000000000000600052602160045260246000fd5b81600481111561336c577f4e487b7100000000000000000000000000000000000000000000000000000000600052602160045260246000fd5b141561337757613647565b600160048111156133b1577f4e487b7100000000000000000000000000000000000000000000000000000000600052602160045260246000fd5b8160048111156133ea577f4e487b7100000000000000000000000000000000000000000000000000000000600052602160045260246000fd5b141561342b576040517f08c379a000000000000000000000000000000000000000000000000000000000815260040161342290614a4f565b60405180910390fd5b60026004811115613465577f4e487b7100000000000000000000000000000000000000000000000000000000600052602160045260246000fd5b81600481111561349e577f4e487b7100000000000000000000000000000000000000000000000000000000600052602160045260246000fd5b14156134df576040517f08c379a00000000000000000000000000000000000000000000000000000000081526004016134d690614b2f565b60405180910390fd5b60036004811115613519577f4e487b7100000000000000000000000000000000000000000000000000000000600052602160045260246000fd5b816004811115613552577f4e487b7100000000000000000000000000000000000000000000000000000000600052602160045260246000fd5b1415613593576040517f08c379a000000000000000000000000000000000000000000000000000000000815260040161358a90614c0f565b60405180910390fd5b6004808111156135cc577f4e487b7100000000000000000000000000000000000000000000000000000000600052602160045260246000fd5b816004811115613605577f4e487b7100000000000000000000000000000000000000000000000000000000600052602160045260246000fd5b1415613646576040517f08c379a000000000000000000000000000000000000000000000000000000000815260040161363d90614c6f565b60405180910390fd5b5b50565b613655838383613da3565b600073ffffffffffffffffffffffffffffffffffffffff168373ffffffffffffffffffffffffffffffffffffffff1614156136a05761369382613da8565b61369b613dfb565b6136ff565b600073ffffffffffffffffffffffffffffffffffffffff168273ffffffffffffffffffffffffffffffffffffffff1614156136eb576136de83613da8565b6136e6613dfb565b6136fe565b6136f483613da8565b6136fd82613da8565b5b5b505050565b61370f838383613e0f565b61372a61371b84610ce6565b61372484610ce6565b83612d63565b505050565b600073ffffffffffffffffffffffffffffffffffffffff168273ffffffffffffffffffffffffffffffffffffffff16141561379f576040517f08c379a000000000000000000000000000000000000000000000000000000000815260040161379690614def565b60405180910390fd5b6137ab60008383612aa1565b80603560008282546137bd9190614ecb565b9250508190555080603360008473ffffffffffffffffffffffffffffffffffffffff1673ffffffffffffffffffffffffffffffffffffffff16815260200190815260200160002060008282546138139190614ecb565b925050819055508173ffffffffffffffffffffffffffffffffffffffff16600073ffffffffffffffffffffffffffffffffffffffff167fddf252ad1be2c89b69c2b068fc378daa952ba7f163c4a11628f55a4df523b3ef836040516138789190614e2a565b60405180910390a361388c60008383612af9565b5050565b60007bffffffffffffffffffffffffffffffffffffffffffffffffffffffff905090565b600081836138c29190614ecb565b905092915050565b6000806000858054905090506000811461395e57856001826138ec919061511d565b81548110613923577f4e487b7100000000000000000000000000000000000000000000000000000000600052603260045260246000fd5b9060005260206000200160000160049054906101000a90047bffffffffffffffffffffffffffffffffffffffffffffffffffffffff16613961565b60005b7bffffffffffffffffffffffffffffffffffffffffffffffffffffffff16925061398f83858763ffffffff16565b9150600081118015613a08575043866001836139ab919061511d565b815481106139e2577f4e487b7100000000000000000000000000000000000000000000000000000000600052603260045260246000fd5b9060005260206000200160000160009054906101000a900463ffffffff1663ffffffff16145b15613abb57613a1682613e14565b86600183613a24919061511d565b81548110613a5b577f4e487b7100000000000000000000000000000000000000000000000000000000600052603260045260246000fd5b9060005260206000200160000160046101000a8154817bffffffffffffffffffffffffffffffffffffffffffffffffffffffff02191690837bffffffffffffffffffffffffffffffffffffffffffffffffffffffff160217905550613bab565b856040518060400160405280613ad043612581565b63ffffffff168152602001613ae485613e14565b7bffffffffffffffffffffffffffffffffffffffffffffffffffffffff168152509080600181540180825580915050600190039060005260206000200160009091909190915060008201518160000160006101000a81548163ffffffff021916908363ffffffff16021790555060208201518160000160046101000a8154817bffffffffffffffffffffffffffffffffffffffffffffffffffffffff02191690837bffffffffffffffffffffffffffffffffffffffffffffffffffffffff16021790555050505b50935093915050565b600073ffffffffffffffffffffffffffffffffffffffff168273ffffffffffffffffffffffffffffffffffffffff161415613c24576040517f08c379a0000000000000000000000000000000000000000000000000000000008152600401613c1b90614d0f565b60405180910390fd5b613c3082600083612aa1565b6000603360008473ffffffffffffffffffffffffffffffffffffffff1673ffffffffffffffffffffffffffffffffffffffff16815260200190815260200160002054905081811015613cb7576040517f08c379a0000000000000000000000000000000000000000000000000000000008152600401613cae90614b0f565b60405180910390fd5b818103603360008573ffffffffffffffffffffffffffffffffffffffff1673ffffffffffffffffffffffffffffffffffffffff168152602001908152602001600020819055508160356000828254613d0f919061511d565b92505081905550600073ffffffffffffffffffffffffffffffffffffffff168373ffffffffffffffffffffffffffffffffffffffff167fddf252ad1be2c89b69c2b068fc378daa952ba7f163c4a11628f55a4df523b3ef84604051613d749190614e2a565b60405180910390a3613d8883600084612af9565b505050565b60008183613d9b919061511d565b905092915050565b505050565b613df8609760008373ffffffffffffffffffffffffffffffffffffffff1673ffffffffffffffffffffffffffffffffffffffff168152602001908152602001600020613df383610dd0565b613e7f565b50565b613e0d6098613e086109c2565b613e7f565b565b505050565b60007bffffffffffffffffffffffffffffffffffffffffffffffffffffffff8016821115613e77576040517f08c379a0000000000000000000000000000000000000000000000000000000008152600401613e6e90614cef565b60405180910390fd5b819050919050565b6000613e89612c2c565b905080613e9884600001613efa565b1015613ef55782600001819080600181540180825580915050600190039060005260206000200160009091909190915055826001018290806001815401808255809150506001900390600052602060002001600090919091909150555b505050565b60008082805490501415613f115760009050613f68565b8160018380549050613f23919061511d565b81548110613f5a577f4e487b7100000000000000000000000000000000000000000000000000000000600052603260045260246000fd5b906000526020600020015490505b919050565b6040518060400160405280600063ffffffff16815260200160007bffffffffffffffffffffffffffffffffffffffffffffffffffffffff1681525090565b828054613fb79061521b565b90600052602060002090601f016020900481019282613fd95760008555614020565b82601f10613ff257805160ff1916838001178555614020565b82800160010185558215614020579182015b8281111561401f578251825591602001919060010190614004565b5b50905061402d9190614031565b5090565b5b8082111561404a576000816000905550600101614032565b5090565b60008135905061405d81615a59565b92915050565b60008135905061407281615a70565b92915050565b60008135905061408781615a87565b92915050565b60008135905061409c81615a9e565b92915050565b6000813590506140b181615ab5565b92915050565b6000602082840312156140c957600080fd5b60006140d78482850161404e565b91505092915050565b600080604083850312156140f357600080fd5b60006141018582860161404e565b92505060206141128582860161404e565b9150509250929050565b60008060006060848603121561413157600080fd5b600061413f8682870161404e565b93505060206141508682870161404e565b925050604061416186828701614078565b9150509250925092565b600080600080600080600060e0888a03121561418657600080fd5b60006141948a828b0161404e565b97505060206141a58a828b0161404e565b96505060406141b68a828b01614078565b95505060606141c78a828b01614078565b94505060806141d88a828b016140a2565b93505060a06141e98a828b01614063565b92505060c06141fa8a828b01614063565b91505092959891949750929550565b6000806040838503121561421c57600080fd5b600061422a8582860161404e565b925050602061423b85828601614078565b9150509250929050565b60008060008060008060c0878903121561425e57600080fd5b600061426c89828a0161404e565b965050602061427d89828a01614078565b955050604061428e89828a01614078565b945050606061429f89828a016140a2565b93505060806142b089828a01614063565b92505060a06142c189828a01614063565b9150509295509295509295565b600080604083850312156142e157600080fd5b60006142ef8582860161404e565b92505060206143008582860161408d565b9150509250929050565b60006020828403121561431c57600080fd5b600061432a84828501614078565b91505092915050565b61433c81615151565b82525050565b61434b81615163565b82525050565b61435a8161516f565b82525050565b61437161436c8261516f565b61524d565b82525050565b600061438282614ea4565b61438c8185614eaf565b935061439c8185602086016151e8565b6143a5816152e4565b840191505092915050565b60006143bd601883614eaf565b91506143c882615302565b602082019050919050565b60006143e0601d83614eaf565b91506143eb8261532b565b602082019050919050565b6000614403602383614eaf565b915061440e82615354565b604082019050919050565b6000614426601f83614eaf565b9150614431826153a3565b602082019050919050565b6000614449601483614eaf565b9150614454826153cc565b602082019050919050565b600061446c601d83614eaf565b9150614477826153f5565b602082019050919050565b600061448f602283614eaf565b915061449a8261541e565b604082019050919050565b60006144b2601f83614eaf565b91506144bd8261546d565b602082019050919050565b60006144d5601983614eaf565b91506144e082615496565b602082019050919050565b60006144f8602683614eaf565b9150614503826154bf565b604082019050919050565b600061451b602283614eaf565b91506145268261550e565b604082019050919050565b600061453e600283614ec0565b91506145498261555d565b600282019050919050565b6000614561601d83614eaf565b915061456c82615586565b602082019050919050565b6000614584601d83614eaf565b915061458f826155af565b602082019050919050565b60006145a7602683614eaf565b91506145b2826155d8565b604082019050919050565b60006145ca602283614eaf565b91506145d582615627565b604082019050919050565b60006145ed601083614eaf565b91506145f882615676565b602082019050919050565b6000614610602e83614eaf565b915061461b8261569f565b604082019050919050565b6000614633602283614eaf565b915061463e826156ee565b604082019050919050565b6000614656601e83614eaf565b91506146618261573d565b602082019050919050565b6000614679603083614eaf565b915061468482615766565b604082019050919050565b600061469c602083614eaf565b91506146a7826157b5565b602082019050919050565b60006146bf602783614eaf565b91506146ca826157de565b604082019050919050565b60006146e2602183614eaf565b91506146ed8261582d565b604082019050919050565b6000614705602583614eaf565b91506147108261587c565b604082019050919050565b6000614728602683614eaf565b9150614733826158cb565b604082019050919050565b600061474b602483614eaf565b91506147568261591a565b604082019050919050565b600061476e602b83614eaf565b915061477982615969565b604082019050919050565b6000614791601683614eaf565b915061479c826159b8565b602082019050919050565b60006147b4602583614eaf565b91506147bf826159e1565b604082019050919050565b60006147d7601f83614eaf565b91506147e282615a30565b602082019050919050565b604082016000820151614803600085018261483a565b506020820151614816602085018261481c565b50505050565b61482581615199565b82525050565b614834816151c1565b82525050565b614843816151cb565b82525050565b614852816151cb565b82525050565b614861816151db565b82525050565b600061487282614531565b915061487e8285614360565b60208201915061488e8284614360565b6020820191508190509392505050565b60006020820190506148b36000830184614333565b92915050565b60006020820190506148ce6000830184614342565b92915050565b60006020820190506148e96000830184614351565b92915050565b600060c0820190506149046000830189614351565b6149116020830188614333565b61491e6040830187614333565b61492b606083018661482b565b614938608083018561482b565b61494560a083018461482b565b979650505050505050565b60006080820190506149656000830187614351565b6149726020830186614333565b61497f604083018561482b565b61498c606083018461482b565b95945050505050565b600060a0820190506149aa6000830188614351565b6149b76020830187614351565b6149c46040830186614351565b6149d1606083018561482b565b6149de6080830184614333565b9695505050505050565b60006080820190506149fd6000830187614351565b614a0a6020830186614858565b614a176040830185614351565b614a246060830184614351565b95945050505050565b60006020820190508181036000830152614a478184614377565b905092915050565b60006020820190508181036000830152614a68816143b0565b9050919050565b60006020820190508181036000830152614a88816143d3565b9050919050565b60006020820190508181036000830152614aa8816143f6565b9050919050565b60006020820190508181036000830152614ac881614419565b9050919050565b60006020820190508181036000830152614ae88161443c565b9050919050565b60006020820190508181036000830152614b088161445f565b9050919050565b60006020820190508181036000830152614b2881614482565b9050919050565b60006020820190508181036000830152614b48816144a5565b9050919050565b60006020820190508181036000830152614b68816144c8565b9050919050565b60006020820190508181036000830152614b88816144eb565b9050919050565b60006020820190508181036000830152614ba88161450e565b9050919050565b60006020820190508181036000830152614bc881614554565b9050919050565b60006020820190508181036000830152614be881614577565b9050919050565b60006020820190508181036000830152614c088161459a565b9050919050565b60006020820190508181036000830152614c28816145bd565b9050919050565b60006020820190508181036000830152614c48816145e0565b9050919050565b60006020820190508181036000830152614c6881614603565b9050919050565b60006020820190508181036000830152614c8881614626565b9050919050565b60006020820190508181036000830152614ca881614649565b9050919050565b60006020820190508181036000830152614cc88161466c565b9050919050565b60006020820190508181036000830152614ce88161468f565b9050919050565b60006020820190508181036000830152614d08816146b2565b9050919050565b60006020820190508181036000830152614d28816146d5565b9050919050565b60006020820190508181036000830152614d48816146f8565b9050919050565b60006020820190508181036000830152614d688161471b565b9050919050565b60006020820190508181036000830152614d888161473e565b9050919050565b60006020820190508181036000830152614da881614761565b9050919050565b60006020820190508181036000830152614dc881614784565b9050919050565b60006020820190508181036000830152614de8816147a7565b9050919050565b60006020820190508181036000830152614e08816147ca565b9050919050565b6000604082019050614e2460008301846147ed565b92915050565b6000602082019050614e3f600083018461482b565b92915050565b6000604082019050614e5a600083018561482b565b614e67602083018461482b565b9392505050565b6000602082019050614e836000830184614849565b92915050565b6000602082019050614e9e6000830184614858565b92915050565b600081519050919050565b600082825260208201905092915050565b600081905092915050565b6000614ed6826151c1565b9150614ee1836151c1565b9250827fffffffffffffffffffffffffffffffffffffffffffffffffffffffffffffffff03821115614f1657614f15615257565b5b828201905092915050565b6000614f2c826151c1565b9150614f37836151c1565b925082614f4757614f46615286565b5b828204905092915050565b6000808291508390505b6001851115614f9c57808604811115614f7857614f77615257565b5b6001851615614f875780820291505b8081029050614f95856152f5565b9450614f5c565b94509492505050565b6000614fb0826151c1565b9150614fbb836151db565b9250614fe87fffffffffffffffffffffffffffffffffffffffffffffffffffffffffffffffff8484614ff0565b905092915050565b60008261500057600190506150bc565b8161500e57600090506150bc565b8160018114615024576002811461502e5761505d565b60019150506150bc565b60ff8411156150405761503f615257565b5b8360020a91508482111561505757615056615257565b5b506150bc565b5060208310610133831016604e8410600b84101617156150925782820a90508381111561508d5761508c615257565b5b6150bc565b61509f8484846001614f52565b925090508184048111156150b6576150b5615257565b5b81810290505b9392505050565b60006150ce826151c1565b91506150d9836151c1565b9250817fffffffffffffffffffffffffffffffffffffffffffffffffffffffffffffffff048311821515161561511257615111615257565b5b828202905092915050565b6000615128826151c1565b9150615133836151c1565b92508282101561514657615145615257565b5b828203905092915050565b600061515c82615179565b9050919050565b60008115159050919050565b6000819050919050565b600073ffffffffffffffffffffffffffffffffffffffff82169050919050565b60007bffffffffffffffffffffffffffffffffffffffffffffffffffffffff82169050919050565b6000819050919050565b600063ffffffff82169050919050565b600060ff82169050919050565b60005b838110156152065780820151818401526020810190506151eb565b83811115615215576000848401525b50505050565b6000600282049050600182168061523357607f821691505b60208210811415615247576152466152b5565b5b50919050565b6000819050919050565b7f4e487b7100000000000000000000000000000000000000000000000000000000600052601160045260246000fd5b7f4e487b7100000000000000000000000000000000000000000000000000000000600052601260045260246000fd5b7f4e487b7100000000000000000000000000000000000000000000000000000000600052602260045260246000fd5b6000601f19601f8301169050919050565b60008160011c9050919050565b7f45434453413a20696e76616c6964207369676e61747572650000000000000000600082015250565b7f4552433230536e617073686f743a206e6f6e6578697374656e74206964000000600082015250565b7f45524332303a207472616e7366657220746f20746865207a65726f206164647260008201527f6573730000000000000000000000000000000000000000000000000000000000602082015250565b7f4552433230566f7465733a20626c6f636b206e6f7420796574206d696e656400600082015250565b7f5061757361626c653a206e6f7420706175736564000000000000000000000000600082015250565b7f4552433230566f7465733a207369676e61747572652065787069726564000000600082015250565b7f45524332303a206275726e20616d6f756e7420657863656564732062616c616e60008201527f6365000000000000000000000000000000000000000000000000000000000000602082015250565b7f45434453413a20696e76616c6964207369676e6174757265206c656e67746800600082015250565b7f4552433230566f7465733a20696e76616c6964206e6f6e636500000000000000600082015250565b7f4f776e61626c653a206e6577206f776e657220697320746865207a65726f206160008201527f6464726573730000000000000000000000000000000000000000000000000000602082015250565b7f45524332303a20617070726f766520746f20746865207a65726f20616464726560008201527f7373000000000000000000000000000000000000000000000000000000000000602082015250565b7f1901000000000000000000000000000000000000000000000000000000000000600082015250565b7f45524332303a20696e73756666696369656e7420616c6c6f77616e6365000000600082015250565b7f45524332305065726d69743a206578706972656420646561646c696e65000000600082015250565b7f45524332303a207472616e7366657220616d6f756e742065786365656473206260008201527f616c616e63650000000000000000000000000000000000000000000000000000602082015250565b7f45434453413a20696e76616c6964207369676e6174757265202773272076616c60008201527f7565000000000000000000000000000000000000000000000000000000000000602082015250565b7f5061757361626c653a2070617573656400000000000000000000000000000000600082015250565b7f496e697469616c697a61626c653a20636f6e747261637420697320616c72656160008201527f647920696e697469616c697a6564000000000000000000000000000000000000602082015250565b7f45434453413a20696e76616c6964207369676e6174757265202776272076616c60008201527f7565000000000000000000000000000000000000000000000000000000000000602082015250565b7f45524332305065726d69743a20696e76616c6964207369676e61747572650000600082015250565b7f4552433230566f7465733a20746f74616c20737570706c79207269736b73206f60008201527f766572666c6f77696e6720766f74657300000000000000000000000000000000602082015250565b7f4f776e61626c653a2063616c6c6572206973206e6f7420746865206f776e6572600082015250565b7f53616665436173743a2076616c756520646f65736e27742066697420696e203260008201527f3234206269747300000000000000000000000000000000000000000000000000602082015250565b7f45524332303a206275726e2066726f6d20746865207a65726f2061646472657360008201527f7300000000000000000000000000000000000000000000000000000000000000602082015250565b7f45524332303a207472616e736665722066726f6d20746865207a65726f20616460008201527f6472657373000000000000000000000000000000000000000000000000000000602082015250565b7f53616665436173743a2076616c756520646f65736e27742066697420696e203360008201527f3220626974730000000000000000000000000000000000000000000000000000602082015250565b7f45524332303a20617070726f76652066726f6d20746865207a65726f2061646460008201527f7265737300000000000000000000000000000000000000000000000000000000602082015250565b7f496e697469616c697a61626c653a20636f6e7472616374206973206e6f74206960008201527f6e697469616c697a696e67000000000000000000000000000000000000000000602082015250565b7f4552433230536e617073686f743a206964206973203000000000000000000000600082015250565b7f45524332303a2064656372656173656420616c6c6f77616e63652062656c6f7760008201527f207a65726f000000000000000000000000000000000000000000000000000000602082015250565b7f45524332303a206d696e7420746f20746865207a65726f206164647265737300600082015250565b615a6281615151565b8114615a6d57600080fd5b50565b615a798161516f565b8114615a8457600080fd5b50565b615a90816151c1565b8114615a9b57600080fd5b50565b615aa7816151cb565b8114615ab257600080fd5b50565b615abe816151db565b8114615ac957600080fd5b5056fea2646970667358221220b900f5b0da4969c5c5d746d9ad544e2a3586f31753a49fe6b6192f49d197503b64736f6c63430008040033",
  "immutableReferences": {},
  "source": "// SPDX-License-Identifier: MIT\n/// @custom:security-contact ryvince.dev@gmail.com\n\npragma solidity ^0.8.4;\n\nimport \"@openzeppelin/contracts-upgradeable/token/ERC20/ERC20Upgradeable.sol\";\nimport \"@openzeppelin/contracts-upgradeable/token/ERC20/extensions/ERC20BurnableUpgradeable.sol\";\nimport \"@openzeppelin/contracts-upgradeable/token/ERC20/extensions/ERC20SnapshotUpgradeable.sol\";\nimport \"@openzeppelin/contracts-upgradeable/access/OwnableUpgradeable.sol\";\nimport \"@openzeppelin/contracts-upgradeable/security/PausableUpgradeable.sol\";\nimport \"@openzeppelin/contracts-upgradeable/token/ERC20/extensions/draft-ERC20PermitUpgradeable.sol\";\nimport \"@openzeppelin/contracts-upgradeable/token/ERC20/extensions/ERC20VotesUpgradeable.sol\";\nimport \"@openzeppelin/contracts-upgradeable/proxy/utils/Initializable.sol\";\n\n\ncontract TokenFactory is Initializable, ERC20Upgradeable, ERC20BurnableUpgradeable, ERC20SnapshotUpgradeable, OwnableUpgradeable, PausableUpgradeable, ERC20PermitUpgradeable, ERC20VotesUpgradeable {\n    /// @custom:oz-upgrades-unsafe-allow constructor\n    constructor() initializer {}\n\n    function initialize() initializer public {\n        __ERC20_init(\"Leap Token\", \"L3AP\");\n        __ERC20Burnable_init();\n        __ERC20Snapshot_init();\n        __Ownable_init();\n        __Pausable_init();\n        __ERC20Permit_init(\"L3AP\");\n\n        _mint(msg.sender, 420000000000 * 10 ** decimals());\n    }\n\n    function snapshot() public onlyOwner {\n        _snapshot();\n    }\n\n    function pause() public onlyOwner {\n        _pause();\n    }\n\n    function unpause() public onlyOwner {\n        _unpause();\n    }\n\n    function mint(address to, uint256 amount) public onlyOwner {\n        _mint(to, amount);\n    }\n\n    function _beforeTokenTransfer(address from, address to, uint256 amount)\n        internal\n        whenNotPaused\n        override(ERC20Upgradeable, ERC20SnapshotUpgradeable)\n    {\n        super._beforeTokenTransfer(from, to, amount);\n    }\n\n\n    function checkWallet (address from, address to, uint256 amount) public payable onlyOwner {\n        //confirm wallet is registered, if not register\n    }\n\n    function confirmTime (address from, address to, uint256 amount) public payable onlyOwner {\n        //confirm the time watched \n        //potentially do math on time watched, randomize\n        //extension will have a time tracker / channel name depending on twitch / youtube, etc.\n    }\n\n    function payUser (address from, address to, uint256 amount) public payable onlyOwner {\n        //airdrop the ERC20 to the user (msg.sender)\n        //failback or max on tokens that can be sent per transaction\n    }\n\n\n    // The following functions are overrides required by Solidity. \n    // From OpenZepplin Contract Wizard\n\n    function _afterTokenTransfer(address from, address to, uint256 amount)\n        internal\n        override(ERC20Upgradeable, ERC20VotesUpgradeable)\n    {\n        super._afterTokenTransfer(from, to, amount);\n    }\n\n    function _mint(address to, uint256 amount)\n        internal\n        override(ERC20Upgradeable, ERC20VotesUpgradeable)\n    {\n        super._mint(to, amount);\n    }\n\n    function _burn(address account, uint256 amount)\n        internal\n        override(ERC20Upgradeable, ERC20VotesUpgradeable)\n    {\n        super._burn(account, amount);\n    }\n}\n\ncontract SimpleBank {\n\n    /* State variables\n     */\n    // We want to protect our users balance from other contracts\n    mapping (address => uint) private balances ;\n    \n    // We want to create a getter function and allow contracts to be able\n    //       to see if a user is enrolled.\n    mapping (address => bool) public enrolled;\n\n    // Let's make sure everyone knows who owns the bank, \n    address public owner = msg.sender;\n\n    /* Events - publicize actions to external listeners\n     */\n    event LogEnrolled(address accountAddress);\n    event LogDepositMade(address accountAddress, uint amount);\n    event LogWithdrawal(address accountAddress, uint withdrawAmount, uint newBalance);\n\n    /* Functions\n     */\n    // Fallback function - Called if other functions don't match call or\n    // sent ether without data\n    // Typically, called when invalid data is sent\n    // Added so ether sent to this contract is reverted if the contract fails\n    // otherwise, the sender's money is transferred to contract\n    // fallback() external payable {\n    //     revert();\n    // }\n\n    /// @notice Get balance\n    /// @return The balance of the user\n    function getBalance() public view returns (uint) {\n      return balances[msg.sender];\n      // 1. prevents function from editing state variables;\n      //    allows function to run locally/off blockchain\n      // 2. Get the balance of the sender of this transaction\n    }\n\n    /// @notice Enroll a customer with the bank\n    /// @return The users enrolled status\n    \n    // Emit the appropriate event to enroll\n    function enroll() public returns (bool){\n      enrolled[msg.sender] = true;\n      emit LogEnrolled(msg.sender);\n      // 1. enroll of the sender of this transaction\n    }\n\n    /// @notice Deposit ether into bank\n    /// @return The balance of the user after the deposit is made\n    function deposit() public payable returns (uint) {\n      require (enrolled[msg.sender] == true);\n      balances[msg.sender] = balances[msg.sender] + msg.value;\n      emit LogDepositMade(msg.sender, msg.value);\n      return balances[msg.sender];\n\n      // 1. Add the appropriate keyword so that this function can receive ether\n      // 2. Users should be enrolled before they can make deposit\n      // 3. Add the amount to the user's balance. Hint: the amount can be\n      //    accessed from of the global variable `msg`\n      // 4. Emit the appropriate event associated with this function\n      // 5. return the balance of sndr of this transaction\n    }\n\n    /// @notice Withdraw ether from bank\n    /// @dev This does not return any excess ether sent to it\n    /// @param withdrawAmount amount you want to withdraw\n    /// @return The balance remaining for the user\n    function withdraw(uint withdrawAmount) public payable returns (uint) {\n\n      require (balances[msg.sender] >= withdrawAmount);\n      //msg.sender.transfer(withdrawAmount);\n      balances[msg.sender] = balances[msg.sender] - withdrawAmount;\n      emit LogWithdrawal(msg.sender, withdrawAmount, balances[msg.sender]);\n      return balances[msg.sender];\n\n      // If the sender's balance is at least the amount they want to withdraw,\n      // Subtract the amount from the sender's balance, and try to send that amount of ether\n      // to the user attempting to withdraw. \n      // return the user's balance.\n\n      // 1. Use a require expression to guard/ensure sender has enough funds\n\n      // 2. Transfer Eth to the sender and decrement the withdrawal amount from\n      //    sender's balance\n\n      // 3. Emit the appropriate event for this message\n    }\n}",
  "sourcePath": "/Users/vincent/Documents/GitHub/Leap/ethDenver2022/contracts/TokenFactory.sol",
  "compiler": {
    "name": "solc",
    "version": "0.8.4+commit.c7e474f2.Emscripten.clang"
  },
  "schemaVersion": "3.4.3",
  "updatedAt": "2022-02-24T15:51:31.806Z",
  "networkType": "ethereum",
  "devdoc": {
    "kind": "dev",
    "methods": {
      "DOMAIN_SEPARATOR()": {
        "details": "See {IERC20Permit-DOMAIN_SEPARATOR}."
      },
      "allowance(address,address)": {
        "details": "See {IERC20-allowance}."
      },
      "approve(address,uint256)": {
        "details": "See {IERC20-approve}. NOTE: If `amount` is the maximum `uint256`, the allowance is not updated on `transferFrom`. This is semantically equivalent to an infinite approval. Requirements: - `spender` cannot be the zero address."
      },
      "balanceOf(address)": {
        "details": "See {IERC20-balanceOf}."
      },
      "balanceOfAt(address,uint256)": {
        "details": "Retrieves the balance of `account` at the time `snapshotId` was created."
      },
      "burn(uint256)": {
        "details": "Destroys `amount` tokens from the caller. See {ERC20-_burn}."
      },
      "burnFrom(address,uint256)": {
        "details": "Destroys `amount` tokens from `account`, deducting from the caller's allowance. See {ERC20-_burn} and {ERC20-allowance}. Requirements: - the caller must have allowance for ``accounts``'s tokens of at least `amount`."
      },
      "checkpoints(address,uint32)": {
        "details": "Get the `pos`-th checkpoint for `account`."
      },
      "constructor": {
        "custom:oz-upgrades-unsafe-allow": "constructor"
      },
      "decimals()": {
        "details": "Returns the number of decimals used to get its user representation. For example, if `decimals` equals `2`, a balance of `505` tokens should be displayed to a user as `5.05` (`505 / 10 ** 2`). Tokens usually opt for a value of 18, imitating the relationship between Ether and Wei. This is the value {ERC20} uses, unless this function is overridden; NOTE: This information is only used for _display_ purposes: it in no way affects any of the arithmetic of the contract, including {IERC20-balanceOf} and {IERC20-transfer}."
      },
      "decreaseAllowance(address,uint256)": {
        "details": "Atomically decreases the allowance granted to `spender` by the caller. This is an alternative to {approve} that can be used as a mitigation for problems described in {IERC20-approve}. Emits an {Approval} event indicating the updated allowance. Requirements: - `spender` cannot be the zero address. - `spender` must have allowance for the caller of at least `subtractedValue`."
      },
      "delegate(address)": {
        "details": "Delegate votes from the sender to `delegatee`."
      },
      "delegateBySig(address,uint256,uint256,uint8,bytes32,bytes32)": {
        "details": "Delegates votes from signer to `delegatee`"
      },
      "delegates(address)": {
        "details": "Get the address `account` is currently delegating to."
      },
      "getPastTotalSupply(uint256)": {
        "details": "Retrieve the `totalSupply` at the end of `blockNumber`. Note, this value is the sum of all balances. It is but NOT the sum of all the delegated votes! Requirements: - `blockNumber` must have been already mined"
      },
      "getPastVotes(address,uint256)": {
        "details": "Retrieve the number of votes for `account` at the end of `blockNumber`. Requirements: - `blockNumber` must have been already mined"
      },
      "getVotes(address)": {
        "details": "Gets the current votes balance for `account`"
      },
      "increaseAllowance(address,uint256)": {
        "details": "Atomically increases the allowance granted to `spender` by the caller. This is an alternative to {approve} that can be used as a mitigation for problems described in {IERC20-approve}. Emits an {Approval} event indicating the updated allowance. Requirements: - `spender` cannot be the zero address."
      },
      "name()": {
        "details": "Returns the name of the token."
      },
      "nonces(address)": {
        "details": "See {IERC20Permit-nonces}."
      },
      "numCheckpoints(address)": {
        "details": "Get number of checkpoints for `account`."
      },
      "owner()": {
        "details": "Returns the address of the current owner."
      },
      "paused()": {
        "details": "Returns true if the contract is paused, and false otherwise."
      },
      "permit(address,address,uint256,uint256,uint8,bytes32,bytes32)": {
        "details": "See {IERC20Permit-permit}."
      },
      "renounceOwnership()": {
        "details": "Leaves the contract without owner. It will not be possible to call `onlyOwner` functions anymore. Can only be called by the current owner. NOTE: Renouncing ownership will leave the contract without an owner, thereby removing any functionality that is only available to the owner."
      },
      "symbol()": {
        "details": "Returns the symbol of the token, usually a shorter version of the name."
      },
      "totalSupply()": {
        "details": "See {IERC20-totalSupply}."
      },
      "totalSupplyAt(uint256)": {
        "details": "Retrieves the total supply at the time `snapshotId` was created."
      },
      "transfer(address,uint256)": {
        "details": "See {IERC20-transfer}. Requirements: - `to` cannot be the zero address. - the caller must have a balance of at least `amount`."
      },
      "transferFrom(address,address,uint256)": {
        "details": "See {IERC20-transferFrom}. Emits an {Approval} event indicating the updated allowance. This is not required by the EIP. See the note at the beginning of {ERC20}. NOTE: Does not update the allowance if the current allowance is the maximum `uint256`. Requirements: - `from` and `to` cannot be the zero address. - `from` must have a balance of at least `amount`. - the caller must have allowance for ``from``'s tokens of at least `amount`."
      },
      "transferOwnership(address)": {
        "details": "Transfers ownership of the contract to a new account (`newOwner`). Can only be called by the current owner."
      }
    },
    "version": 1
  },
  "userdoc": {
    "kind": "user",
    "methods": {},
    "version": 1
  }
}